{
  "_format": "hh-sol-artifact-1",
  "contractName": "FaniqueSecondaryMarketWhiteListUpgradeable",
  "sourceName": "contracts/WhiteList/FaniqueSecondaryMarketWhiteListUpgradeable.sol",
  "abi": [
    {
      "anonymous": false,
      "inputs": [
        {
          "indexed": true,
          "internalType": "uint16",
          "name": "version",
          "type": "uint16"
        },
        {
          "indexed": true,
          "internalType": "contract AccessControlUpgradeable",
          "name": "accessController",
          "type": "address"
        }
      ],
      "name": "AccessControlUpdated",
      "type": "event"
    },
    {
      "anonymous": false,
      "inputs": [
        {
          "indexed": true,
          "internalType": "address",
          "name": "sender",
          "type": "address"
        },
        {
          "indexed": false,
          "internalType": "address[]",
          "name": "whiteList",
          "type": "address[]"
        }
      ],
      "name": "AddedWhiteList",
      "type": "event"
    },
    {
      "anonymous": false,
      "inputs": [
        {
          "indexed": false,
          "internalType": "uint8",
          "name": "version",
          "type": "uint8"
        }
      ],
      "name": "Initialized",
      "type": "event"
    },
    {
      "anonymous": false,
      "inputs": [
        {
          "indexed": true,
          "internalType": "address",
          "name": "sender",
          "type": "address"
        },
        {
          "indexed": false,
          "internalType": "address[]",
          "name": "whiteList",
          "type": "address[]"
        }
      ],
      "name": "RemoveedWhiteList",
      "type": "event"
    },
    {
      "inputs": [],
      "name": "AccessControlVersion",
      "outputs": [
        {
          "internalType": "uint16",
          "name": "",
          "type": "uint16"
        }
      ],
      "stateMutability": "view",
      "type": "function"
    },
    {
      "inputs": [],
      "name": "WHITELIST_ROLE",
      "outputs": [
        {
          "internalType": "bytes32",
          "name": "",
          "type": "bytes32"
        }
      ],
      "stateMutability": "view",
      "type": "function"
    },
    {
      "inputs": [
        {
          "internalType": "uint16",
          "name": "",
          "type": "uint16"
        }
      ],
      "name": "accessController",
      "outputs": [
        {
          "internalType": "contract AccessControlUpgradeable",
          "name": "",
          "type": "address"
        }
      ],
      "stateMutability": "view",
      "type": "function"
    },
    {
      "inputs": [
        {
          "internalType": "address[]",
          "name": "_whiteList",
          "type": "address[]"
        }
      ],
      "name": "addWhiteList",
      "outputs": [],
      "stateMutability": "nonpayable",
      "type": "function"
    },
    {
      "inputs": [
        {
          "internalType": "contract AccessControlUpgradeable",
          "name": "_accessControler",
          "type": "address"
        }
      ],
      "name": "initialize",
      "outputs": [],
      "stateMutability": "nonpayable",
      "type": "function"
    },
    {
      "inputs": [
        {
          "internalType": "address",
          "name": "_whiteListAddress",
          "type": "address"
        }
      ],
      "name": "isWhiteList",
      "outputs": [
        {
          "internalType": "bool",
          "name": "",
          "type": "bool"
        }
      ],
      "stateMutability": "view",
      "type": "function"
    },
    {
      "inputs": [
        {
          "internalType": "address[]",
          "name": "_removewhiteList",
          "type": "address[]"
        }
      ],
      "name": "removeWhiteList",
      "outputs": [],
      "stateMutability": "nonpayable",
      "type": "function"
    },
    {
      "inputs": [],
      "name": "version",
      "outputs": [
        {
          "internalType": "string",
          "name": "",
          "type": "string"
        }
      ],
      "stateMutability": "pure",
      "type": "function"
    },
    {
      "inputs": [
        {
          "internalType": "address",
          "name": "",
          "type": "address"
        }
      ],
      "name": "whiteList",
      "outputs": [
        {
          "internalType": "bool",
          "name": "",
          "type": "bool"
        }
      ],
      "stateMutability": "view",
      "type": "function"
    }
  ],
  "bytecode": "0x608060405234801561001057600080fd5b5061084e806100206000396000f3fe608060405234801561001057600080fd5b50600436106100935760003560e01c80635fdf6ba3116100665780635fdf6ba31461011b5780637a997ab71461013c578063a3484ff114610171578063c4d66de8146101b2578063f99031a7146101c557600080fd5b8063372c12b11461009857806339745791146100d057806354fd4d50146100e55780635e1045ec14610108575b600080fd5b6100bb6100a63660046105fd565b60356020526000908152604090205460ff1681565b60405190151581526020015b60405180910390f35b6100e36100de366004610637565b6101f1565b005b60408051808201825260018152603160f81b602082015290516100c791906106fc565b6100e3610116366004610637565b6102c7565b6033546101299061ffff1681565b60405161ffff90911681526020016100c7565b6101637fdc72ed553f2544c34465af23b847953efeb813428162d767f9ba5f4013be676081565b6040519081526020016100c7565b61019a61017f36600461074a565b6034602052600090815260409020546001600160a01b031681565b6040516001600160a01b0390911681526020016100c7565b6100e36101c03660046105fd565b61039c565b6100bb6101d33660046105fd565b6001600160a01b031660009081526035602052604090205460ff1690565b7fdc72ed553f2544c34465af23b847953efeb813428162d767f9ba5f4013be676061021b816104af565b6102635760405162461bcd60e51b815260206004820152601460248201527337379030b1b1b2b9b9903832b936b4b9b9b4b7b760611b60448201526064015b60405180910390fd5b60005b82518110156102c257603560008483815181106102855761028561076e565b6020908102919091018101516001600160a01b03168252810191909152604001600020805460ff19169055806102ba81610784565b915050610266565b505050565b7fdc72ed553f2544c34465af23b847953efeb813428162d767f9ba5f4013be67606102f1816104af565b6103345760405162461bcd60e51b815260206004820152601460248201527337379030b1b1b2b9b9903832b936b4b9b9b4b7b760611b604482015260640161025a565b60005b82518110156102c2576001603560008584815181106103585761035861076e565b6020908102919091018101516001600160a01b03168252810191909152604001600020805460ff19169115159190911790558061039481610784565b915050610337565b600054610100900460ff16158080156103bc5750600054600160ff909116105b806103d65750303b1580156103d6575060005460ff166001145b6104395760405162461bcd60e51b815260206004820152602e60248201527f496e697469616c697a61626c653a20636f6e747261637420697320616c72656160448201526d191e481a5b9a5d1a585b1a5e995960921b606482015260840161025a565b6000805460ff19166001179055801561045c576000805461ff0019166101001790555b61046582610549565b80156104ab576000805461ff0019169055604051600181527f7f26b83ff96e1f2b6a682f133852f6798a09c465da95921460cefb38474024989060200160405180910390a15b5050565b60335461ffff166000908152603460205260408120546001600160a01b03166391d1485483336040516001600160e01b031960e085901b16815260048101929092526001600160a01b03166024820152604401602060405180830381865afa15801561051f573d6000803e3d6000fd5b505050506040513d601f19601f8201168201806040525081019061054391906107ab565b92915050565b600054610100900460ff166105705760405162461bcd60e51b815260040161025a906107cd565b6105798161057c565b50565b600054610100900460ff166105a35760405162461bcd60e51b815260040161025a906107cd565b60335461ffff16600090815260346020526040902080546001600160a01b0319166001600160a01b0392909216919091179055565b6001600160a01b038116811461057957600080fd5b80356105f8816105d8565b919050565b60006020828403121561060f57600080fd5b813561061a816105d8565b9392505050565b634e487b7160e01b600052604160045260246000fd5b6000602080838503121561064a57600080fd5b823567ffffffffffffffff8082111561066257600080fd5b818501915085601f83011261067657600080fd5b81358181111561068857610688610621565b8060051b604051601f19603f830116810181811085821117156106ad576106ad610621565b6040529182528482019250838101850191888311156106cb57600080fd5b938501935b828510156106f0576106e1856105ed565b845293850193928501926106d0565b98975050505050505050565b600060208083528351808285015260005b818110156107295785810183015185820160400152820161070d565b506000604082860101526040601f19601f8301168501019250505092915050565b60006020828403121561075c57600080fd5b813561ffff8116811461061a57600080fd5b634e487b7160e01b600052603260045260246000fd5b6000600182016107a457634e487b7160e01b600052601160045260246000fd5b5060010190565b6000602082840312156107bd57600080fd5b8151801515811461061a57600080fd5b6020808252602b908201527f496e697469616c697a61626c653a20636f6e7472616374206973206e6f74206960408201526a6e697469616c697a696e6760a81b60608201526080019056fea2646970667358221220b631c2103727a4219ab9a113b9b267b48d8cb01aaf99dfe9cb47aced3ed56ec964736f6c63430008130033",
  "linkReferences": {},
  "deployedLinkReferences": {}
}