{
  "_format": "hh-sol-artifact-1",
  "contractName": "BroncosCoin",
  "sourceName": "contracts/FungibleToken/BroncosCoin.sol",
  "abi": [
    {
      "anonymous": false,
      "inputs": [
        {
          "indexed": true,
          "internalType": "uint16",
          "name": "version",
          "type": "uint16"
        },
        {
          "indexed": true,
          "internalType": "contract AccessControlUpgradeable",
          "name": "accessController",
          "type": "address"
        }
      ],
      "name": "AccessControlUpdated",
      "type": "event"
    },
    {
      "anonymous": false,
      "inputs": [
        {
          "indexed": true,
          "internalType": "address",
          "name": "owner",
          "type": "address"
        },
        {
          "indexed": true,
          "internalType": "address",
          "name": "spender",
          "type": "address"
        },
        {
          "indexed": false,
          "internalType": "uint256",
          "name": "value",
          "type": "uint256"
        }
      ],
      "name": "Approval",
      "type": "event"
    },
    {
      "anonymous": false,
      "inputs": [
        {
          "indexed": false,
          "internalType": "uint8",
          "name": "version",
          "type": "uint8"
        }
      ],
      "name": "Initialized",
      "type": "event"
    },
    {
      "anonymous": false,
      "inputs": [
        {
          "indexed": true,
          "internalType": "address",
          "name": "from",
          "type": "address"
        },
        {
          "indexed": true,
          "internalType": "address",
          "name": "to",
          "type": "address"
        },
        {
          "indexed": false,
          "internalType": "uint256",
          "name": "value",
          "type": "uint256"
        }
      ],
      "name": "Transfer",
      "type": "event"
    },
    {
      "inputs": [],
      "name": "ACCESS_ROLE",
      "outputs": [
        {
          "internalType": "bytes32",
          "name": "",
          "type": "bytes32"
        }
      ],
      "stateMutability": "view",
      "type": "function"
    },
    {
      "inputs": [],
      "name": "AccessControlVersion",
      "outputs": [
        {
          "internalType": "uint16",
          "name": "",
          "type": "uint16"
        }
      ],
      "stateMutability": "view",
      "type": "function"
    },
    {
      "inputs": [],
      "name": "DOMAIN_SEPARATOR",
      "outputs": [
        {
          "internalType": "bytes32",
          "name": "",
          "type": "bytes32"
        }
      ],
      "stateMutability": "view",
      "type": "function"
    },
    {
      "inputs": [],
      "name": "PERMIT_TYPEHASH",
      "outputs": [
        {
          "internalType": "bytes32",
          "name": "",
          "type": "bytes32"
        }
      ],
      "stateMutability": "view",
      "type": "function"
    },
    {
      "inputs": [],
      "name": "TOKEN_ROLE",
      "outputs": [
        {
          "internalType": "bytes32",
          "name": "",
          "type": "bytes32"
        }
      ],
      "stateMutability": "view",
      "type": "function"
    },
    {
      "inputs": [
        {
          "internalType": "address",
          "name": "_to",
          "type": "address"
        }
      ],
      "name": "_isOpen",
      "outputs": [
        {
          "internalType": "bool",
          "name": "ruslut",
          "type": "bool"
        }
      ],
      "stateMutability": "view",
      "type": "function"
    },
    {
      "inputs": [
        {
          "internalType": "uint16",
          "name": "",
          "type": "uint16"
        }
      ],
      "name": "accessController",
      "outputs": [
        {
          "internalType": "contract AccessControlUpgradeable",
          "name": "",
          "type": "address"
        }
      ],
      "stateMutability": "view",
      "type": "function"
    },
    {
      "inputs": [
        {
          "internalType": "address",
          "name": "owner",
          "type": "address"
        },
        {
          "internalType": "address",
          "name": "spender",
          "type": "address"
        }
      ],
      "name": "allowance",
      "outputs": [
        {
          "internalType": "uint256",
          "name": "",
          "type": "uint256"
        }
      ],
      "stateMutability": "view",
      "type": "function"
    },
    {
      "inputs": [
        {
          "internalType": "address",
          "name": "spender",
          "type": "address"
        },
        {
          "internalType": "uint256",
          "name": "amount",
          "type": "uint256"
        }
      ],
      "name": "approve",
      "outputs": [
        {
          "internalType": "bool",
          "name": "",
          "type": "bool"
        }
      ],
      "stateMutability": "nonpayable",
      "type": "function"
    },
    {
      "inputs": [
        {
          "internalType": "address",
          "name": "account",
          "type": "address"
        }
      ],
      "name": "balanceOf",
      "outputs": [
        {
          "internalType": "uint256",
          "name": "",
          "type": "uint256"
        }
      ],
      "stateMutability": "view",
      "type": "function"
    },
    {
      "inputs": [
        {
          "internalType": "address",
          "name": "from",
          "type": "address"
        },
        {
          "internalType": "uint256",
          "name": "amount",
          "type": "uint256"
        }
      ],
      "name": "burn",
      "outputs": [],
      "stateMutability": "nonpayable",
      "type": "function"
    },
    {
      "inputs": [],
      "name": "decimals",
      "outputs": [
        {
          "internalType": "uint8",
          "name": "",
          "type": "uint8"
        }
      ],
      "stateMutability": "view",
      "type": "function"
    },
    {
      "inputs": [
        {
          "internalType": "address",
          "name": "spender",
          "type": "address"
        },
        {
          "internalType": "uint256",
          "name": "subtractedValue",
          "type": "uint256"
        }
      ],
      "name": "decreaseAllowance",
      "outputs": [
        {
          "internalType": "bool",
          "name": "",
          "type": "bool"
        }
      ],
      "stateMutability": "nonpayable",
      "type": "function"
    },
    {
      "inputs": [
        {
          "internalType": "address",
          "name": "spender",
          "type": "address"
        },
        {
          "internalType": "uint256",
          "name": "addedValue",
          "type": "uint256"
        }
      ],
      "name": "increaseAllowance",
      "outputs": [
        {
          "internalType": "bool",
          "name": "",
          "type": "bool"
        }
      ],
      "stateMutability": "nonpayable",
      "type": "function"
    },
    {
      "inputs": [
        {
          "internalType": "contract AccessControlUpgradeable",
          "name": "_accessControler",
          "type": "address"
        },
        {
          "internalType": "contract IFaniqueWhiteListUpgradeable",
          "name": "_broncosCoinWhiteList",
          "type": "address"
        }
      ],
      "name": "initialize",
      "outputs": [],
      "stateMutability": "nonpayable",
      "type": "function"
    },
    {
      "inputs": [
        {
          "internalType": "address",
          "name": "addr",
          "type": "address"
        }
      ],
      "name": "isEOA",
      "outputs": [
        {
          "internalType": "bool",
          "name": "",
          "type": "bool"
        }
      ],
      "stateMutability": "view",
      "type": "function"
    },
    {
      "inputs": [
        {
          "internalType": "address",
          "name": "to",
          "type": "address"
        },
        {
          "internalType": "uint256",
          "name": "amount",
          "type": "uint256"
        }
      ],
      "name": "mint",
      "outputs": [],
      "stateMutability": "nonpayable",
      "type": "function"
    },
    {
      "inputs": [],
      "name": "name",
      "outputs": [
        {
          "internalType": "string",
          "name": "",
          "type": "string"
        }
      ],
      "stateMutability": "view",
      "type": "function"
    },
    {
      "inputs": [
        {
          "internalType": "address",
          "name": "",
          "type": "address"
        }
      ],
      "name": "nonces",
      "outputs": [
        {
          "internalType": "uint256",
          "name": "",
          "type": "uint256"
        }
      ],
      "stateMutability": "view",
      "type": "function"
    },
    {
      "inputs": [
        {
          "internalType": "address",
          "name": "owner",
          "type": "address"
        },
        {
          "internalType": "address",
          "name": "spender",
          "type": "address"
        },
        {
          "internalType": "uint256",
          "name": "amount",
          "type": "uint256"
        },
        {
          "internalType": "uint256",
          "name": "deadline",
          "type": "uint256"
        },
        {
          "internalType": "uint8",
          "name": "v",
          "type": "uint8"
        },
        {
          "internalType": "bytes32",
          "name": "r",
          "type": "bytes32"
        },
        {
          "internalType": "bytes32",
          "name": "s",
          "type": "bytes32"
        }
      ],
      "name": "permit",
      "outputs": [],
      "stateMutability": "nonpayable",
      "type": "function"
    },
    {
      "inputs": [
        {
          "internalType": "contract AccessControlUpgradeable",
          "name": "newaccessControler",
          "type": "address"
        }
      ],
      "name": "setAccessControler",
      "outputs": [],
      "stateMutability": "nonpayable",
      "type": "function"
    },
    {
      "inputs": [],
      "name": "symbol",
      "outputs": [
        {
          "internalType": "string",
          "name": "",
          "type": "string"
        }
      ],
      "stateMutability": "view",
      "type": "function"
    },
    {
      "inputs": [],
      "name": "totalSupply",
      "outputs": [
        {
          "internalType": "uint256",
          "name": "",
          "type": "uint256"
        }
      ],
      "stateMutability": "view",
      "type": "function"
    },
    {
      "inputs": [
        {
          "internalType": "address",
          "name": "to",
          "type": "address"
        },
        {
          "internalType": "uint256",
          "name": "amount",
          "type": "uint256"
        }
      ],
      "name": "transfer",
      "outputs": [
        {
          "internalType": "bool",
          "name": "",
          "type": "bool"
        }
      ],
      "stateMutability": "nonpayable",
      "type": "function"
    },
    {
      "inputs": [
        {
          "internalType": "address",
          "name": "from",
          "type": "address"
        },
        {
          "internalType": "address",
          "name": "to",
          "type": "address"
        },
        {
          "internalType": "uint256",
          "name": "amount",
          "type": "uint256"
        }
      ],
      "name": "transferFrom",
      "outputs": [
        {
          "internalType": "bool",
          "name": "",
          "type": "bool"
        }
      ],
      "stateMutability": "nonpayable",
      "type": "function"
    },
    {
      "inputs": [
        {
          "internalType": "enum BroncosCoin.OpenTo",
          "name": "value",
          "type": "uint8"
        }
      ],
      "name": "updateIsOpenTo",
      "outputs": [],
      "stateMutability": "nonpayable",
      "type": "function"
    },
    {
      "inputs": [],
      "name": "version",
      "outputs": [
        {
          "internalType": "string",
          "name": "",
          "type": "string"
        }
      ],
      "stateMutability": "pure",
      "type": "function"
    }
  ],
  "bytecode": "0x60a06040527f6e71edae12b1b97f4d1f60370fef10105fa2faae0126114a169c64845d6126c960805234801561003457600080fd5b50608051611b54610057600039600081816102280152610a360152611b546000f3fe608060405234801561001057600080fd5b50600436106101a95760003560e01c806356b855aa116100f957806397c5354d11610097578063a457c2d711610071578063a457c2d7146103f5578063a9059cbb14610408578063d505accf1461041b578063dd62ed3e1461042e57600080fd5b806397c5354d1461038e5780639dc29fac146103a1578063a3484ff1146103b457600080fd5b80637df57c89116100d35780637df57c891461033e5780637ecebe00146103515780638301057b1461037157806395d89b411461038657600080fd5b806356b855aa146102cd5780635fdf6ba3146102f457806370a082311461031557600080fd5b8063313ce5671161016657806340c10f191161014057806340c10f1914610275578063468a1cab1461028a578063485cc9551461029d57806354fd4d50146102b057600080fd5b8063313ce5671461024a5780633644e51514610259578063395093511461026257600080fd5b8063049cbc21146101ae57806306fdde03146101d6578063095ea7b3146101eb57806318160ddd146101fe57806323b872dd1461021057806330adf81f14610223575b600080fd5b6101c16101bc3660046115ae565b3b1590565b60405190151581526020015b60405180910390f35b6101de610441565b6040516101cd91906115d2565b6101c16101f9366004611620565b6104d3565b6035545b6040519081526020016101cd565b6101c161021e36600461164c565b6104ed565b6102027f000000000000000000000000000000000000000000000000000000000000000081565b604051601281526020016101cd565b61020260665481565b6101c1610270366004611620565b610511565b610288610283366004611620565b610533565b005b6101c16102983660046115ae565b61057f565b6102886102ab36600461168d565b61061d565b6040805180820190915260018152603160f81b60208201526101de565b6102027f7def632d64a7259044c921303d544f945a340c8d4334adc0e0bd830a54deb52881565b6067546103029061ffff1681565b60405161ffff90911681526020016101cd565b6102026103233660046115ae565b6001600160a01b031660009081526033602052604090205490565b61028861034c3660046115ae565b6107be565b61020261035f3660046115ae565b60656020526000908152604090205481565b610202600080516020611aff83398151915281565b6101de610811565b61028861039c3660046116c6565b610820565b6102886103af366004611620565b6108f2565b6103dd6103c23660046116e7565b6068602052600090815260409020546001600160a01b031681565b6040516001600160a01b0390911681526020016101cd565b6101c1610403366004611620565b610930565b6101c1610416366004611620565b6109ab565b61028861042936600461170b565b6109b9565b61020261043c36600461168d565b610bfe565b60606036805461045090611782565b80601f016020809104026020016040519081016040528092919081815260200182805461047c90611782565b80156104c95780601f1061049e576101008083540402835291602001916104c9565b820191906000526020600020905b8154815290600101906020018083116104ac57829003601f168201915b5050505050905090565b6000336104e1818585610c29565b60019150505b92915050565b6000336104fb858285610d4d565b610506858585610dc7565b506001949350505050565b6000336104e18185856105248383610bfe565b61052e91906117d2565b610c29565b600080516020611aff83398151915261054b81610f7d565b6105705760405162461bcd60e51b8152600401610567906117e5565b60405180910390fd5b61057a8383611011565b505050565b60008060695460ff16600381111561059957610599611813565b036105a657506001919050565b600160695460ff1660038111156105bf576105bf611813565b036105cb57503b151590565b600260695460ff1660038111156105e4576105e4611813565b036105ef57503b1590565b600360695460ff16600381111561060857610608611813565b0361061557506000919050565b506001919050565b600054610100900460ff161580801561063d5750600054600160ff909116105b806106575750303b158015610657575060005460ff166001145b6106ba5760405162461bcd60e51b815260206004820152602e60248201527f496e697469616c697a61626c653a20636f6e747261637420697320616c72656160448201526d191e481a5b9a5d1a585b1a5e995960921b6064820152608401610567565b6000805460ff1916600117905580156106dd576000805461ff0019166101001790555b6106e6836110de565b61072d6040518060400160405280600b81526020016a213937b731b7b9a1b7b4b760a91b81525060405180604001604052806002815260200161424360f01b815250611111565b6107503361073d6012600a61190d565b61074b90633b9aca0061191c565b611011565b606980546001600160a01b038416610100026001600160a81b0319909116176003179055801561057a576000805461ff0019169055604051600181527f7f26b83ff96e1f2b6a682f133852f6798a09c465da95921460cefb38474024989060200160405180910390a1505050565b7f7def632d64a7259044c921303d544f945a340c8d4334adc0e0bd830a54deb5286107e881610f7d565b6108045760405162461bcd60e51b8152600401610567906117e5565b61080d82611142565b5050565b60606037805461045090611782565b600080516020611aff83398151915261083881610f7d565b6108545760405162461bcd60e51b8152600401610567906117e5565b60695460ff16600381111561086b5761086b611813565b82600381111561087d5761087d611813565b036108ca5760405162461bcd60e51b815260206004820152601a60248201527f75706461746549734f70656e546f3a20696e76616c69642121210000000000006044820152606401610567565b6069805483919060ff191660018360038111156108e9576108e9611813565b02179055505050565b600080516020611aff83398151915261090a81610f7d565b6109265760405162461bcd60e51b8152600401610567906117e5565b61057a83836111d3565b6000338161093e8286610bfe565b90508381101561099e5760405162461bcd60e51b815260206004820152602560248201527f45524332303a2064656372656173656420616c6c6f77616e63652062656c6f77604482015264207a65726f60d81b6064820152608401610567565b6105068286868403610c29565b6000336104e1818585610dc7565b42841015610a1a5760405162461bcd60e51b815260206004820152602860248201527f45524332305065726d69745570677261646561626c653a206578706972656420604482015267646561646c696e6560c01b6064820152608401610567565b6001600160a01b038716600090815260656020526040812080547f0000000000000000000000000000000000000000000000000000000000000000918a918a918a919086610a6783611933565b909155506040805160208101969096526001600160a01b0394851690860152929091166060840152608083015260a082015260c0810186905260e001604051602081830303815290604052805190602001209050600060665482604051602001610ae892919061190160f01b81526002810192909252602282015260420190565b60408051601f198184030181528282528051602091820120600080855291840180845281905260ff89169284019290925260608301879052608083018690529092509060019060a0016020604051602081039080840390855afa158015610b53573d6000803e3d6000fd5b5050604051601f1901519150506001600160a01b03811615801590610b895750896001600160a01b0316816001600160a01b0316145b610be75760405162461bcd60e51b815260206004820152602960248201527f45524332305065726d69745570677261646561626c653a20696e76616c6964206044820152687369676e617475726560b81b6064820152608401610567565b610bf28a8a8a610c29565b50505050505050505050565b6001600160a01b03918216600090815260346020908152604080832093909416825291909152205490565b6001600160a01b038316610c8b5760405162461bcd60e51b8152602060048201526024808201527f45524332303a20617070726f76652066726f6d20746865207a65726f206164646044820152637265737360e01b6064820152608401610567565b6001600160a01b038216610cec5760405162461bcd60e51b815260206004820152602260248201527f45524332303a20617070726f766520746f20746865207a65726f206164647265604482015261737360f01b6064820152608401610567565b6001600160a01b0383811660008181526034602090815260408083209487168084529482529182902085905590518481527f8c5be1e5ebec7d5bd14f71427d1e84f3dd0314c0f7b2291e5b200ac8c7c3b925910160405180910390a3505050565b6000610d598484610bfe565b90506000198114610dc15781811015610db45760405162461bcd60e51b815260206004820152601d60248201527f45524332303a20696e73756666696369656e7420616c6c6f77616e63650000006044820152606401610567565b610dc18484848403610c29565b50505050565b6001600160a01b038316610e2b5760405162461bcd60e51b815260206004820152602560248201527f45524332303a207472616e736665722066726f6d20746865207a65726f206164604482015264647265737360d81b6064820152608401610567565b6001600160a01b038216610e8d5760405162461bcd60e51b815260206004820152602360248201527f45524332303a207472616e7366657220746f20746865207a65726f206164647260448201526265737360e81b6064820152608401610567565b610e98838383611313565b6001600160a01b03831660009081526033602052604090205481811015610f105760405162461bcd60e51b815260206004820152602660248201527f45524332303a207472616e7366657220616d6f756e7420657863656564732062604482015265616c616e636560d01b6064820152608401610567565b6001600160a01b0380851660008181526033602052604080822086860390559286168082529083902080548601905591517fddf252ad1be2c89b69c2b068fc378daa952ba7f163c4a11628f55a4df523b3ef90610f709086815260200190565b60405180910390a3610dc1565b60675461ffff166000908152606860205260408120546001600160a01b03166391d1485483336040516001600160e01b031960e085901b16815260048101929092526001600160a01b03166024820152604401602060405180830381865afa158015610fed573d6000803e3d6000fd5b505050506040513d601f19601f820116820180604052508101906104e7919061194c565b6001600160a01b0382166110675760405162461bcd60e51b815260206004820152601f60248201527f45524332303a206d696e7420746f20746865207a65726f2061646472657373006044820152606401610567565b61107360008383611313565b806035600082825461108591906117d2565b90915550506001600160a01b0382166000818152603360209081526040808320805486019055518481527fddf252ad1be2c89b69c2b068fc378daa952ba7f163c4a11628f55a4df523b3ef910160405180910390a35050565b600054610100900460ff166111055760405162461bcd60e51b81526004016105679061196e565b61110e81611405565b50565b600054610100900460ff166111385760405162461bcd60e51b81526004016105679061196e565b61080d8282611461565b6067805461ffff16906000611156836119b9565b82546101009290920a61ffff81810219909316918316021790915560678054821660009081526068602052604080822080546001600160a01b0319166001600160a01b03881690811790915592549051929450909216917f99dc7b1f61f499c4a87b84658707d2ba9daa47dd709e2262054daae5108deb6391a350565b6001600160a01b0382166112335760405162461bcd60e51b815260206004820152602160248201527f45524332303a206275726e2066726f6d20746865207a65726f206164647265736044820152607360f81b6064820152608401610567565b61123f82600083611313565b6001600160a01b038216600090815260336020526040902054818110156112b35760405162461bcd60e51b815260206004820152602260248201527f45524332303a206275726e20616d6f756e7420657863656564732062616c616e604482015261636560f01b6064820152608401610567565b6001600160a01b03831660008181526033602090815260408083208686039055603580548790039055518581529192917fddf252ad1be2c89b69c2b068fc378daa952ba7f163c4a11628f55a4df523b3ef910160405180910390a3505050565b8161131d8161057f565b80611397575060695460405163f99031a760e01b81526001600160a01b0383811660048301526101009092049091169063f99031a790602401602060405180830381865afa158015611373573d6000803e3d6000fd5b505050506040513d601f19601f82011682018060405250810190611397919061194c565b806113b457506113b4600080516020611aff833981519152610f7d565b6114005760405162461bcd60e51b815260206004820152601760248201527f7768656e4e6f744f70656e3a20696e76616c69642121210000000000000000006044820152606401610567565b610dc1565b600054610100900460ff1661142c5760405162461bcd60e51b81526004016105679061196e565b60675461ffff16600090815260686020526040902080546001600160a01b0319166001600160a01b0392909216919091179055565b600054610100900460ff166114885760405162461bcd60e51b81526004016105679061196e565b611492828261152d565b8151602083012046907f8b73c3c69bb8fe3d512ecc4cf759cc79239f7b179b0ffacaa9a75d522b39400f906114db6040805180820190915260018152603160f81b602082015290565b80516020918201206040805192830194909452928101919091526060810191909152608081018290523060a082015260c00160408051601f198184030181529190528051602090910120606655505050565b600054610100900460ff166115545760405162461bcd60e51b81526004016105679061196e565b61080d8282600054610100900460ff166115805760405162461bcd60e51b81526004016105679061196e565b603661158c8382611a3e565b50603761057a8282611a3e565b6001600160a01b038116811461110e57600080fd5b6000602082840312156115c057600080fd5b81356115cb81611599565b9392505050565b600060208083528351808285015260005b818110156115ff578581018301518582016040015282016115e3565b506000604082860101526040601f19601f8301168501019250505092915050565b6000806040838503121561163357600080fd5b823561163e81611599565b946020939093013593505050565b60008060006060848603121561166157600080fd5b833561166c81611599565b9250602084013561167c81611599565b929592945050506040919091013590565b600080604083850312156116a057600080fd5b82356116ab81611599565b915060208301356116bb81611599565b809150509250929050565b6000602082840312156116d857600080fd5b8135600481106115cb57600080fd5b6000602082840312156116f957600080fd5b813561ffff811681146115cb57600080fd5b600080600080600080600060e0888a03121561172657600080fd5b873561173181611599565b9650602088013561174181611599565b95506040880135945060608801359350608088013560ff8116811461176557600080fd5b9699959850939692959460a0840135945060c09093013592915050565b600181811c9082168061179657607f821691505b6020821081036117b657634e487b7160e01b600052602260045260246000fd5b50919050565b634e487b7160e01b600052601160045260246000fd5b808201808211156104e7576104e76117bc565b60208082526014908201527337379030b1b1b2b9b9903832b936b4b9b9b4b7b760611b604082015260600190565b634e487b7160e01b600052602160045260246000fd5b600181815b8085111561186457816000190482111561184a5761184a6117bc565b8085161561185757918102915b93841c939080029061182e565b509250929050565b60008261187b575060016104e7565b81611888575060006104e7565b816001811461189e57600281146118a8576118c4565b60019150506104e7565b60ff8411156118b9576118b96117bc565b50506001821b6104e7565b5060208310610133831016604e8410600b84101617156118e7575081810a6104e7565b6118f18383611829565b8060001904821115611905576119056117bc565b029392505050565b60006115cb60ff84168361186c565b80820281158282048414176104e7576104e76117bc565b600060018201611945576119456117bc565b5060010190565b60006020828403121561195e57600080fd5b815180151581146115cb57600080fd5b6020808252602b908201527f496e697469616c697a61626c653a20636f6e7472616374206973206e6f74206960408201526a6e697469616c697a696e6760a81b606082015260800190565b600061ffff8083168181036119d0576119d06117bc565b6001019392505050565b634e487b7160e01b600052604160045260246000fd5b601f82111561057a57600081815260208120601f850160051c81016020861015611a175750805b601f850160051c820191505b81811015611a3657828155600101611a23565b505050505050565b815167ffffffffffffffff811115611a5857611a586119da565b611a6c81611a668454611782565b846119f0565b602080601f831160018114611aa15760008415611a895750858301515b600019600386901b1c1916600185901b178555611a36565b600085815260208120601f198616915b82811015611ad057888601518255948401946001909101908401611ab1565b5085821015611aee5787850151600019600388901b60f8161c191681555b5050505050600190811b0190555056fea7197c38d9c4c7450c7f2cd20d0a17cbe7c344190d6c82a6b49a146e62439ae4a26469706673582212208234af7502be177963e1bbf0cf3f3600af5338000d1967292d7d3f4100844da864736f6c63430008130033",
  "linkReferences": {},
  "deployedLinkReferences": {}
}