{
  "_format": "hh-sol-artifact-1",
  "contractName": "PaymentSplitter",
  "sourceName": "contracts/Royalty/PaymentSplitter.sol",
  "abi": [
    {
      "inputs": [
        {
          "internalType": "address[]",
          "name": "payees",
          "type": "address[]"
        },
        {
          "internalType": "uint256[]",
          "name": "shares_",
          "type": "uint256[]"
        }
      ],
      "stateMutability": "payable",
      "type": "constructor"
    },
    {
      "anonymous": false,
      "inputs": [
        {
          "indexed": true,
          "internalType": "contract IERC20Upgradeable",
          "name": "token",
          "type": "address"
        },
        {
          "indexed": false,
          "internalType": "address",
          "name": "to",
          "type": "address"
        },
        {
          "indexed": false,
          "internalType": "uint256",
          "name": "amount",
          "type": "uint256"
        }
      ],
      "name": "ERC20PaymentReleased",
      "type": "event"
    },
    {
      "anonymous": false,
      "inputs": [
        {
          "indexed": false,
          "internalType": "uint8",
          "name": "version",
          "type": "uint8"
        }
      ],
      "name": "Initialized",
      "type": "event"
    },
    {
      "anonymous": false,
      "inputs": [
        {
          "indexed": false,
          "internalType": "address",
          "name": "account",
          "type": "address"
        },
        {
          "indexed": false,
          "internalType": "uint256",
          "name": "shares",
          "type": "uint256"
        }
      ],
      "name": "PayeeAdded",
      "type": "event"
    },
    {
      "anonymous": false,
      "inputs": [
        {
          "indexed": false,
          "internalType": "address",
          "name": "from",
          "type": "address"
        },
        {
          "indexed": false,
          "internalType": "uint256",
          "name": "amount",
          "type": "uint256"
        }
      ],
      "name": "PaymentReceived",
      "type": "event"
    },
    {
      "anonymous": false,
      "inputs": [
        {
          "indexed": false,
          "internalType": "address",
          "name": "to",
          "type": "address"
        },
        {
          "indexed": false,
          "internalType": "uint256",
          "name": "amount",
          "type": "uint256"
        }
      ],
      "name": "PaymentReleased",
      "type": "event"
    },
    {
      "inputs": [],
      "name": "getPayees",
      "outputs": [
        {
          "internalType": "address[]",
          "name": "",
          "type": "address[]"
        }
      ],
      "stateMutability": "view",
      "type": "function"
    },
    {
      "inputs": [],
      "name": "getPayeesLength",
      "outputs": [
        {
          "internalType": "uint256",
          "name": "length",
          "type": "uint256"
        }
      ],
      "stateMutability": "view",
      "type": "function"
    },
    {
      "inputs": [
        {
          "internalType": "uint256",
          "name": "index",
          "type": "uint256"
        }
      ],
      "name": "payee",
      "outputs": [
        {
          "internalType": "address",
          "name": "",
          "type": "address"
        }
      ],
      "stateMutability": "view",
      "type": "function"
    },
    {
      "inputs": [
        {
          "internalType": "address",
          "name": "account",
          "type": "address"
        }
      ],
      "name": "releasable",
      "outputs": [
        {
          "internalType": "uint256",
          "name": "",
          "type": "uint256"
        }
      ],
      "stateMutability": "view",
      "type": "function"
    },
    {
      "inputs": [
        {
          "internalType": "contract IERC20Upgradeable",
          "name": "token",
          "type": "address"
        },
        {
          "internalType": "address",
          "name": "account",
          "type": "address"
        }
      ],
      "name": "releasable",
      "outputs": [
        {
          "internalType": "uint256",
          "name": "",
          "type": "uint256"
        }
      ],
      "stateMutability": "view",
      "type": "function"
    },
    {
      "inputs": [
        {
          "internalType": "address payable",
          "name": "account",
          "type": "address"
        }
      ],
      "name": "release",
      "outputs": [],
      "stateMutability": "nonpayable",
      "type": "function"
    },
    {
      "inputs": [
        {
          "internalType": "contract IERC20Upgradeable",
          "name": "token",
          "type": "address"
        },
        {
          "internalType": "address",
          "name": "account",
          "type": "address"
        }
      ],
      "name": "release",
      "outputs": [],
      "stateMutability": "nonpayable",
      "type": "function"
    },
    {
      "inputs": [
        {
          "internalType": "contract IERC20Upgradeable",
          "name": "token",
          "type": "address"
        },
        {
          "internalType": "address",
          "name": "account",
          "type": "address"
        }
      ],
      "name": "released",
      "outputs": [
        {
          "internalType": "uint256",
          "name": "",
          "type": "uint256"
        }
      ],
      "stateMutability": "view",
      "type": "function"
    },
    {
      "inputs": [
        {
          "internalType": "address",
          "name": "account",
          "type": "address"
        }
      ],
      "name": "released",
      "outputs": [
        {
          "internalType": "uint256",
          "name": "",
          "type": "uint256"
        }
      ],
      "stateMutability": "view",
      "type": "function"
    },
    {
      "inputs": [
        {
          "internalType": "address",
          "name": "account",
          "type": "address"
        }
      ],
      "name": "shares",
      "outputs": [
        {
          "internalType": "uint256",
          "name": "",
          "type": "uint256"
        }
      ],
      "stateMutability": "view",
      "type": "function"
    },
    {
      "inputs": [
        {
          "internalType": "bytes4",
          "name": "interfaceId",
          "type": "bytes4"
        }
      ],
      "name": "supportsInterface",
      "outputs": [
        {
          "internalType": "bool",
          "name": "",
          "type": "bool"
        }
      ],
      "stateMutability": "view",
      "type": "function"
    },
    {
      "inputs": [
        {
          "internalType": "contract IERC20Upgradeable",
          "name": "token",
          "type": "address"
        }
      ],
      "name": "totalReleased",
      "outputs": [
        {
          "internalType": "uint256",
          "name": "",
          "type": "uint256"
        }
      ],
      "stateMutability": "view",
      "type": "function"
    },
    {
      "inputs": [],
      "name": "totalReleased",
      "outputs": [
        {
          "internalType": "uint256",
          "name": "",
          "type": "uint256"
        }
      ],
      "stateMutability": "view",
      "type": "function"
    },
    {
      "inputs": [],
      "name": "totalShares",
      "outputs": [
        {
          "internalType": "uint256",
          "name": "",
          "type": "uint256"
        }
      ],
      "stateMutability": "view",
      "type": "function"
    },
    {
      "inputs": [
        {
          "internalType": "contract IERC20Upgradeable",
          "name": "token",
          "type": "address"
        },
        {
          "internalType": "address payable",
          "name": "account",
          "type": "address"
        }
      ],
      "name": "withdrawTokens",
      "outputs": [],
      "stateMutability": "nonpayable",
      "type": "function"
    },
    {
      "stateMutability": "payable",
      "type": "receive"
    }
  ],
  "bytecode": "0x6080604052604051620013c1380380620013c1833981016040819052620000269162000430565b8051825114620000985760405162461bcd60e51b815260206004820152603260248201527f5061796d656e7453706c69747465723a2070617965657320616e6420736861726044820152710cae640d8cadccee8d040dad2e6dac2e8c6d60731b60648201526084015b60405180910390fd5b6000825111620000eb5760405162461bcd60e51b815260206004820152601a60248201527f5061796d656e7453706c69747465723a206e6f2070617965657300000000000060448201526064016200008f565b60005b82518110156200015757620001428382815181106200011157620001116200050e565b60200260200101518383815181106200012e576200012e6200050e565b60200260200101516200016060201b60201c565b806200014e816200053a565b915050620000ee565b50505062000572565b6001600160a01b038216620001cd5760405162461bcd60e51b815260206004820152602c60248201527f5061796d656e7453706c69747465723a206163636f756e74206973207468652060448201526b7a65726f206164647265737360a01b60648201526084016200008f565b600081116200021f5760405162461bcd60e51b815260206004820152601d60248201527f5061796d656e7453706c69747465723a2073686172657320617265203000000060448201526064016200008f565b6001600160a01b038216600090815260356020526040902054156200029b5760405162461bcd60e51b815260206004820152602b60248201527f5061796d656e7453706c69747465723a206163636f756e7420616c726561647960448201526a206861732073686172657360a81b60648201526084016200008f565b60378054600181019091557f42a7b7dd785cd69714a189dffb3fd7d7174edc9ece837694ce50f7078f7c31ae0180546001600160a01b0319166001600160a01b03841690811790915560009081526035602052604090208190556033546200030590829062000556565b603355604080516001600160a01b0384168152602081018390527f40c340f65e17194d14ddddb073d3c9f888e3cb52b5aae0c6c7706b4fbc905fac910160405180910390a15050565b634e487b7160e01b600052604160045260246000fd5b604051601f8201601f191681016001600160401b03811182821017156200038f576200038f6200034e565b604052919050565b60006001600160401b03821115620003b357620003b36200034e565b5060051b60200190565b600082601f830112620003cf57600080fd5b81516020620003e8620003e28362000397565b62000364565b82815260059290921b840181019181810190868411156200040857600080fd5b8286015b848110156200042557805183529183019183016200040c565b509695505050505050565b600080604083850312156200044457600080fd5b82516001600160401b03808211156200045c57600080fd5b818501915085601f8301126200047157600080fd5b8151602062000484620003e28362000397565b82815260059290921b84018101918181019089841115620004a457600080fd5b948201945b83861015620004db5785516001600160a01b0381168114620004cb5760008081fd5b82529482019490820190620004a9565b91880151919650909350505080821115620004f557600080fd5b506200050485828601620003bd565b9150509250929050565b634e487b7160e01b600052603260045260246000fd5b634e487b7160e01b600052601160045260246000fd5b6000600182016200054f576200054f62000524565b5060010190565b808201808211156200056c576200056c62000524565b92915050565b610e3f80620005826000396000f3fe6080604052600436106100ec5760003560e01c80638b83209b1161008a578063c45ac05011610059578063c45ac050146102e6578063ce7c2ac214610306578063d79779b21461033c578063e33b7de31461037257600080fd5b80638b83209b146102385780639852595c14610270578063a3f8eace146102a6578063a522ad25146102c657600080fd5b806327f38113116100c657806327f38113146101c15780633a98ef39146101e3578063406072a9146101f857806348b750441461021857600080fd5b806301ba5fc11461013a57806301ffc9a71461015e578063191655871461019f57600080fd5b36610135577f6ef95f06320e7a25a04a175ca677b7052bdd97131872c2192525a629f51be77033604080516001600160a01b0390921682523460208301520160405180910390a1005b600080fd5b34801561014657600080fd5b506037545b6040519081526020015b60405180910390f35b34801561016a57600080fd5b5061018f610179366004610b41565b6001600160e01b03191663262a681160e21b1490565b6040519015158152602001610155565b3480156101ab57600080fd5b506101bf6101ba366004610b83565b610387565b005b3480156101cd57600080fd5b506101d6610477565b6040516101559190610ba0565b3480156101ef57600080fd5b5060335461014b565b34801561020457600080fd5b5061014b610213366004610bed565b6104d9565b34801561022457600080fd5b506101bf610233366004610bed565b610506565b34801561024457600080fd5b50610258610253366004610c26565b610617565b6040516001600160a01b039091168152602001610155565b34801561027c57600080fd5b5061014b61028b366004610b83565b6001600160a01b031660009081526036602052604090205490565b3480156102b257600080fd5b5061014b6102c1366004610b83565b610647565b3480156102d257600080fd5b506101bf6102e1366004610bed565b61068f565b3480156102f257600080fd5b5061014b610301366004610bed565b6106f8565b34801561031257600080fd5b5061014b610321366004610b83565b6001600160a01b031660009081526035602052604090205490565b34801561034857600080fd5b5061014b610357366004610b83565b6001600160a01b031660009081526038602052604090205490565b34801561037e57600080fd5b5060345461014b565b6001600160a01b0381166000908152603560205260409020546103c55760405162461bcd60e51b81526004016103bc90610c3f565b60405180910390fd5b60006103d082610647565b9050806000036103f25760405162461bcd60e51b81526004016103bc90610c85565b80603460008282546104049190610ce6565b90915550506001600160a01b0382166000908152603660205260409020805482019055610431828261079e565b604080516001600160a01b0384168152602081018390527fdf20fd1e76bc69d672e4814fafb2c449bba3a5369d8359adf9e05e6fde87b056910160405180910390a15050565b606060378054806020026020016040519081016040528092919081815260200182805480156104cf57602002820191906000526020600020905b81546001600160a01b031681526001909101906020018083116104b1575b5050505050905090565b6001600160a01b038083166000908152603960209081526040808320938516835292905220545b92915050565b6001600160a01b03811660009081526035602052604090205461053b5760405162461bcd60e51b81526004016103bc90610c3f565b600061054783836106f8565b9050806000036105695760405162461bcd60e51b81526004016103bc90610c85565b6001600160a01b03831660009081526038602052604081208054839290610591908490610ce6565b90915550506001600160a01b0380841660009081526039602090815260408083209386168352929052208054820190556105cc8383836108bc565b604080516001600160a01b038481168252602082018490528516917f3be5b7a71e84ed12875d241991c70855ac5817d847039e17a9d895c1ceb0f18a910160405180910390a2505050565b60006037828154811061062c5761062c610cf9565b6000918252602090912001546001600160a01b031692915050565b60008061065360345490565b61065d9047610ce6565b90506106888382610683866001600160a01b031660009081526036602052604090205490565b61090e565b9392505050565b600061069a82610647565b905060006106a884846106f8565b9050811515806106b757508015155b6106d35760405162461bcd60e51b81526004016103bc90610c85565b81156106e2576106e283610387565b80156106f2576106f28484610506565b50505050565b6001600160a01b03821660009081526038602052604081205481906040516370a0823160e01b81523060048201526001600160a01b038616906370a0823190602401602060405180830381865afa158015610757573d6000803e3d6000fd5b505050506040513d601f19601f8201168201806040525081019061077b9190610d0f565b6107859190610ce6565b9050610796838261068387876104d9565b949350505050565b804710156107ee5760405162461bcd60e51b815260206004820152601d60248201527f416464726573733a20696e73756666696369656e742062616c616e636500000060448201526064016103bc565b6000826001600160a01b03168260405160006040518083038185875af1925050503d806000811461083b576040519150601f19603f3d011682016040523d82523d6000602084013e610840565b606091505b50509050806108b75760405162461bcd60e51b815260206004820152603a60248201527f416464726573733a20756e61626c6520746f2073656e642076616c75652c207260448201527f6563697069656e74206d6179206861766520726576657274656400000000000060648201526084016103bc565b505050565b604080516001600160a01b038416602482015260448082018490528251808303909101815260649091019091526020810180516001600160e01b031663a9059cbb60e01b1790526108b790849061094c565b6033546001600160a01b038416600090815260356020526040812054909183916109389086610d28565b6109429190610d3f565b6107969190610d61565b60006109a1826040518060400160405280602081526020017f5361666545524332303a206c6f772d6c6576656c2063616c6c206661696c6564815250856001600160a01b0316610a1e9092919063ffffffff16565b8051909150156108b757808060200190518101906109bf9190610d74565b6108b75760405162461bcd60e51b815260206004820152602a60248201527f5361666545524332303a204552433230206f7065726174696f6e20646964206e6044820152691bdd081cdd58d8d9595960b21b60648201526084016103bc565b6060610796848460008585600080866001600160a01b03168587604051610a459190610dba565b60006040518083038185875af1925050503d8060008114610a82576040519150601f19603f3d011682016040523d82523d6000602084013e610a87565b606091505b5091509150610a9887838387610aa3565b979650505050505050565b60608315610b12578251600003610b0b576001600160a01b0385163b610b0b5760405162461bcd60e51b815260206004820152601d60248201527f416464726573733a2063616c6c20746f206e6f6e2d636f6e747261637400000060448201526064016103bc565b5081610796565b6107968383815115610b275781518083602001fd5b8060405162461bcd60e51b81526004016103bc9190610dd6565b600060208284031215610b5357600080fd5b81356001600160e01b03198116811461068857600080fd5b6001600160a01b0381168114610b8057600080fd5b50565b600060208284031215610b9557600080fd5b813561068881610b6b565b6020808252825182820181905260009190848201906040850190845b81811015610be15783516001600160a01b031683529284019291840191600101610bbc565b50909695505050505050565b60008060408385031215610c0057600080fd5b8235610c0b81610b6b565b91506020830135610c1b81610b6b565b809150509250929050565b600060208284031215610c3857600080fd5b5035919050565b60208082526026908201527f5061796d656e7453706c69747465723a206163636f756e7420686173206e6f2060408201526573686172657360d01b606082015260800190565b6020808252602b908201527f5061796d656e7453706c69747465723a206163636f756e74206973206e6f742060408201526a191d59481c185e5b595b9d60aa1b606082015260800190565b634e487b7160e01b600052601160045260246000fd5b8082018082111561050057610500610cd0565b634e487b7160e01b600052603260045260246000fd5b600060208284031215610d2157600080fd5b5051919050565b808202811582820484141761050057610500610cd0565b600082610d5c57634e487b7160e01b600052601260045260246000fd5b500490565b8181038181111561050057610500610cd0565b600060208284031215610d8657600080fd5b8151801515811461068857600080fd5b60005b83811015610db1578181015183820152602001610d99565b50506000910152565b60008251610dcc818460208701610d96565b9190910192915050565b6020815260008251806020840152610df5816040850160208701610d96565b601f01601f1916919091016040019291505056fea2646970667358221220749563ad8636ca019c494f4a5c96738a934c38ad7de885b72278add92156084164736f6c63430008130033",
  "linkReferences": {},
  "deployedLinkReferences": {}
}