{
  "_format": "hh-sol-artifact-1",
  "contractName": "AccessControllerUpgradeable",
  "sourceName": "contracts/AccessControl/AccessControllerUpgradeable.sol",
  "abi": [
    {
      "anonymous": false,
      "inputs": [
        {
          "indexed": false,
          "internalType": "uint8",
          "name": "version",
          "type": "uint8"
        }
      ],
      "name": "Initialized",
      "type": "event"
    },
    {
      "anonymous": false,
      "inputs": [
        {
          "indexed": true,
          "internalType": "bytes32",
          "name": "role",
          "type": "bytes32"
        },
        {
          "indexed": true,
          "internalType": "bytes32",
          "name": "previousAdminRole",
          "type": "bytes32"
        },
        {
          "indexed": true,
          "internalType": "bytes32",
          "name": "newAdminRole",
          "type": "bytes32"
        }
      ],
      "name": "RoleAdminChanged",
      "type": "event"
    },
    {
      "anonymous": false,
      "inputs": [
        {
          "indexed": true,
          "internalType": "bytes32",
          "name": "role",
          "type": "bytes32"
        },
        {
          "indexed": true,
          "internalType": "address",
          "name": "account",
          "type": "address"
        },
        {
          "indexed": true,
          "internalType": "address",
          "name": "sender",
          "type": "address"
        }
      ],
      "name": "RoleGranted",
      "type": "event"
    },
    {
      "anonymous": false,
      "inputs": [
        {
          "indexed": true,
          "internalType": "bytes32",
          "name": "role",
          "type": "bytes32"
        },
        {
          "indexed": true,
          "internalType": "address",
          "name": "account",
          "type": "address"
        },
        {
          "indexed": true,
          "internalType": "address",
          "name": "sender",
          "type": "address"
        }
      ],
      "name": "RoleRevoked",
      "type": "event"
    },
    {
      "inputs": [],
      "name": "DEFAULT_ADMIN_ROLE",
      "outputs": [
        {
          "internalType": "bytes32",
          "name": "",
          "type": "bytes32"
        }
      ],
      "stateMutability": "view",
      "type": "function"
    },
    {
      "inputs": [
        {
          "internalType": "bytes32[]",
          "name": "roles",
          "type": "bytes32[]"
        },
        {
          "internalType": "address",
          "name": "account",
          "type": "address"
        }
      ],
      "name": "bulkRevokeRole",
      "outputs": [],
      "stateMutability": "nonpayable",
      "type": "function"
    },
    {
      "inputs": [
        {
          "internalType": "bytes32[]",
          "name": "roles",
          "type": "bytes32[]"
        },
        {
          "internalType": "address",
          "name": "account",
          "type": "address"
        }
      ],
      "name": "bulkSetupRole",
      "outputs": [],
      "stateMutability": "nonpayable",
      "type": "function"
    },
    {
      "inputs": [
        {
          "internalType": "bytes32",
          "name": "role",
          "type": "bytes32"
        }
      ],
      "name": "getRoleAdmin",
      "outputs": [
        {
          "internalType": "bytes32",
          "name": "",
          "type": "bytes32"
        }
      ],
      "stateMutability": "view",
      "type": "function"
    },
    {
      "inputs": [
        {
          "internalType": "bytes32",
          "name": "role",
          "type": "bytes32"
        },
        {
          "internalType": "address",
          "name": "account",
          "type": "address"
        }
      ],
      "name": "grantRole",
      "outputs": [],
      "stateMutability": "nonpayable",
      "type": "function"
    },
    {
      "inputs": [
        {
          "internalType": "bytes32",
          "name": "role",
          "type": "bytes32"
        },
        {
          "internalType": "address",
          "name": "account",
          "type": "address"
        }
      ],
      "name": "hasRole",
      "outputs": [
        {
          "internalType": "bool",
          "name": "",
          "type": "bool"
        }
      ],
      "stateMutability": "view",
      "type": "function"
    },
    {
      "inputs": [],
      "name": "initialize",
      "outputs": [],
      "stateMutability": "nonpayable",
      "type": "function"
    },
    {
      "inputs": [
        {
          "internalType": "bytes32",
          "name": "role",
          "type": "bytes32"
        },
        {
          "internalType": "address",
          "name": "account",
          "type": "address"
        }
      ],
      "name": "renounceRole",
      "outputs": [],
      "stateMutability": "nonpayable",
      "type": "function"
    },
    {
      "inputs": [
        {
          "internalType": "bytes32",
          "name": "role",
          "type": "bytes32"
        },
        {
          "internalType": "address",
          "name": "account",
          "type": "address"
        }
      ],
      "name": "revokeRole",
      "outputs": [],
      "stateMutability": "nonpayable",
      "type": "function"
    },
    {
      "inputs": [
        {
          "internalType": "bytes32",
          "name": "roleId",
          "type": "bytes32"
        },
        {
          "internalType": "bytes32",
          "name": "adminRoleId",
          "type": "bytes32"
        }
      ],
      "name": "setRoleAdmin",
      "outputs": [],
      "stateMutability": "nonpayable",
      "type": "function"
    },
    {
      "inputs": [
        {
          "internalType": "bytes32",
          "name": "role",
          "type": "bytes32"
        },
        {
          "internalType": "address",
          "name": "account",
          "type": "address"
        }
      ],
      "name": "setupRole",
      "outputs": [],
      "stateMutability": "nonpayable",
      "type": "function"
    },
    {
      "inputs": [
        {
          "internalType": "bytes4",
          "name": "interfaceId",
          "type": "bytes4"
        }
      ],
      "name": "supportsInterface",
      "outputs": [
        {
          "internalType": "bool",
          "name": "",
          "type": "bool"
        }
      ],
      "stateMutability": "view",
      "type": "function"
    }
  ],
  "bytecode": "0x608060405234801561001057600080fd5b50610c02806100206000396000f3fe608060405234801561001057600080fd5b50600436106100b45760003560e01c80638129fc1c116100715780638129fc1c1461016057806391d1485414610168578063a217fddf1461017b578063d3e4c0ec14610183578063d547741f14610196578063fa82ac76146101a957600080fd5b806301ffc9a7146100b95780631e4e0091146100e1578063248a9ca3146100f65780632f2ff15d1461012757806336568abe1461013a57806344746f851461014d575b600080fd5b6100cc6100c73660046108e7565b6101bc565b60405190151581526020015b60405180910390f35b6100f46100ef366004610911565b6101f3565b005b610119610104366004610933565b60009081526065602052604090206001015490565b6040519081526020016100d8565b6100f4610135366004610968565b61020d565b6100f4610148366004610968565b610232565b6100f461015b3660046109aa565b6102b5565b6100f46102f6565b6100cc610176366004610968565b61041d565b610119600081565b6100f46101913660046109aa565b610448565b6100f46101a4366004610968565b610489565b6100f46101b7366004610968565b610493565b60006001600160e01b03198216637965db0b60e01b14806101ed57506301ffc9a760e01b6001600160e01b03198316145b92915050565b60006101fe816104fb565b6102088383610505565b505050565b600082815260656020526040902060010154610228816104fb565b6102088383610550565b6001600160a01b03811633146102a75760405162461bcd60e51b815260206004820152602f60248201527f416363657373436f6e74726f6c3a2063616e206f6e6c792072656e6f756e636560448201526e103937b632b9903337b91039b2b63360891b60648201526084015b60405180910390fd5b6102b182826105d6565b5050565b60005b8251811015610208576102e48382815181106102d6576102d6610a7a565b602002602001015183610493565b806102ee81610aa6565b9150506102b8565b600054610100900460ff16158080156103165750600054600160ff909116105b806103305750303b158015610330575060005460ff166001145b6103935760405162461bcd60e51b815260206004820152602e60248201527f496e697469616c697a61626c653a20636f6e747261637420697320616c72656160448201526d191e481a5b9a5d1a585b1a5e995960921b606482015260840161029e565b6000805460ff1916600117905580156103b6576000805461ff0019166101001790555b6103be61063d565b6103c96000336106aa565b6103d4600080610505565b801561041a576000805461ff0019169055604051600181527f7f26b83ff96e1f2b6a682f133852f6798a09c465da95921460cefb38474024989060200160405180910390a15b50565b60009182526065602090815260408084206001600160a01b0393909316845291905290205460ff1690565b60005b82518110156102085761047783828151811061046957610469610a7a565b602002602001015183610489565b8061048181610aa6565b91505061044b565b6102b182826106b4565b61049d823361041d565b806104ae57506104ae60003361041d565b6104f15760405162461bcd60e51b815260206004820152601460248201527337379030b1b1b2b9b9903832b936b4b9b9b4b7b760611b604482015260640161029e565b6102b182826106aa565b61041a81336106d9565b600082815260656020526040808220600101805490849055905190918391839186917fbd79b86ffe0ab8e8776151514217cd7cacd52c909f66475c3af44e129f0b00ff9190a4505050565b61055a828261041d565b6102b15760008281526065602090815260408083206001600160a01b03851684529091529020805460ff191660011790556105923390565b6001600160a01b0316816001600160a01b0316837f2f8788117e7eff1d82e926ec794901d17c78024a50270940304540a733656f0d60405160405180910390a45050565b6105e0828261041d565b156102b15760008281526065602090815260408083206001600160a01b0385168085529252808320805460ff1916905551339285917ff6391f5c32d9c69d2a47ea670b442974b53935d1edc7fd64eb21e047a839171b9190a45050565b600054610100900460ff166106a85760405162461bcd60e51b815260206004820152602b60248201527f496e697469616c697a61626c653a20636f6e7472616374206973206e6f74206960448201526a6e697469616c697a696e6760a81b606482015260840161029e565b565b6102b18282610550565b6000828152606560205260409020600101546106cf816104fb565b61020883836105d6565b6106e3828261041d565b6102b1576106f081610732565b6106fb836020610744565b60405160200161070c929190610ae3565b60408051601f198184030181529082905262461bcd60e51b825261029e91600401610b58565b60606101ed6001600160a01b03831660145b60606000610753836002610b8b565b61075e906002610ba2565b67ffffffffffffffff81111561077657610776610994565b6040519080825280601f01601f1916602001820160405280156107a0576020820181803683370190505b509050600360fc1b816000815181106107bb576107bb610a7a565b60200101906001600160f81b031916908160001a905350600f60fb1b816001815181106107ea576107ea610a7a565b60200101906001600160f81b031916908160001a905350600061080e846002610b8b565b610819906001610ba2565b90505b6001811115610891576f181899199a1a9b1b9c1cb0b131b232b360811b85600f166010811061084d5761084d610a7a565b1a60f81b82828151811061086357610863610a7a565b60200101906001600160f81b031916908160001a90535060049490941c9361088a81610bb5565b905061081c565b5083156108e05760405162461bcd60e51b815260206004820181905260248201527f537472696e67733a20686578206c656e67746820696e73756666696369656e74604482015260640161029e565b9392505050565b6000602082840312156108f957600080fd5b81356001600160e01b0319811681146108e057600080fd5b6000806040838503121561092457600080fd5b50508035926020909101359150565b60006020828403121561094557600080fd5b5035919050565b80356001600160a01b038116811461096357600080fd5b919050565b6000806040838503121561097b57600080fd5b8235915061098b6020840161094c565b90509250929050565b634e487b7160e01b600052604160045260246000fd5b600080604083850312156109bd57600080fd5b823567ffffffffffffffff808211156109d557600080fd5b818501915085601f8301126109e957600080fd5b81356020828211156109fd576109fd610994565b8160051b604051601f19603f83011681018181108682111715610a2257610a22610994565b604052928352818301935084810182019289841115610a4057600080fd5b948201945b83861015610a5e57853585529482019493820193610a45565b9650610a6d905087820161094c565b9450505050509250929050565b634e487b7160e01b600052603260045260246000fd5b634e487b7160e01b600052601160045260246000fd5b600060018201610ab857610ab8610a90565b5060010190565b60005b83811015610ada578181015183820152602001610ac2565b50506000910152565b7f416363657373436f6e74726f6c3a206163636f756e7420000000000000000000815260008351610b1b816017850160208801610abf565b7001034b99036b4b9b9b4b733903937b6329607d1b6017918401918201528351610b4c816028840160208801610abf565b01602801949350505050565b6020815260008251806020840152610b77816040850160208701610abf565b601f01601f19169190910160400192915050565b80820281158282048414176101ed576101ed610a90565b808201808211156101ed576101ed610a90565b600081610bc457610bc4610a90565b50600019019056fea2646970667358221220ed8d316c7b69782604544ceb1dc6b3b8fe512683e5f10517416ea2fec7b5341064736f6c63430008130033",
  "linkReferences": {},
  "deployedLinkReferences": {}
}