{
  "_format": "hh-sol-artifact-1",
  "contractName": "FaniqueMarketplace",
  "sourceName": "contracts/Marketplace/FaniqueMarketplace.sol",
  "abi": [
    {
      "anonymous": false,
      "inputs": [
        {
          "indexed": true,
          "internalType": "uint256",
          "name": "offerId",
          "type": "uint256"
        },
        {
          "indexed": false,
          "internalType": "address",
          "name": "sender",
          "type": "address"
        },
        {
          "indexed": false,
          "internalType": "enum FaniqueMarketplace.Status",
          "name": "status",
          "type": "uint8"
        },
        {
          "indexed": false,
          "internalType": "uint256",
          "name": "timestamp",
          "type": "uint256"
        }
      ],
      "name": "AcceptedCounterOffer",
      "type": "event"
    },
    {
      "anonymous": false,
      "inputs": [
        {
          "indexed": true,
          "internalType": "uint256",
          "name": "offerId",
          "type": "uint256"
        },
        {
          "indexed": false,
          "internalType": "address",
          "name": "sender",
          "type": "address"
        },
        {
          "indexed": false,
          "internalType": "enum FaniqueMarketplace.Status",
          "name": "status",
          "type": "uint8"
        },
        {
          "indexed": false,
          "internalType": "uint256",
          "name": "timestamp",
          "type": "uint256"
        }
      ],
      "name": "AcceptedOffer",
      "type": "event"
    },
    {
      "anonymous": false,
      "inputs": [
        {
          "indexed": true,
          "internalType": "uint16",
          "name": "version",
          "type": "uint16"
        },
        {
          "indexed": true,
          "internalType": "contract AccessControlUpgradeable",
          "name": "accessController",
          "type": "address"
        }
      ],
      "name": "AccessControlUpdated",
      "type": "event"
    },
    {
      "anonymous": false,
      "inputs": [
        {
          "indexed": true,
          "internalType": "uint256",
          "name": "marketplaceId",
          "type": "uint256"
        },
        {
          "indexed": true,
          "internalType": "uint256",
          "name": "tokenId",
          "type": "uint256"
        },
        {
          "indexed": true,
          "internalType": "address",
          "name": "erc721",
          "type": "address"
        },
        {
          "indexed": false,
          "internalType": "address",
          "name": "seller",
          "type": "address"
        },
        {
          "indexed": false,
          "internalType": "address",
          "name": "owner",
          "type": "address"
        },
        {
          "indexed": false,
          "internalType": "uint256",
          "name": "price",
          "type": "uint256"
        },
        {
          "indexed": false,
          "internalType": "bool",
          "name": "sold",
          "type": "bool"
        },
        {
          "indexed": false,
          "internalType": "enum FaniqueMarketplace.Currency",
          "name": "currency",
          "type": "uint8"
        }
      ],
      "name": "Buyed",
      "type": "event"
    },
    {
      "anonymous": false,
      "inputs": [
        {
          "indexed": true,
          "internalType": "uint256",
          "name": "marketplaceId",
          "type": "uint256"
        },
        {
          "indexed": true,
          "internalType": "uint256",
          "name": "tokenId",
          "type": "uint256"
        },
        {
          "indexed": true,
          "internalType": "address",
          "name": "erc721",
          "type": "address"
        },
        {
          "indexed": false,
          "internalType": "address",
          "name": "seller",
          "type": "address"
        },
        {
          "indexed": false,
          "internalType": "address",
          "name": "owner",
          "type": "address"
        },
        {
          "indexed": false,
          "internalType": "uint256",
          "name": "price",
          "type": "uint256"
        },
        {
          "indexed": false,
          "internalType": "uint256",
          "name": "timestamp",
          "type": "uint256"
        }
      ],
      "name": "CanceledList",
      "type": "event"
    },
    {
      "anonymous": false,
      "inputs": [
        {
          "indexed": true,
          "internalType": "uint256",
          "name": "offerId",
          "type": "uint256"
        },
        {
          "indexed": false,
          "internalType": "address",
          "name": "sender",
          "type": "address"
        },
        {
          "indexed": false,
          "internalType": "enum FaniqueMarketplace.Status",
          "name": "status",
          "type": "uint8"
        },
        {
          "indexed": false,
          "internalType": "uint256",
          "name": "timestamp",
          "type": "uint256"
        }
      ],
      "name": "CanceledOffer",
      "type": "event"
    },
    {
      "anonymous": false,
      "inputs": [
        {
          "indexed": true,
          "internalType": "uint256",
          "name": "offerId",
          "type": "uint256"
        },
        {
          "indexed": false,
          "internalType": "address",
          "name": "sender",
          "type": "address"
        },
        {
          "indexed": false,
          "internalType": "enum FaniqueMarketplace.Status",
          "name": "status",
          "type": "uint8"
        },
        {
          "indexed": false,
          "internalType": "uint256",
          "name": "timestamp",
          "type": "uint256"
        }
      ],
      "name": "CounteredOffer",
      "type": "event"
    },
    {
      "anonymous": false,
      "inputs": [
        {
          "indexed": false,
          "internalType": "uint8",
          "name": "version",
          "type": "uint8"
        }
      ],
      "name": "Initialized",
      "type": "event"
    },
    {
      "anonymous": false,
      "inputs": [
        {
          "indexed": true,
          "internalType": "uint256",
          "name": "marketplaceId",
          "type": "uint256"
        },
        {
          "indexed": true,
          "internalType": "uint256",
          "name": "tokenId",
          "type": "uint256"
        },
        {
          "indexed": true,
          "internalType": "address",
          "name": "erc721",
          "type": "address"
        },
        {
          "indexed": false,
          "internalType": "address",
          "name": "seller",
          "type": "address"
        },
        {
          "indexed": false,
          "internalType": "address",
          "name": "owner",
          "type": "address"
        },
        {
          "indexed": false,
          "internalType": "uint256",
          "name": "price",
          "type": "uint256"
        },
        {
          "indexed": false,
          "internalType": "uint256",
          "name": "fee",
          "type": "uint256"
        },
        {
          "indexed": false,
          "internalType": "bool",
          "name": "sold",
          "type": "bool"
        }
      ],
      "name": "Listed",
      "type": "event"
    },
    {
      "anonymous": false,
      "inputs": [
        {
          "indexed": true,
          "internalType": "uint256",
          "name": "offerId",
          "type": "uint256"
        },
        {
          "indexed": false,
          "internalType": "address",
          "name": "sender",
          "type": "address"
        },
        {
          "indexed": false,
          "internalType": "enum FaniqueMarketplace.Status",
          "name": "status",
          "type": "uint8"
        },
        {
          "indexed": false,
          "internalType": "uint256",
          "name": "timestamp",
          "type": "uint256"
        }
      ],
      "name": "MakedOffer",
      "type": "event"
    },
    {
      "anonymous": false,
      "inputs": [
        {
          "indexed": false,
          "internalType": "address",
          "name": "account",
          "type": "address"
        }
      ],
      "name": "Paused",
      "type": "event"
    },
    {
      "anonymous": false,
      "inputs": [
        {
          "indexed": true,
          "internalType": "uint256",
          "name": "tokenId",
          "type": "uint256"
        },
        {
          "indexed": false,
          "internalType": "address",
          "name": "erc721",
          "type": "address"
        },
        {
          "indexed": false,
          "internalType": "address",
          "name": "receiver",
          "type": "address"
        },
        {
          "indexed": false,
          "internalType": "address",
          "name": "sender",
          "type": "address"
        },
        {
          "indexed": false,
          "internalType": "uint256",
          "name": "price",
          "type": "uint256"
        },
        {
          "indexed": false,
          "internalType": "address",
          "name": "feeReceiver",
          "type": "address"
        },
        {
          "indexed": false,
          "internalType": "uint256",
          "name": "feePrice",
          "type": "uint256"
        },
        {
          "indexed": false,
          "internalType": "address",
          "name": "royaltyreceiver",
          "type": "address"
        },
        {
          "indexed": false,
          "internalType": "uint256",
          "name": "royaltyAmount",
          "type": "uint256"
        }
      ],
      "name": "Paymented",
      "type": "event"
    },
    {
      "anonymous": false,
      "inputs": [
        {
          "indexed": true,
          "internalType": "uint256",
          "name": "offerId",
          "type": "uint256"
        },
        {
          "indexed": false,
          "internalType": "enum FaniqueMarketplace.Status",
          "name": "status",
          "type": "uint8"
        },
        {
          "indexed": false,
          "internalType": "uint256",
          "name": "expires",
          "type": "uint256"
        },
        {
          "indexed": false,
          "internalType": "uint256",
          "name": "timestamp",
          "type": "uint256"
        }
      ],
      "name": "RemovedOffer",
      "type": "event"
    },
    {
      "anonymous": false,
      "inputs": [
        {
          "indexed": false,
          "internalType": "address",
          "name": "account",
          "type": "address"
        }
      ],
      "name": "Unpaused",
      "type": "event"
    },
    {
      "anonymous": false,
      "inputs": [
        {
          "indexed": true,
          "internalType": "address",
          "name": "sender",
          "type": "address"
        },
        {
          "indexed": false,
          "internalType": "uint256",
          "name": "platformFee",
          "type": "uint256"
        },
        {
          "indexed": false,
          "internalType": "uint256",
          "name": "updatedPlatformFee",
          "type": "uint256"
        }
      ],
      "name": "UpdatePlatformFee",
      "type": "event"
    },
    {
      "anonymous": false,
      "inputs": [
        {
          "indexed": true,
          "internalType": "address",
          "name": "sender",
          "type": "address"
        },
        {
          "indexed": false,
          "internalType": "contract AccessControlUpgradeable",
          "name": "newAccessControler",
          "type": "address"
        },
        {
          "indexed": false,
          "internalType": "uint256",
          "name": "timestamp",
          "type": "uint256"
        }
      ],
      "name": "UpdatedAccessControler",
      "type": "event"
    },
    {
      "anonymous": false,
      "inputs": [
        {
          "indexed": true,
          "internalType": "address",
          "name": "sender",
          "type": "address"
        },
        {
          "indexed": false,
          "internalType": "bool",
          "name": "secondaryIs",
          "type": "bool"
        },
        {
          "indexed": false,
          "internalType": "uint256",
          "name": "timestamp",
          "type": "uint256"
        }
      ],
      "name": "UpdatedAvailableSecondarySale",
      "type": "event"
    },
    {
      "anonymous": false,
      "inputs": [
        {
          "indexed": true,
          "internalType": "address",
          "name": "_to",
          "type": "address"
        },
        {
          "indexed": false,
          "internalType": "uint256",
          "name": "_amount",
          "type": "uint256"
        },
        {
          "indexed": false,
          "internalType": "uint256",
          "name": "timestamp",
          "type": "uint256"
        }
      ],
      "name": "Withdrawaled",
      "type": "event"
    },
    {
      "inputs": [],
      "name": "AccessControlVersion",
      "outputs": [
        {
          "internalType": "uint16",
          "name": "",
          "type": "uint16"
        }
      ],
      "stateMutability": "view",
      "type": "function"
    },
    {
      "inputs": [],
      "name": "IERC20_INTERFACE",
      "outputs": [
        {
          "internalType": "bytes4",
          "name": "",
          "type": "bytes4"
        }
      ],
      "stateMutability": "view",
      "type": "function"
    },
    {
      "inputs": [],
      "name": "IERC721_INTERFACE",
      "outputs": [
        {
          "internalType": "bytes4",
          "name": "",
          "type": "bytes4"
        }
      ],
      "stateMutability": "view",
      "type": "function"
    },
    {
      "inputs": [],
      "name": "IPAYMENTSPLITTER_INTERFACE",
      "outputs": [
        {
          "internalType": "bytes4",
          "name": "",
          "type": "bytes4"
        }
      ],
      "stateMutability": "view",
      "type": "function"
    },
    {
      "inputs": [],
      "name": "MARKETPLACE_ROLE",
      "outputs": [
        {
          "internalType": "bytes32",
          "name": "",
          "type": "bytes32"
        }
      ],
      "stateMutability": "view",
      "type": "function"
    },
    {
      "inputs": [],
      "name": "MARKETPLACE__ACCESS_ROLE",
      "outputs": [
        {
          "internalType": "bytes32",
          "name": "",
          "type": "bytes32"
        }
      ],
      "stateMutability": "view",
      "type": "function"
    },
    {
      "inputs": [],
      "name": "MAX_FEE",
      "outputs": [
        {
          "internalType": "uint256",
          "name": "",
          "type": "uint256"
        }
      ],
      "stateMutability": "view",
      "type": "function"
    },
    {
      "inputs": [
        {
          "internalType": "uint256",
          "name": "_offerId",
          "type": "uint256"
        }
      ],
      "name": "acceptCounterOffer",
      "outputs": [
        {
          "internalType": "uint256",
          "name": "",
          "type": "uint256"
        }
      ],
      "stateMutability": "nonpayable",
      "type": "function"
    },
    {
      "inputs": [
        {
          "internalType": "uint256",
          "name": "_offerId",
          "type": "uint256"
        }
      ],
      "name": "acceptOffer",
      "outputs": [
        {
          "internalType": "uint256",
          "name": "",
          "type": "uint256"
        }
      ],
      "stateMutability": "nonpayable",
      "type": "function"
    },
    {
      "inputs": [
        {
          "internalType": "uint16",
          "name": "",
          "type": "uint16"
        }
      ],
      "name": "accessController",
      "outputs": [
        {
          "internalType": "contract AccessControlUpgradeable",
          "name": "",
          "type": "address"
        }
      ],
      "stateMutability": "view",
      "type": "function"
    },
    {
      "inputs": [
        {
          "internalType": "address",
          "name": "_erc721",
          "type": "address"
        },
        {
          "internalType": "address",
          "name": "_holder",
          "type": "address"
        }
      ],
      "name": "balanceOf",
      "outputs": [
        {
          "internalType": "uint256",
          "name": "",
          "type": "uint256"
        }
      ],
      "stateMutability": "view",
      "type": "function"
    },
    {
      "inputs": [],
      "name": "bulkRemoveExpiredOffer",
      "outputs": [],
      "stateMutability": "nonpayable",
      "type": "function"
    },
    {
      "inputs": [
        {
          "internalType": "uint256",
          "name": "_marketplaceId",
          "type": "uint256"
        }
      ],
      "name": "buy",
      "outputs": [
        {
          "internalType": "uint256",
          "name": "",
          "type": "uint256"
        }
      ],
      "stateMutability": "payable",
      "type": "function"
    },
    {
      "inputs": [
        {
          "internalType": "uint256",
          "name": "_marketplaceId",
          "type": "uint256"
        }
      ],
      "name": "cancelList",
      "outputs": [],
      "stateMutability": "nonpayable",
      "type": "function"
    },
    {
      "inputs": [
        {
          "internalType": "uint256",
          "name": "_offerId",
          "type": "uint256"
        }
      ],
      "name": "cancelOffer",
      "outputs": [
        {
          "internalType": "uint256",
          "name": "",
          "type": "uint256"
        }
      ],
      "stateMutability": "nonpayable",
      "type": "function"
    },
    {
      "inputs": [
        {
          "internalType": "uint256",
          "name": "_offerId",
          "type": "uint256"
        },
        {
          "internalType": "uint256",
          "name": "_price",
          "type": "uint256"
        },
        {
          "internalType": "uint64",
          "name": "_expires",
          "type": "uint64"
        }
      ],
      "name": "counterOffer",
      "outputs": [
        {
          "internalType": "uint256",
          "name": "",
          "type": "uint256"
        }
      ],
      "stateMutability": "nonpayable",
      "type": "function"
    },
    {
      "inputs": [
        {
          "internalType": "uint256",
          "name": "_tokenId",
          "type": "uint256"
        },
        {
          "internalType": "address",
          "name": "_erc721",
          "type": "address"
        }
      ],
      "name": "erc721Exists",
      "outputs": [
        {
          "internalType": "bool",
          "name": "",
          "type": "bool"
        }
      ],
      "stateMutability": "view",
      "type": "function"
    },
    {
      "inputs": [
        {
          "internalType": "uint256",
          "name": "_marketplaceId",
          "type": "uint256"
        }
      ],
      "name": "exists",
      "outputs": [
        {
          "internalType": "bool",
          "name": "",
          "type": "bool"
        }
      ],
      "stateMutability": "view",
      "type": "function"
    },
    {
      "inputs": [],
      "name": "getAcceptedCounterOffers",
      "outputs": [
        {
          "components": [
            {
              "internalType": "uint256",
              "name": "offerId",
              "type": "uint256"
            },
            {
              "internalType": "uint256",
              "name": "tokenId",
              "type": "uint256"
            },
            {
              "internalType": "address",
              "name": "erc721",
              "type": "address"
            },
            {
              "internalType": "address payable",
              "name": "offerer",
              "type": "address"
            },
            {
              "internalType": "address payable",
              "name": "owner",
              "type": "address"
            },
            {
              "internalType": "uint256",
              "name": "price",
              "type": "uint256"
            },
            {
              "internalType": "enum FaniqueMarketplace.Status",
              "name": "status",
              "type": "uint8"
            },
            {
              "internalType": "uint64",
              "name": "expires",
              "type": "uint64"
            }
          ],
          "internalType": "struct FaniqueMarketplace.FaniqueMarketplaceOffer[]",
          "name": "",
          "type": "tuple[]"
        }
      ],
      "stateMutability": "view",
      "type": "function"
    },
    {
      "inputs": [],
      "name": "getAcceptedOffers",
      "outputs": [
        {
          "components": [
            {
              "internalType": "uint256",
              "name": "offerId",
              "type": "uint256"
            },
            {
              "internalType": "uint256",
              "name": "tokenId",
              "type": "uint256"
            },
            {
              "internalType": "address",
              "name": "erc721",
              "type": "address"
            },
            {
              "internalType": "address payable",
              "name": "offerer",
              "type": "address"
            },
            {
              "internalType": "address payable",
              "name": "owner",
              "type": "address"
            },
            {
              "internalType": "uint256",
              "name": "price",
              "type": "uint256"
            },
            {
              "internalType": "enum FaniqueMarketplace.Status",
              "name": "status",
              "type": "uint8"
            },
            {
              "internalType": "uint64",
              "name": "expires",
              "type": "uint64"
            }
          ],
          "internalType": "struct FaniqueMarketplace.FaniqueMarketplaceOffer[]",
          "name": "",
          "type": "tuple[]"
        }
      ],
      "stateMutability": "view",
      "type": "function"
    },
    {
      "inputs": [],
      "name": "getAllOffers",
      "outputs": [
        {
          "components": [
            {
              "internalType": "uint256",
              "name": "offerId",
              "type": "uint256"
            },
            {
              "internalType": "uint256",
              "name": "tokenId",
              "type": "uint256"
            },
            {
              "internalType": "address",
              "name": "erc721",
              "type": "address"
            },
            {
              "internalType": "address payable",
              "name": "offerer",
              "type": "address"
            },
            {
              "internalType": "address payable",
              "name": "owner",
              "type": "address"
            },
            {
              "internalType": "uint256",
              "name": "price",
              "type": "uint256"
            },
            {
              "internalType": "enum FaniqueMarketplace.Status",
              "name": "status",
              "type": "uint8"
            },
            {
              "internalType": "uint64",
              "name": "expires",
              "type": "uint64"
            }
          ],
          "internalType": "struct FaniqueMarketplace.FaniqueMarketplaceOffer[]",
          "name": "",
          "type": "tuple[]"
        }
      ],
      "stateMutability": "view",
      "type": "function"
    },
    {
      "inputs": [],
      "name": "getCancelOffers",
      "outputs": [
        {
          "components": [
            {
              "internalType": "uint256",
              "name": "offerId",
              "type": "uint256"
            },
            {
              "internalType": "uint256",
              "name": "tokenId",
              "type": "uint256"
            },
            {
              "internalType": "address",
              "name": "erc721",
              "type": "address"
            },
            {
              "internalType": "address payable",
              "name": "offerer",
              "type": "address"
            },
            {
              "internalType": "address payable",
              "name": "owner",
              "type": "address"
            },
            {
              "internalType": "uint256",
              "name": "price",
              "type": "uint256"
            },
            {
              "internalType": "enum FaniqueMarketplace.Status",
              "name": "status",
              "type": "uint8"
            },
            {
              "internalType": "uint64",
              "name": "expires",
              "type": "uint64"
            }
          ],
          "internalType": "struct FaniqueMarketplace.FaniqueMarketplaceOffer[]",
          "name": "",
          "type": "tuple[]"
        }
      ],
      "stateMutability": "view",
      "type": "function"
    },
    {
      "inputs": [],
      "name": "getCounterOffers",
      "outputs": [
        {
          "components": [
            {
              "internalType": "uint256",
              "name": "offerId",
              "type": "uint256"
            },
            {
              "internalType": "uint256",
              "name": "tokenId",
              "type": "uint256"
            },
            {
              "internalType": "address",
              "name": "erc721",
              "type": "address"
            },
            {
              "internalType": "address payable",
              "name": "offerer",
              "type": "address"
            },
            {
              "internalType": "address payable",
              "name": "owner",
              "type": "address"
            },
            {
              "internalType": "uint256",
              "name": "price",
              "type": "uint256"
            },
            {
              "internalType": "enum FaniqueMarketplace.Status",
              "name": "status",
              "type": "uint8"
            },
            {
              "internalType": "uint64",
              "name": "expires",
              "type": "uint64"
            }
          ],
          "internalType": "struct FaniqueMarketplace.FaniqueMarketplaceOffer[]",
          "name": "",
          "type": "tuple[]"
        }
      ],
      "stateMutability": "view",
      "type": "function"
    },
    {
      "inputs": [
        {
          "internalType": "uint256",
          "name": "_marketplaceId",
          "type": "uint256"
        }
      ],
      "name": "getErc721",
      "outputs": [
        {
          "internalType": "address",
          "name": "",
          "type": "address"
        }
      ],
      "stateMutability": "view",
      "type": "function"
    },
    {
      "inputs": [],
      "name": "getExpiredOffersCount",
      "outputs": [
        {
          "internalType": "uint256",
          "name": "offerCount",
          "type": "uint256"
        }
      ],
      "stateMutability": "view",
      "type": "function"
    },
    {
      "inputs": [
        {
          "internalType": "uint256",
          "name": "_fee",
          "type": "uint256"
        },
        {
          "internalType": "uint256",
          "name": "_salePrice",
          "type": "uint256"
        }
      ],
      "name": "getFeePrice",
      "outputs": [
        {
          "internalType": "uint256",
          "name": "",
          "type": "uint256"
        }
      ],
      "stateMutability": "pure",
      "type": "function"
    },
    {
      "inputs": [],
      "name": "getListedMarketplaceMetas",
      "outputs": [
        {
          "components": [
            {
              "internalType": "uint256",
              "name": "marketplaceId",
              "type": "uint256"
            },
            {
              "internalType": "uint256",
              "name": "tokenId",
              "type": "uint256"
            },
            {
              "internalType": "address",
              "name": "erc721",
              "type": "address"
            },
            {
              "internalType": "address payable",
              "name": "seller",
              "type": "address"
            },
            {
              "internalType": "address payable",
              "name": "owner",
              "type": "address"
            },
            {
              "internalType": "uint256",
              "name": "price",
              "type": "uint256"
            },
            {
              "internalType": "uint256",
              "name": "fee",
              "type": "uint256"
            },
            {
              "internalType": "bool",
              "name": "sold",
              "type": "bool"
            }
          ],
          "internalType": "struct FaniqueMarketplace.FaniqueMarketplaceMeta[]",
          "name": "",
          "type": "tuple[]"
        }
      ],
      "stateMutability": "view",
      "type": "function"
    },
    {
      "inputs": [
        {
          "internalType": "address",
          "name": "_owner",
          "type": "address"
        }
      ],
      "name": "getMarketplaceIdCountbyAddress",
      "outputs": [
        {
          "internalType": "uint256",
          "name": "count",
          "type": "uint256"
        }
      ],
      "stateMutability": "view",
      "type": "function"
    },
    {
      "inputs": [
        {
          "internalType": "address",
          "name": "_holder",
          "type": "address"
        }
      ],
      "name": "getMarketplaceMetasByHolder",
      "outputs": [
        {
          "components": [
            {
              "internalType": "uint256",
              "name": "marketplaceId",
              "type": "uint256"
            },
            {
              "internalType": "uint256",
              "name": "tokenId",
              "type": "uint256"
            },
            {
              "internalType": "address",
              "name": "erc721",
              "type": "address"
            },
            {
              "internalType": "address payable",
              "name": "seller",
              "type": "address"
            },
            {
              "internalType": "address payable",
              "name": "owner",
              "type": "address"
            },
            {
              "internalType": "uint256",
              "name": "price",
              "type": "uint256"
            },
            {
              "internalType": "uint256",
              "name": "fee",
              "type": "uint256"
            },
            {
              "internalType": "bool",
              "name": "sold",
              "type": "bool"
            }
          ],
          "internalType": "struct FaniqueMarketplace.FaniqueMarketplaceMeta[]",
          "name": "",
          "type": "tuple[]"
        }
      ],
      "stateMutability": "view",
      "type": "function"
    },
    {
      "inputs": [],
      "name": "getMarketplaceMetasBySender",
      "outputs": [
        {
          "components": [
            {
              "internalType": "uint256",
              "name": "marketplaceId",
              "type": "uint256"
            },
            {
              "internalType": "uint256",
              "name": "tokenId",
              "type": "uint256"
            },
            {
              "internalType": "address",
              "name": "erc721",
              "type": "address"
            },
            {
              "internalType": "address payable",
              "name": "seller",
              "type": "address"
            },
            {
              "internalType": "address payable",
              "name": "owner",
              "type": "address"
            },
            {
              "internalType": "uint256",
              "name": "price",
              "type": "uint256"
            },
            {
              "internalType": "uint256",
              "name": "fee",
              "type": "uint256"
            },
            {
              "internalType": "bool",
              "name": "sold",
              "type": "bool"
            }
          ],
          "internalType": "struct FaniqueMarketplace.FaniqueMarketplaceMeta[]",
          "name": "",
          "type": "tuple[]"
        }
      ],
      "stateMutability": "view",
      "type": "function"
    },
    {
      "inputs": [],
      "name": "getMyCreatedNftList",
      "outputs": [
        {
          "components": [
            {
              "internalType": "uint256",
              "name": "marketplaceId",
              "type": "uint256"
            },
            {
              "internalType": "uint256",
              "name": "tokenId",
              "type": "uint256"
            },
            {
              "internalType": "address",
              "name": "erc721",
              "type": "address"
            },
            {
              "internalType": "address payable",
              "name": "seller",
              "type": "address"
            },
            {
              "internalType": "address payable",
              "name": "owner",
              "type": "address"
            },
            {
              "internalType": "uint256",
              "name": "price",
              "type": "uint256"
            },
            {
              "internalType": "uint256",
              "name": "fee",
              "type": "uint256"
            },
            {
              "internalType": "bool",
              "name": "sold",
              "type": "bool"
            }
          ],
          "internalType": "struct FaniqueMarketplace.FaniqueMarketplaceMeta[]",
          "name": "",
          "type": "tuple[]"
        }
      ],
      "stateMutability": "view",
      "type": "function"
    },
    {
      "inputs": [
        {
          "internalType": "uint256",
          "name": "_marketplaceId",
          "type": "uint256"
        }
      ],
      "name": "getNftByMarketplaceId",
      "outputs": [
        {
          "components": [
            {
              "internalType": "uint256",
              "name": "marketplaceId",
              "type": "uint256"
            },
            {
              "internalType": "uint256",
              "name": "tokenId",
              "type": "uint256"
            },
            {
              "internalType": "address",
              "name": "erc721",
              "type": "address"
            },
            {
              "internalType": "address payable",
              "name": "seller",
              "type": "address"
            },
            {
              "internalType": "address payable",
              "name": "owner",
              "type": "address"
            },
            {
              "internalType": "uint256",
              "name": "price",
              "type": "uint256"
            },
            {
              "internalType": "uint256",
              "name": "fee",
              "type": "uint256"
            },
            {
              "internalType": "bool",
              "name": "sold",
              "type": "bool"
            }
          ],
          "internalType": "struct FaniqueMarketplace.FaniqueMarketplaceMeta",
          "name": "",
          "type": "tuple"
        }
      ],
      "stateMutability": "view",
      "type": "function"
    },
    {
      "inputs": [
        {
          "internalType": "uint256",
          "name": "_marketplaceId",
          "type": "uint256"
        }
      ],
      "name": "getNftInfo",
      "outputs": [
        {
          "internalType": "uint256",
          "name": "tokenId",
          "type": "uint256"
        },
        {
          "internalType": "address",
          "name": "erc721",
          "type": "address"
        }
      ],
      "stateMutability": "view",
      "type": "function"
    },
    {
      "inputs": [],
      "name": "getNotExpiredOffers",
      "outputs": [
        {
          "components": [
            {
              "internalType": "uint256",
              "name": "offerId",
              "type": "uint256"
            },
            {
              "internalType": "uint256",
              "name": "tokenId",
              "type": "uint256"
            },
            {
              "internalType": "address",
              "name": "erc721",
              "type": "address"
            },
            {
              "internalType": "address payable",
              "name": "offerer",
              "type": "address"
            },
            {
              "internalType": "address payable",
              "name": "owner",
              "type": "address"
            },
            {
              "internalType": "uint256",
              "name": "price",
              "type": "uint256"
            },
            {
              "internalType": "enum FaniqueMarketplace.Status",
              "name": "status",
              "type": "uint8"
            },
            {
              "internalType": "uint64",
              "name": "expires",
              "type": "uint64"
            }
          ],
          "internalType": "struct FaniqueMarketplace.FaniqueMarketplaceOffer[]",
          "name": "",
          "type": "tuple[]"
        }
      ],
      "stateMutability": "view",
      "type": "function"
    },
    {
      "inputs": [],
      "name": "getNotExpiredOffersCount",
      "outputs": [
        {
          "internalType": "uint256",
          "name": "offerCount",
          "type": "uint256"
        }
      ],
      "stateMutability": "view",
      "type": "function"
    },
    {
      "inputs": [],
      "name": "getOffers",
      "outputs": [
        {
          "components": [
            {
              "internalType": "uint256",
              "name": "offerId",
              "type": "uint256"
            },
            {
              "internalType": "uint256",
              "name": "tokenId",
              "type": "uint256"
            },
            {
              "internalType": "address",
              "name": "erc721",
              "type": "address"
            },
            {
              "internalType": "address payable",
              "name": "offerer",
              "type": "address"
            },
            {
              "internalType": "address payable",
              "name": "owner",
              "type": "address"
            },
            {
              "internalType": "uint256",
              "name": "price",
              "type": "uint256"
            },
            {
              "internalType": "enum FaniqueMarketplace.Status",
              "name": "status",
              "type": "uint8"
            },
            {
              "internalType": "uint64",
              "name": "expires",
              "type": "uint64"
            }
          ],
          "internalType": "struct FaniqueMarketplace.FaniqueMarketplaceOffer[]",
          "name": "",
          "type": "tuple[]"
        }
      ],
      "stateMutability": "view",
      "type": "function"
    },
    {
      "inputs": [
        {
          "internalType": "enum FaniqueMarketplace.Status",
          "name": "_status",
          "type": "uint8"
        }
      ],
      "name": "getOffersByStatus",
      "outputs": [
        {
          "components": [
            {
              "internalType": "uint256",
              "name": "offerId",
              "type": "uint256"
            },
            {
              "internalType": "uint256",
              "name": "tokenId",
              "type": "uint256"
            },
            {
              "internalType": "address",
              "name": "erc721",
              "type": "address"
            },
            {
              "internalType": "address payable",
              "name": "offerer",
              "type": "address"
            },
            {
              "internalType": "address payable",
              "name": "owner",
              "type": "address"
            },
            {
              "internalType": "uint256",
              "name": "price",
              "type": "uint256"
            },
            {
              "internalType": "enum FaniqueMarketplace.Status",
              "name": "status",
              "type": "uint8"
            },
            {
              "internalType": "uint64",
              "name": "expires",
              "type": "uint64"
            }
          ],
          "internalType": "struct FaniqueMarketplace.FaniqueMarketplaceOffer[]",
          "name": "",
          "type": "tuple[]"
        }
      ],
      "stateMutability": "view",
      "type": "function"
    },
    {
      "inputs": [
        {
          "internalType": "enum FaniqueMarketplace.Status",
          "name": "_status",
          "type": "uint8"
        }
      ],
      "name": "getOffersCountByStatus",
      "outputs": [
        {
          "internalType": "uint256",
          "name": "offerCount",
          "type": "uint256"
        }
      ],
      "stateMutability": "view",
      "type": "function"
    },
    {
      "inputs": [],
      "name": "getPlatformFee",
      "outputs": [
        {
          "internalType": "uint256",
          "name": "",
          "type": "uint256"
        }
      ],
      "stateMutability": "view",
      "type": "function"
    },
    {
      "inputs": [],
      "name": "getRemoveExpiredOfferIds",
      "outputs": [
        {
          "internalType": "uint256[]",
          "name": "expiredOfferIds",
          "type": "uint256[]"
        }
      ],
      "stateMutability": "view",
      "type": "function"
    },
    {
      "inputs": [
        {
          "internalType": "uint256",
          "name": "_marketplaceId",
          "type": "uint256"
        }
      ],
      "name": "getTokenId",
      "outputs": [
        {
          "internalType": "uint256",
          "name": "",
          "type": "uint256"
        }
      ],
      "stateMutability": "view",
      "type": "function"
    },
    {
      "inputs": [
        {
          "internalType": "contract AccessControlUpgradeable",
          "name": "_accessControler",
          "type": "address"
        },
        {
          "internalType": "contract IFaniqueWhiteListUpgradeable",
          "name": "_faniqueWhiteList",
          "type": "address"
        },
        {
          "internalType": "contract IFaniqueWhiteListUpgradeable",
          "name": "_faniqueERC721WhiteList",
          "type": "address"
        },
        {
          "internalType": "contract WETH9",
          "name": "_weth",
          "type": "address"
        }
      ],
      "name": "initialize",
      "outputs": [],
      "stateMutability": "nonpayable",
      "type": "function"
    },
    {
      "inputs": [],
      "name": "isOpenToSecondarySales",
      "outputs": [
        {
          "internalType": "bool",
          "name": "",
          "type": "bool"
        }
      ],
      "stateMutability": "view",
      "type": "function"
    },
    {
      "inputs": [
        {
          "internalType": "address",
          "name": "_address",
          "type": "address"
        }
      ],
      "name": "isPaymentSplitter",
      "outputs": [
        {
          "internalType": "bool",
          "name": "",
          "type": "bool"
        }
      ],
      "stateMutability": "view",
      "type": "function"
    },
    {
      "inputs": [
        {
          "internalType": "address",
          "name": "_erc721",
          "type": "address"
        },
        {
          "internalType": "uint256",
          "name": "_tokenId",
          "type": "uint256"
        },
        {
          "internalType": "uint256",
          "name": "_price",
          "type": "uint256"
        },
        {
          "internalType": "uint256",
          "name": "_fee",
          "type": "uint256"
        },
        {
          "internalType": "address",
          "name": "_seller",
          "type": "address"
        }
      ],
      "name": "list",
      "outputs": [
        {
          "internalType": "uint256",
          "name": "marketplaceId",
          "type": "uint256"
        }
      ],
      "stateMutability": "payable",
      "type": "function"
    },
    {
      "inputs": [
        {
          "internalType": "address",
          "name": "_erc721",
          "type": "address"
        },
        {
          "internalType": "uint256",
          "name": "_tokenId",
          "type": "uint256"
        },
        {
          "internalType": "uint256",
          "name": "_price",
          "type": "uint256"
        },
        {
          "internalType": "uint64",
          "name": "expires",
          "type": "uint64"
        }
      ],
      "name": "makeOffer",
      "outputs": [
        {
          "internalType": "uint256",
          "name": "offerId",
          "type": "uint256"
        }
      ],
      "stateMutability": "nonpayable",
      "type": "function"
    },
    {
      "inputs": [],
      "name": "nextMarketplaceId",
      "outputs": [
        {
          "internalType": "uint256",
          "name": "",
          "type": "uint256"
        }
      ],
      "stateMutability": "view",
      "type": "function"
    },
    {
      "inputs": [],
      "name": "nextOfferId",
      "outputs": [
        {
          "internalType": "uint256",
          "name": "",
          "type": "uint256"
        }
      ],
      "stateMutability": "view",
      "type": "function"
    },
    {
      "inputs": [],
      "name": "nextSoldCounter",
      "outputs": [
        {
          "internalType": "uint256",
          "name": "",
          "type": "uint256"
        }
      ],
      "stateMutability": "view",
      "type": "function"
    },
    {
      "inputs": [
        {
          "internalType": "uint256",
          "name": "_offerId",
          "type": "uint256"
        }
      ],
      "name": "offerExists",
      "outputs": [
        {
          "internalType": "bool",
          "name": "",
          "type": "bool"
        }
      ],
      "stateMutability": "view",
      "type": "function"
    },
    {
      "inputs": [
        {
          "internalType": "uint256",
          "name": "_offerId",
          "type": "uint256"
        }
      ],
      "name": "offerExpires",
      "outputs": [
        {
          "internalType": "uint256",
          "name": "",
          "type": "uint256"
        }
      ],
      "stateMutability": "view",
      "type": "function"
    },
    {
      "inputs": [
        {
          "internalType": "address",
          "name": "",
          "type": "address"
        },
        {
          "internalType": "address",
          "name": "",
          "type": "address"
        },
        {
          "internalType": "uint256",
          "name": "",
          "type": "uint256"
        },
        {
          "internalType": "bytes",
          "name": "",
          "type": "bytes"
        }
      ],
      "name": "onERC721Received",
      "outputs": [
        {
          "internalType": "bytes4",
          "name": "",
          "type": "bytes4"
        }
      ],
      "stateMutability": "nonpayable",
      "type": "function"
    },
    {
      "inputs": [
        {
          "internalType": "uint256",
          "name": "_marketplaceId",
          "type": "uint256"
        }
      ],
      "name": "ownerOf",
      "outputs": [
        {
          "internalType": "address",
          "name": "",
          "type": "address"
        }
      ],
      "stateMutability": "view",
      "type": "function"
    },
    {
      "inputs": [],
      "name": "paused",
      "outputs": [
        {
          "internalType": "bool",
          "name": "",
          "type": "bool"
        }
      ],
      "stateMutability": "view",
      "type": "function"
    },
    {
      "inputs": [
        {
          "internalType": "uint256",
          "name": "_offerId",
          "type": "uint256"
        }
      ],
      "name": "removeExpiredOffer",
      "outputs": [
        {
          "internalType": "uint256",
          "name": "",
          "type": "uint256"
        }
      ],
      "stateMutability": "nonpayable",
      "type": "function"
    },
    {
      "inputs": [
        {
          "internalType": "address",
          "name": "_to",
          "type": "address"
        },
        {
          "internalType": "uint256",
          "name": "_marketplaceId",
          "type": "uint256"
        }
      ],
      "name": "safeTransferFrom",
      "outputs": [
        {
          "internalType": "uint256",
          "name": "",
          "type": "uint256"
        }
      ],
      "stateMutability": "nonpayable",
      "type": "function"
    },
    {
      "inputs": [
        {
          "internalType": "contract AccessControlUpgradeable",
          "name": "newaccessControler",
          "type": "address"
        }
      ],
      "name": "setAccessControler",
      "outputs": [],
      "stateMutability": "nonpayable",
      "type": "function"
    },
    {
      "inputs": [
        {
          "internalType": "bool",
          "name": "secondaryIs",
          "type": "bool"
        }
      ],
      "name": "updateAvailableSecondarySale",
      "outputs": [],
      "stateMutability": "nonpayable",
      "type": "function"
    },
    {
      "inputs": [
        {
          "internalType": "uint256",
          "name": "_platformFee",
          "type": "uint256"
        }
      ],
      "name": "updatePlatformFee",
      "outputs": [],
      "stateMutability": "nonpayable",
      "type": "function"
    },
    {
      "inputs": [],
      "name": "version",
      "outputs": [
        {
          "internalType": "string",
          "name": "",
          "type": "string"
        }
      ],
      "stateMutability": "pure",
      "type": "function"
    },
    {
      "inputs": [],
      "name": "weth",
      "outputs": [
        {
          "internalType": "contract WETH9",
          "name": "",
          "type": "address"
        }
      ],
      "stateMutability": "view",
      "type": "function"
    },
    {
      "inputs": [
        {
          "internalType": "address",
          "name": "_to",
          "type": "address"
        },
        {
          "internalType": "uint256",
          "name": "_amount",
          "type": "uint256"
        }
      ],
      "name": "withdrawal",
      "outputs": [],
      "stateMutability": "nonpayable",
      "type": "function"
    }
  ],
  "bytecode": "0x60806040526103e860ce5560cf80546001600160601b0319166b36372b0780ac58cd98a9a04417905534801561003457600080fd5b506155a780620000456000396000f3fe6080604052600436106103ac5760003560e01c806396b77468116101e7578063c9c9d2d81161010d578063eafa741d116100a0578063f47e54451161006f578063f47e544514610b98578063f7888aec14610bad578063f8c8765e14610bcd578063f9d4466714610bed57600080fd5b8063eafa741d14610b1e578063ef706adf14610b38578063f0dc1e9214610b58578063f3d2e63314610b7857600080fd5b8063d96a094a116100dc578063d96a094a14610ac3578063dcfcca2514610ad6578063e000507914610aeb578063e51f74b214610afe57600080fd5b8063c9c9d2d814610a0d578063cc6fb6b314610a2d578063d58bcecb14610a42578063d5ec2d8314610a6257600080fd5b8063b2a2c93011610185578063c2ca32f611610154578063c2ca32f614610989578063c3439f3f146109b6578063c815729d146109d8578063c83d5f7d146109f857600080fd5b8063b2a2c930146108f5578063b5c8359214610933578063b92038e414610953578063bc063e1a1461097357600080fd5b8063a2e25015116101c1578063a2e2501514610859578063a3484ff114610879578063a6a38ca4146108af578063aa0b5988146108d557600080fd5b806396b774681461081a578063a0a761611461082f578063a16552781461084457600080fd5b806354fd4d50116102d75780636ea8bc101161026a5780638cedddc0116102395780638cedddc01461078d57806390a6c8cb146107ac57806391013d20146107e5578063955a6ad3146107fa57600080fd5b80636ea8bc1014610716578063730ed93b1461072b5780637df57c891461074b578063819de3bb1461076b57600080fd5b80635c975abb116102a65780635c975abb1461069b5780635f5d0655146106b35780635fdf6ba3146106c85780636352211e146106f657600080fd5b806354fd4d5014610609578063551026bb14610639578063562b3c59146106595780635a6b26ba1461067957600080fd5b806328da4a791161034f578063436c61e61161031e578063436c61e614610577578063481b1516146105a45780634afc9cf5146105b95780634f558e79146105ce57600080fd5b806328da4a79146104e557806330c5c815146105155780633ee992ee1461052a5780633fc8cef31461053f57600080fd5b8063150b7a021161038b578063150b7a021461043d5780631cf578b9146104815780631e8f5530146104a35780632031289f146104c557600080fd5b8062c7731e146103b15780630fa3bf87146103d957806314ff5ea31461040d575b600080fd5b3480156103bd57600080fd5b506103c6610c02565b6040519081526020015b60405180910390f35b3480156103e557600080fd5b506103c67f9c603339d9907d999bc41fe34199d3ceb950cadf544d9f81d93d2c9687e2913681565b34801561041957600080fd5b506103c6610428366004614a57565b600090815260d6602052604090206001015490565b34801561044957600080fd5b50610468610458366004614acb565b630a85bd0160e11b949350505050565b6040516001600160e01b031990911681526020016103d0565b34801561048d57600080fd5b50610496610c1d565b6040516103d09190614bb8565b3480156104af57600080fd5b5060cf5461046890640100000000900460e01b81565b3480156104d157600080fd5b506103c66104e0366004614c68565b610de2565b3480156104f157600080fd5b50610505610500366004614c89565b610e63565b60405190151581526020016103d0565b34801561052157600080fd5b506103c6610ee7565b34801561053657600080fd5b50610496610ef2565b34801561054b57600080fd5b5060d45461055f906001600160a01b031681565b6040516001600160a01b0390911681526020016103d0565b34801561058357600080fd5b50610597610592366004614c89565b610efe565b6040516103d09190614d06565b3480156105b057600080fd5b50610597610f09565b3480156105c557600080fd5b506105976110e6565b3480156105da57600080fd5b506105056105e9366004614a57565b600090815260d660205260409020600401546001600160a01b0316151590565b34801561061557600080fd5b5060408051808201825260018152603160f81b602082015290516103d09190614d55565b34801561064557600080fd5b506103c6610654366004614da3565b6110f1565b34801561066557600080fd5b506103c6610674366004614c89565b611221565b34801561068557600080fd5b50610699610694366004614da3565b61128a565b005b3480156106a757600080fd5b5060995460ff16610505565b3480156106bf57600080fd5b506103c661138f565b3480156106d457600080fd5b506033546106e39061ffff1681565b60405161ffff90911681526020016103d0565b34801561070257600080fd5b5061055f610711366004614a57565b61139a565b34801561072257600080fd5b5060d0546103c6565b34801561073757600080fd5b506103c6610746366004614deb565b61141c565b34801561075757600080fd5b50610699610766366004614c89565b611933565b34801561077757600080fd5b506107806119ca565b6040516103d09190614e33565b34801561079957600080fd5b5060d354600160a01b900460ff16610505565b3480156107b857600080fd5b5061055f6107c7366004614a57565b600090815260d660205260409020600201546001600160a01b031690565b3480156107f157600080fd5b50610699611ad4565b34801561080657600080fd5b50610699610815366004614e79565b611b5a565b34801561082657600080fd5b506103c6611c5d565b34801561083b57600080fd5b50610496611cc6565b34801561085057600080fd5b50610496611cd2565b34801561086557600080fd5b50610496610874366004614c68565b611e5a565b34801561088557600080fd5b5061055f610894366004614e96565b6034602052600090815260409020546001600160a01b031681565b3480156108bb57600080fd5b5060cf546104689068010000000000000000900460e01b81565b3480156108e157600080fd5b506106996108f0366004614a57565b612074565b34801561090157600080fd5b506103c6610910366004614a57565b600090815260d7602052604090206006015461010090046001600160401b031690565b34801561093f57600080fd5b5061050561094e366004614a57565b612150565b34801561095f57600080fd5b506103c661096e366004614eba565b612170565b34801561097f57600080fd5b506103c660ce5481565b34801561099557600080fd5b506109a96109a4366004614a57565b6124bb565b6040516103d09190614eef565b3480156109c257600080fd5b506103c660008051602061555283398151915281565b3480156109e457600080fd5b506103c66109f3366004614a57565b612546565b348015610a0457600080fd5b506104966127e6565b348015610a1957600080fd5b50610699610a28366004614a57565b6127f2565b348015610a3957600080fd5b5061049661299e565b348015610a4e57600080fd5b506103c6610a5d366004614a57565b6129aa565b348015610a6e57600080fd5b50610aa6610a7d366004614a57565b600090815260d660205260409020600181015460029091015490916001600160a01b0390911690565b604080519283526001600160a01b039091166020830152016103d0565b6103c6610ad1366004614a57565b612ce0565b348015610ae257600080fd5b50610597612e2b565b6103c6610af9366004614efe565b612e36565b348015610b0a57600080fd5b506103c6610b19366004614a57565b612f85565b348015610b2a57600080fd5b5060cf546104689060e01b81565b348015610b4457600080fd5b506103c6610b53366004614a57565b6130be565b348015610b6457600080fd5b50610505610b73366004614f54565b61330d565b348015610b8457600080fd5b506103c6610b93366004614f84565b61338d565b348015610ba457600080fd5b506104966133ad565b348015610bb957600080fd5b506103c6610bc8366004614fa6565b6133b9565b348015610bd957600080fd5b50610699610be8366004614fd4565b613427565b348015610bf957600080fd5b506103c66135a9565b6000610c0d60cc5490565b610c18906001615046565b905090565b60606000610c29611c5d565b6001600160401b03811115610c4057610c40614a85565b604051908082528060200260200182016040528015610c7957816020015b610c666149b0565b815260200190600190039081610c5e5790505b5090506000805b60cd548111610dda574260d76000610c99846001615046565b815260208101919091526040016000206006015461010090046001600160401b031610610dc857600060d781610cd0846001615046565b8152602080820192909252604090810160009081205480825260d78452908290208251610100810184528154815260018201549481019490945260028101546001600160a01b03908116938501939093526003810154831660608501526004808201549093166080850152600581015460a085015260068101549194509291839160c084019160ff90911690811115610d6b57610d6b614b8e565b6004811115610d7c57610d7c614b8e565b81526006919091015461010090046001600160401b03166020909101528551869086908110610dad57610dad615059565b6020908102919091010152610dc3600185615046565b935050505b80610dd28161506f565b915050610c80565b509092915050565b6000805b60cd548111610e5d57826004811115610e0157610e01614b8e565b60d76000610e10846001615046565b815260208101919091526040016000206006015460ff166004811115610e3857610e38614b8e565b03610e4b57610e48600183615046565b91505b80610e558161506f565b915050610de6565b50919050565b60cf546040516301ffc9a760e01b815260e09190911b6001600160e01b03191660048201526000906001600160a01b038316906301ffc9a7906024015b602060405180830381865afa158015610ebd573d6000803e3d6000fd5b505050506040513d601f19601f82011682018060405250810190610ee19190615088565b92915050565b6000610c0d60cb5490565b6060610c186000611e5a565b6060610ee18261360f565b60606000610f1660cb5490565b905060008060005b83811015610f78573360d66000610f36846001615046565b81526020810191909152604001600020600301546001600160a01b031603610f6657610f63600184615046565b92505b80610f708161506f565b915050610f1e565b506000826001600160401b03811115610f9357610f93614a85565b604051908082528060200260200182016040528015610fcc57816020015b610fb96149f5565b815260200190600190039081610fb15790505b50905060005b848110156110dd573360d66000610fea846001615046565b81526020810191909152604001600020600301546001600160a01b0316036110cb576000611019826001615046565b600081815260d660209081526040918290208251610100810184528154815260018201549281019290925260028101546001600160a01b039081169383019390935260038101548316606083015260048101549092166080820152600582015460a0820152600682015460c0820152600782015460ff16151560e0820152855192935090918590879081106110b0576110b0615059565b60209081029190910101526110c6600186615046565b945050505b806110d58161506f565b915050610fd2565b50949350505050565b6060610c183061360f565b600060008051602061555283398151915261110b81613762565b6111305760405162461bcd60e51b8152600401611127906150a5565b60405180910390fd5b600083815260d6602052604090206004015483906001600160a01b03166111695760405162461bcd60e51b8152600401611127906150d3565b600084815260d66020526040902060058101546002820154600383015460018085015460069095015493946001600160a01b03938416949390921692906111bd908a908490879087908f908b9088906137ac565b6112135760405162461bcd60e51b815260206004820152602160248201527f736166655472616e7366657246726f6d3a205f62757920696e76616c696421216044820152602160f81b6064820152608401611127565b509698975050505050505050565b6000805b60cb54811015610e5d576001600160a01b03831660d66000611248846001615046565b81526020810191909152604001600020600401546001600160a01b03160361127857611275600183615046565b91505b806112828161506f565b915050611225565b60d1546001600160a01b031633146112ef5760405162461bcd60e51b815260206004820152602260248201527f6f6e6c7943656e7472616c3a206f6e6c792063656e7472616c2077616c6c6574604482015261212160f01b6064820152608401611127565b80600081116113105760405162461bcd60e51b815260040161112790615122565b6040516001600160a01b0384169083156108fc029084906000818181858888f19350505050158015611346573d6000803e3d6000fd5b50604080518381524260208201526001600160a01b038516917f30da620311177dab4fb8347ff602b63e406cbd7a35b41562849dfbfc380602da910160405180910390a2505050565b6000610c0d60cd5490565b600081815260d66020526040808220600281015460019091015491516331a9108f60e11b815260048101929092526001600160a01b031690636352211e90602401602060405180830381865afa1580156113f8573d6000803e3d6000fd5b505050506040513d601f19601f82011682018060405250810190610ee19190615159565b60d354600090600160a01b900460ff168061149e575060d25460405163f99031a760e01b81523360048201526001600160a01b039091169063f99031a790602401602060405180830381865afa15801561147a573d6000803e3d6000fd5b505050506040513d601f19601f8201168201806040525081019061149e9190615088565b6114ba5760405162461bcd60e51b815260040161112790615176565b82600081116114db5760405162461bcd60e51b815260040161112790615122565b84866114e7828261330d565b6115035760405162461bcd60e51b8152600401611127906151c5565b60d3548890600160a01b900460ff1680611586575060d35460405163f99031a760e01b81526001600160a01b0383811660048301529091169063f99031a790602401602060405180830381865afa158015611562573d6000803e3d6000fd5b505050506040513d601f19601f820116820180604052508101906115869190615088565b6115e75760405162461bcd60e51b815260206004820152602c60248201527f636865636b4f666665724552433732313a20696e76616c6964206e6f7420776860448201526b6974654c697374656421212160a01b6064820152608401611127565b60d454604051636eb1769f60e11b81523360048201523060248201526001600160a01b039091169063dd62ed3e90604401602060405180830381865afa158015611635573d6000803e3d6000fd5b505050506040513d601f19601f82011682018060405250810190611659919061520a565b8711156116b75760405162461bcd60e51b815260206004820152602660248201527f6d616b654f666665723a20616c6c6f77616e636520616d6f756e7420696e76616044820152656c696421212160d01b6064820152608401611127565b6040516331a9108f60e11b8152600481018990526000906001600160a01b038b1690636352211e90602401602060405180830381865afa1580156116ff573d6000803e3d6000fd5b505050506040513d601f19601f820116820180604052508101906117239190615159565b9050336001600160a01b0382160361177d5760405162461bcd60e51b815260206004820181905260248201527f6d616b654f666665723a206d73672e73656e64657220696e76616c69642121216044820152606401611127565b61178561391c565b955060006040518061010001604052808881526020018b81526020018c6001600160a01b03168152602001336001600160a01b03168152602001836001600160a01b031681526020018a81526020018260048111156117e6576117e6614b8e565b81526001600160401b038a16602091820152600089815260d782526040908190208351815591830151600180840191909155908301516002830180546001600160a01b03199081166001600160a01b0393841617909155606085015160038501805483169184169190911790556080850151600480860180549093169190931617905560a0840151600584015560c08401516006840180549193909260ff1990921691849081111561189a5761189a614b8e565b021790555060e09190910151600691820180546001600160401b039092166101000268ffffffffffffffff0019909216919091179055600088815260d760205260409081902090910154905188917ffc2fa40615bf68b23ff1b659d4ff17f090b893686179be2a578df33d78c854a79161191d91339160ff909116904290615223565b60405180910390a2505050505050949350505050565b7f9c603339d9907d999bc41fe34199d3ceb950cadf544d9f81d93d2c9687e2913661195d81613762565b6119795760405162461bcd60e51b8152600401611127906150a5565b61198282613933565b604080516001600160a01b038416815242602082015233917f57eb99cc69335c461d1b2eec66a21eae5e594e2d4b7474220fa7d233459f34bd91015b60405180910390a25050565b60606000805160206155528339815191526119e481613762565b611a005760405162461bcd60e51b8152600401611127906150a5565b611a086135a9565b6001600160401b03811115611a1f57611a1f614a85565b604051908082528060200260200182016040528015611a48578160200160208202803683370190505b5091506000805b60cd548111611ace57600081815260d76020526040902060060154426101009091046001600160401b03161015611abc57600081815260d760205260409020548451859084908110611aa357611aa3615059565b6020908102919091010152611ab9600183615046565b91505b80611ac68161506f565b915050611a4f565b50505090565b600080516020615552833981519152611aec81613762565b611b085760405162461bcd60e51b8152600401611127906150a5565b6000611b126119ca565b905060005b8151811015611b5557611b42828281518110611b3557611b35615059565b60200260200101516139c4565b5080611b4d8161506f565b915050611b17565b505050565b600080516020615552833981519152611b7281613762565b611b8e5760405162461bcd60e51b8152600401611127906150a5565b60d354600160a01b900460ff16151582151503611c095760405162461bcd60e51b815260206004820152603360248201527f757064617465417661696c61626c655365636f6e6461727953616c653a207365604482015272636f6e64617279497320696e76616c6964212160681b6064820152608401611127565b60d3805460ff60a01b1916600160a01b841515908102919091179091556040805191825242602083015233917f265569c899928bd0b5dc775218ba7c92a09c0ec1c1f50f0deefa4420b8b751f091016119be565b6000805b60cd548111611cc2574260d76000611c7a846001615046565b815260208101919091526040016000206006015461010090046001600160401b03161015611cb057611cad600183615046565b91505b80611cba8161506f565b915050611c61565b5090565b6060610c186004611e5a565b60606000611cdf60cd5490565b6001600160401b03811115611cf657611cf6614a85565b604051908082528060200260200182016040528015611d2f57816020015b611d1c6149b0565b815260200190600190039081611d145790505b5090506000805b60cd548111610dda57600060d7818181611d51866001615046565b815260208082019290925260409081016000908120548452838301949094529182019092208151610100810183528154815260018201549381019390935260028101546001600160a01b03908116928401929092526003810154821660608401526004808201549092166080840152600581015460a08401526006810154909350839160c084019160ff1690811115611dec57611dec614b8e565b6004811115611dfd57611dfd614b8e565b81526006919091015461010090046001600160401b03166020909101528451859085908110611e2e57611e2e615059565b6020908102919091010152611e44600184615046565b9250508080611e529061506f565b915050611d36565b60606000611e6783610de2565b6001600160401b03811115611e7e57611e7e614a85565b604051908082528060200260200182016040528015611eb757816020015b611ea46149b0565b815260200190600190039081611e9c5790505b5090506000805b60cd54811161206b57846004811115611ed957611ed9614b8e565b60d76000611ee8846001615046565b815260208101919091526040016000206006015460ff166004811115611f1057611f10614b8e565b1480611f4c57504260d76000611f27846001615046565b815260208101919091526040016000206006015461010090046001600160401b031610155b1561205957600060d781611f61846001615046565b8152602080820192909252604090810160009081205480825260d78452908290208251610100810184528154815260018201549481019490945260028101546001600160a01b03908116938501939093526003810154831660608501526004808201549093166080850152600581015460a085015260068101549194509291839160c084019160ff90911690811115611ffc57611ffc614b8e565b600481111561200d5761200d614b8e565b81526006919091015461010090046001600160401b0316602090910152855186908690811061203e5761203e615059565b6020908102919091010152612054600185615046565b935050505b806120638161506f565b915050611ebe565b50909392505050565b60008051602061555283398151915261208c81613762565b6120a85760405162461bcd60e51b8152600401611127906150a5565b60ce54821061210c5760405162461bcd60e51b815260206004820152602a60248201527f757064617465506c6174666f726d4665653a205f706c6174666f726d46656520604482015269696e76616c696421212160b01b6064820152608401611127565b60d054604080519182526020820184905233917f7ad04190d8993525254253d590d52db30365aba2516536f0dce25604f6c8670c910160405180910390a25060d055565b600090815260d760205260409020600401546001600160a01b0316151590565b60d354600090600160a01b900460ff16806121f2575060d25460405163f99031a760e01b81523360048201526001600160a01b039091169063f99031a790602401602060405180830381865afa1580156121ce573d6000803e3d6000fd5b505050506040513d601f19601f820116820180604052508101906121f29190615088565b61220e5760405162461bcd60e51b815260040161112790615176565b8361221881612150565b6122345760405162461bcd60e51b81526004016111279061524e565b83600081116122555760405162461bcd60e51b815260040161112790615122565b600086815260d76020526040902060058101546004820154600183015460029093015491926001600160a01b0391821692909116612293828261330d565b6122df5760405162461bcd60e51b815260206004820181905260248201527f636f756e7465724f666665723a206e6f74206e667420696e76616c69642121216044820152606401611127565b6122e9828261330d565b6123355760405162461bcd60e51b815260206004820181905260248201527f636f756e7465724f666665723a206e6f74206e667420696e76616c69642121216044820152606401611127565b8884106123845760405162461bcd60e51b815260206004820152601f60248201527f636f756e7465724f666665723a205f707269636520696e76616c6964212121006044820152606401611127565b6001600160a01b03831633146123ac5760405162461bcd60e51b81526004016111279061529b565b6040516331a9108f60e11b81526004810183905233906001600160a01b03831690636352211e90602401602060405180830381865afa1580156123f3573d6000803e3d6000fd5b505050506040513d601f19601f820116820180604052508101906124179190615159565b6001600160a01b03161461247c5760405162461bcd60e51b815260206004820152602660248201527f636f756e7465724f666665723a206e6f74206e6674206f776e657220696e76616044820152656c696421212160d01b6064820152608401611127565b6124918a838b8b6001600160401b0316613a76565b6124ad5760405162461bcd60e51b81526004016111279061529b565b509798975050505050505050565b6124c36149f5565b50600090815260d660209081526040918290208251610100810184528154815260018201549281019290925260028101546001600160a01b039081169383019390935260038101548316606083015260048101549092166080820152600582015460a0820152600682015460c082015260079091015460ff16151560e082015290565b60d354600090600160a01b900460ff16806125c8575060d25460405163f99031a760e01b81523360048201526001600160a01b039091169063f99031a790602401602060405180830381865afa1580156125a4573d6000803e3d6000fd5b505050506040513d601f19601f820116820180604052508101906125c89190615088565b6125e45760405162461bcd60e51b815260040161112790615176565b816125ee81612150565b61260a5760405162461bcd60e51b81526004016111279061524e565b600083815260d760205260409020600181015460028201546003830154600584015460069094015492936001600160a01b0392831693929091169161010090046001600160401b03164211156126a25760405162461bcd60e51b815260206004820152601f60248201527f6163636570744f666665723a206578706972657320696e76616c6964212121006044820152606401611127565b60d454604051636eb1769f60e11b81526001600160a01b0384811660048301523060248301529091169063dd62ed3e90604401602060405180830381865afa1580156126f2573d6000803e3d6000fd5b505050506040513d601f19601f82011682018060405250810190612716919061520a565b8111156127765760405162461bcd60e51b815260206004820152602860248201527f6163636570744f666665723a20616c6c6f77616e636520616d6f756e7420696e60448201526776616c696421212160c01b6064820152608401611127565b6127838785858486613b77565b6127db5760405162461bcd60e51b8152602060048201526024808201527f6163636570744f666665723a205f6163636570744f6666657220696e76616c696044820152636421212160e01b6064820152608401611127565b509495945050505050565b6060610c186003611e5a565b60d354600160a01b900460ff1680612871575060d25460405163f99031a760e01b81523360048201526001600160a01b039091169063f99031a790602401602060405180830381865afa15801561284d573d6000803e3d6000fd5b505050506040513d601f19601f820116820180604052508101906128719190615088565b61288d5760405162461bcd60e51b815260040161112790615176565b600081815260d6602052604090206004015481906001600160a01b03166128c65760405162461bcd60e51b8152600401611127906150d3565b600082815260d660205260409020600301546001600160a01b031633146129395760405162461bcd60e51b815260206004820152602160248201527f63616e63656c4c6973743a206d73672e73656e64657220696e76616c696421216044820152602160f81b6064820152608401611127565b61294282613ccf565b61299a5760405162461bcd60e51b8152602060048201526024808201527f63616e63656c4c6973743a205f63616e63656c4c697374282920696e76616c696044820152636421212160e01b6064820152608401611127565b5050565b6060610c186001611e5a565b60d354600090600160a01b900460ff1680612a2c575060d25460405163f99031a760e01b81523360048201526001600160a01b039091169063f99031a790602401602060405180830381865afa158015612a08573d6000803e3d6000fd5b505050506040513d601f19601f82011682018060405250810190612a2c9190615088565b612a485760405162461bcd60e51b815260040161112790615176565b81612a5281612150565b612a6e5760405162461bcd60e51b81526004016111279061524e565b600083815260d760205260409020600181015460028201546003830154600484015460059094015492936001600160a01b0392831693918316921690338314612b085760405162461bcd60e51b815260206004820152602660248201527f616363657074436f756e7465724f666665723a206f66666572657220696e76616044820152656c696421212160d01b6064820152608401611127565b60d454604051636eb1769f60e11b81523360048201523060248201526001600160a01b039091169063dd62ed3e90604401602060405180830381865afa158015612b56573d6000803e3d6000fd5b505050506040513d601f19601f82011682018060405250810190612b7a919061520a565b811115612be15760405162461bcd60e51b815260206004820152602f60248201527f616363657074436f756e7465724f666665723a20616c6c6f77616e636520616d60448201526e6f756e7420696e76616c696421212160881b6064820152608401611127565b600088815260d7602052604090206006015461010090046001600160401b0316421115612c5f5760405162461bcd60e51b815260206004820152602660248201527f616363657074436f756e7465724f666665723a206578706972657320696e76616044820152656c696421212160d01b6064820152608401611127565b612c6d888686848688613df9565b612cd45760405162461bcd60e51b815260206004820152603260248201527f616363657074436f756e7465724f666665723a205f616363657074436f756e7460448201527165724f6666657220696e76616c696421212160701b6064820152608401611127565b50959695505050505050565b600081815260d6602052604081206004015482906001600160a01b0316612d195760405162461bcd60e51b8152600401611127906150d3565b600083815260d660205260409020600581015460028201546003830154600184015460069094015492936001600160a01b0392831693929091169134851115612da45760405162461bcd60e51b815260206004820152601960248201527f6275793a206d73672e76616c756520696e76616c6964212121000000000000006044820152606401611127565b612dac613efc565b50612dbe88838686338a8760006137ac565b612e015760405162461bcd60e51b81526020600482015260146024820152736275793a205f62757920696e76616c696421212160601b6044820152606401611127565b505050600085815260d660205260409020600701805460ff19166001179055508392505050919050565b6060610c183361360f565b60008486612e44828261330d565b612e605760405162461bcd60e51b8152600401611127906151c5565b8560008111612e815760405162461bcd60e51b815260040161112790615122565b60d354600160a01b900460ff1680612f00575060d25460405163f99031a760e01b81523360048201526001600160a01b039091169063f99031a790602401602060405180830381865afa158015612edc573d6000803e3d6000fd5b505050506040513d601f19601f82011682018060405250810190612f009190615088565b612f1c5760405162461bcd60e51b815260040161112790615176565b612f24613f13565b9350612f34848a8a8a8a8a613f2a565b612f795760405162461bcd60e51b81526020600482015260166024820152756c6973743a205f6c69737420696e76616c696421212160501b6044820152606401611127565b50505095945050505050565b6000600080516020615552833981519152612f9f81613762565b612fbb5760405162461bcd60e51b8152600401611127906150a5565b82612fc581612150565b612fe15760405162461bcd60e51b81526004016111279061524e565b600084815260d7602052604090206006015461010090046001600160401b03164210156130505760405162461bcd60e51b815260206004820181905260248201527f5f6163636570744f666665723a206578706972657320696e76616c69642121216044820152606401611127565b613059846139c4565b6130b35760405162461bcd60e51b815260206004820152602560248201527f5f64656c6574654f666665723a205f64656c6574654f6666657220696e76616c604482015264696421212160d81b6064820152608401611127565b8392505b5050919050565b60d354600090600160a01b900460ff1680613140575060d25460405163f99031a760e01b81523360048201526001600160a01b039091169063f99031a790602401602060405180830381865afa15801561311c573d6000803e3d6000fd5b505050506040513d601f19601f820116820180604052508101906131409190615088565b61315c5760405162461bcd60e51b815260040161112790615176565b8161316681612150565b6131825760405162461bcd60e51b81526004016111279061524e565b600083815260d7602052604090206006015460ff1660048160048111156131ab576131ab614b8e565b141580156131cb575060018160048111156131c8576131c8614b8e565b14155b80156131e9575060038160048111156131e6576131e6614b8e565b14155b6132355760405162461bcd60e51b815260206004820152601e60248201527f63616e63656c4f666665723a2073746174757320696e76616c696421212100006044820152606401611127565b600084815260d760205260409020600301546001600160a01b031633146132a95760405162461bcd60e51b815260206004820152602260248201527f63616e63656c4f666665723a206d73672e73656e64657220696e76616c696421604482015261212160f01b6064820152608401611127565b600084815260d7602052604090819020600601805460ff19166004908117909155905185917f393d8c08f8569dbea90a4bf987f37dca1f47439943849e7eec1755c54d571962916132fd9133914290615223565b60405180910390a2509192915050565b6040516331a9108f60e11b81526004810183905260009081906001600160a01b03841690636352211e90602401602060405180830381865afa158015613357573d6000803e3d6000fd5b505050506040513d601f19601f8201168201806040525081019061337b9190615159565b6001600160a01b031614159392505050565b60006103e861339c84846152de565b6133a691906152f5565b9392505050565b6060610c186002611e5a565b6040516370a0823160e01b81526001600160a01b038281166004830152600091908416906370a0823190602401602060405180830381865afa158015613403573d6000803e3d6000fd5b505050506040513d601f19601f820116820180604052508101906133a6919061520a565b600054610100900460ff16158080156134475750600054600160ff909116105b806134615750303b158015613461575060005460ff166001145b6134c45760405162461bcd60e51b815260206004820152602e60248201527f496e697469616c697a61626c653a20636f6e747261637420697320616c72656160448201526d191e481a5b9a5d1a585b1a5e995960921b6064820152608401611127565b6000805460ff1916600117905580156134e7576000805461ff0019166101001790555b6134f08561422b565b6134f861425e565b61350061428f565b6135086142b6565b60d480546001600160a01b038085166001600160a01b03199283161790925560d18054821633179055600060d05560d3805460d280548986169416939093179092559185166001600160a81b031990911617905580156135a2576000805461ff0019169055604051600181527f7f26b83ff96e1f2b6a682f133852f6798a09c465da95921460cefb38474024989060200160405180910390a15b5050505050565b6000805b60cd54811015611cc2574260d760006135c7846001615046565b815260208101919091526040016000206006015461010090046001600160401b031610156135fd576135fa600183615046565b91505b806136078161506f565b9150506135ad565b606061361a82611221565b6001600160401b0381111561363157613631614a85565b60405190808252806020026020018201604052801561366a57816020015b6136576149f5565b81526020019060019003908161364f5790505b5090506000805b60cb5481116130b757600081815260d660205260409020600401546001600160a01b0380861691160361375057600081815260d660209081526040808320548352918290208251610100810184528154815260018201549281019290925260028101546001600160a01b039081169383019390935260038101548316606083015260048101549092166080820152600582015460a0820152600682015460c082015260079091015460ff16151560e0820152835184908490811061373757613737615059565b602090810291909101015261374d600183615046565b91505b8061375a8161506f565b915050613671565b60335461ffff16600090815260346020526040808220549051632474521560e21b8152600481018490523360248201526001600160a01b03909116906391d1485490604401610ea0565b6040516323b872dd60e01b81526000906001600160a01b038816906323b872dd906137df90309089908d90600401615317565b600060405180830381600087803b1580156137f957600080fd5b505af115801561380d573d6000803e3d6000fd5b506000925061381a915050565b82600181111561382c5761382c614b8e565b0361388a5761383e88888887876142e5565b61388a5760405162461bcd60e51b815260206004820152601860248201527f6275793a205f7061796d656e7420696e76616c696421212100000000000000006044820152606401611127565b600089815260d6602052604080822060040180546001600160a01b0319166001600160a01b03898116919091179091558a83528183206003015491518a8216938c938e937f9194014a52f8fccd7a53e8bef7bd2871f62c9e8e1514b6db811452bb19dc5416936139059392909116918c918c9160019161533b565b60405180910390a450600198975050505050505050565b600061392c60cd80546001019055565b5060cd5490565b6033805461ffff1690600061394783615382565b82546101009290920a61ffff81810219909316918316021790915560338054821660009081526034602052604080822080546001600160a01b0319166001600160a01b03881690811790915592549051929450909216917f99dc7b1f61f499c4a87b84658707d2ba9daa47dd709e2262054daae5108deb6391a350565b600081815260d76020526040808220828155600181018390556002810180546001600160a01b031990811690915560038201805482169055600482018054909116905560058101839055600601805468ffffffffffffffffff191690819055905183917f6f689da3fe021518f037bb7dadfa1287c9b67de50eb7eb72dadd75d4fae05ec391613a669185916101009091046001600160401b03169042906153a3565b60405180910390a2506001919050565b600084815260d7602052604080822060020154905163095ea7b360e01b8152306004820152602481018690526001600160a01b039091169063095ea7b390604401600060405180830381600087803b158015613ad157600080fd5b505af1158015613ae5573d6000803e3d6000fd5b505050600086815260d760205260409081902060058101869055600601805468ffffffffffffffffff19166101006001600160401b03871602908117600290811790925591518893507f460026d5da4332aaa4ca2b76ba23df93e63c6a6115d955727f76215760293c4d92613b6492339260ff90921617904290615223565b60405180910390a2506001949350505050565b6000613b858585848661450c565b613bdb5760405162461bcd60e51b815260206004820152602160248201527f5f6163636570744f666665723a205f7061796d656e7420696e76616c696421216044820152602160f81b6064820152608401611127565b604051632142170760e11b81526001600160a01b038516906342842e0e90613c0b90339086908a90600401615317565b600060405180830381600087803b158015613c2557600080fd5b505af1158015613c39573d6000803e3d6000fd5b505050600087815260d76020526040908190206003810180546004830180546001600160a01b0383166001600160a01b031991821617909155169055600601805460ff1916600190811790915590518892507fa9e0c35ae4e29036e5cac2f9b29898c13ed2acc8a8aca7dd4becd5818e56527591613cbb913391904290615223565b60405180910390a250600195945050505050565b600081815260d66020526040808220600281015460019091015491516323b872dd60e01b81526001600160a01b03909116916323b872dd91613d18913091339190600401615317565b600060405180830381600087803b158015613d3257600080fd5b505af1158015613d46573d6000803e3d6000fd5b505050600083815260d660209081526040808320838155600181018490556002810180546001600160a01b03199081169091556003820180548216905560048201805490911690556005810184905560068101849055600701805460ff1916905580518381529182018390528101829052426060820152909150819084907f6459be5ca8d62ddfc5139ea89414b0c990fba359e657e29e57139410edd4c1bf9060800160405180910390a4506001919050565b604051632142170760e11b81526000906001600160a01b038616906342842e0e90613e2c90869033908b90600401615317565b600060405180830381600087803b158015613e4657600080fd5b505af1158015613e5a573d6000803e3d6000fd5b50505050613e6a8686848761450c565b50600087815260d7602052604090819020600380820180546004840180546001600160a01b0383166001600160a01b0319918216179091551690556006909101805460ff191682179055905188917f077ea812c431861c079cfc99f4bc49b07d5f469979130bfc8771afc625dd7c8691613ee79133914290615223565b60405180910390a25060019695505050505050565b6000613f0c60cc80546001019055565b5060cc5490565b6000613f2360cb80546001019055565b5060cb5490565b6040516331a9108f60e11b81526004810185905260009030906001600160a01b03881690636352211e90602401602060405180830381865afa158015613f74573d6000803e3d6000fd5b505050506040513d601f19601f82011682018060405250810190613f989190615159565b6001600160a01b0316146140695760405163095ea7b360e01b8152306004820152602481018690526001600160a01b0387169063095ea7b390604401600060405180830381600087803b158015613fee57600080fd5b505af1158015614002573d6000803e3d6000fd5b5050604051632142170760e11b81526001600160a01b03891692506342842e0e915061403690339030908a90600401615317565b600060405180830381600087803b15801561405057600080fd5b505af1158015614064573d6000803e3d6000fd5b505050505b604051806101000160405280888152602001868152602001876001600160a01b03168152602001836001600160a01b03168152602001306001600160a01b031681526020018581526020018481526020016000151581525060d66000898152602001908152602001600020600082015181600001556020820151816001015560408201518160020160006101000a8154816001600160a01b0302191690836001600160a01b0316021790555060608201518160030160006101000a8154816001600160a01b0302191690836001600160a01b0316021790555060808201518160040160006101000a8154816001600160a01b0302191690836001600160a01b0316021790555060a0820151816005015560c0820151816006015560e08201518160070160006101000a81548160ff021916908315150217905550905050856001600160a01b031685887f432a4cd8a68fdbb94bced1715a780cf3a5a3a91f15e78db470a7c2af737487eb8530898960006040516142169594939291906001600160a01b03958616815293909416602084015260408301919091526060820152901515608082015260a00190565b60405180910390a45060019695505050505050565b600054610100900460ff166142525760405162461bcd60e51b8152600401611127906153cb565b61425b81614779565b50565b600054610100900460ff166142855760405162461bcd60e51b8152600401611127906153cb565b61428d6147d5565b565b600054610100900460ff1661428d5760405162461bcd60e51b8152600401611127906153cb565b600054610100900460ff166142dd5760405162461bcd60e51b8152600401611127906153cb565b61428d614803565b6000808260d05411156142fb575060d0546142fe565b50815b60405163152a902d60e11b8152600481018890526024810185905260009081906001600160a01b03891690632a55205a906044016040805180830381865afa15801561434e573d6000803e3d6000fd5b505050506040513d601f19601f820116820180604052508101906143729190615416565b9150915061438282826000614836565b6143dd5760405162461bcd60e51b815260206004820152602660248201527f5f7061796d656e743a205f726f79616c746965735061796d656e7420696e76616044820152656c696421212160d01b6064820152608401611127565b6040516001600160a01b0383169082156108fc029083906000818181858888f19350505050158015614413573d6000803e3d6000fd5b50600061442260d0548861338d565b60d1546040519192506001600160a01b03169082156108fc029083906000818181858888f1935050505015801561445d573d6000803e3d6000fd5b506001600160a01b0388166108fc82614476858b615444565b6144809190615444565b6040518115909202916000818181858888f193505050501580156144a8573d6000803e3d6000fd5b5060d1546040518b917fdf6685552cf79029c97448d90fdc1e57a3bdf4da51137927123ae6767912426d916144f4918d918d9133918e916001600160a01b03169089908c908c90615457565b60405180910390a25060019998505050505050505050565b60d05460405163152a902d60e11b8152600481018690526024810183905260009190829081906001600160a01b03881690632a55205a906044016040805180830381865afa158015614562573d6000803e3d6000fd5b505050506040513d601f19601f820116820180604052508101906145869190615416565b915091506000614596848761338d565b60d45460d1546040516323b872dd60e01b81529293506001600160a01b03918216926323b872dd926145d1928c929116908690600401615317565b6020604051808303816000875af11580156145f0573d6000803e3d6000fd5b505050506040513d601f19601f820116820180604052508101906146149190615088565b5060d4546040516323b872dd60e01b81526001600160a01b03909116906323b872dd90614649908a9087908790600401615317565b6020604051808303816000875af1158015614668573d6000803e3d6000fd5b505050506040513d601f19601f8201168201806040525081019061468c9190615088565b5060d4546001600160a01b03166323b872dd8830846146ab878c615444565b6146b59190615444565b6040518463ffffffff1660e01b81526004016146d393929190615317565b6020604051808303816000875af11580156146f2573d6000803e3d6000fd5b505050506040513d601f19601f820116820180604052508101906147169190615088565b5060d1546040518a917fdf6685552cf79029c97448d90fdc1e57a3bdf4da51137927123ae6767912426d91614762918c9130918d918d916001600160a01b03169089908c908c90615457565b60405180910390a250600198975050505050505050565b600054610100900460ff166147a05760405162461bcd60e51b8152600401611127906153cb565b60335461ffff16600090815260346020526040902080546001600160a01b0319166001600160a01b0392909216919091179055565b600054610100900460ff166147fc5760405162461bcd60e51b8152600401611127906153cb565b6001603555565b600054610100900460ff1661482a5760405162461bcd60e51b8152600401611127906153cb565b6099805460ff19169055565b6040516000906001600160a01b0385169084156108fc0290859084818181858888f1935050505015801561486e573d6000803e3d6000fd5b50833b80156149a55761488085610e63565b156149a5576001600160a01b0383166149a5576000856001600160a01b03166327f381136040518163ffffffff1660e01b8152600401600060405180830381865afa1580156148d3573d6000803e3d6000fd5b505050506040513d6000823e601f3d908101601f191682016040526148fb91908101906154a0565b905060005b81518110156149a257866001600160a01b0316631916558783838151811061492a5761492a615059565b60200260200101516040518263ffffffff1660e01b815260040161495d91906001600160a01b0391909116815260200190565b600060405180830381600087803b15801561497757600080fd5b505af115801561498b573d6000803e3d6000fd5b50505050808061499a9061506f565b915050614900565b50505b506001949350505050565b6040805161010081018252600080825260208201819052918101829052606081018290526080810182905260a081018290529060c08201908152600060209091015290565b604051806101000160405280600081526020016000815260200160006001600160a01b0316815260200160006001600160a01b0316815260200160006001600160a01b0316815260200160008152602001600081526020016000151581525090565b600060208284031215614a6957600080fd5b5035919050565b6001600160a01b038116811461425b57600080fd5b634e487b7160e01b600052604160045260246000fd5b604051601f8201601f191681016001600160401b0381118282101715614ac357614ac3614a85565b604052919050565b60008060008060808587031215614ae157600080fd5b8435614aec81614a70565b9350602085810135614afd81614a70565b93506040860135925060608601356001600160401b0380821115614b2057600080fd5b818801915088601f830112614b3457600080fd5b813581811115614b4657614b46614a85565b614b58601f8201601f19168501614a9b565b91508082528984828501011115614b6e57600080fd5b808484018584013760008482840101525080935050505092959194509250565b634e487b7160e01b600052602160045260246000fd5b60058110614bb457614bb4614b8e565b9052565b602080825282518282018190526000919060409081850190868401855b82811015614c5b578151805185528681015187860152858101516001600160a01b03908116878701526060808301518216908701526080808301519091169086015260a0808201519086015260c080820151614c3382880182614ba4565b505060e0908101516001600160401b0316908501526101009093019290850190600101614bd5565b5091979650505050505050565b600060208284031215614c7a57600080fd5b8135600581106133a657600080fd5b600060208284031215614c9b57600080fd5b81356133a681614a70565b8051825260208101516020830152604081015160018060a01b038082166040850152806060840151166060850152806080840151166080850152505060a081015160a083015260c081015160c083015260e0810151151560e08301525050565b6020808252825182820181905260009190848201906040850190845b81811015614d4957614d35838551614ca6565b928401926101009290920191600101614d22565b50909695505050505050565b600060208083528351808285015260005b81811015614d8257858101830151858201604001528201614d66565b506000604082860101526040601f19601f8301168501019250505092915050565b60008060408385031215614db657600080fd5b8235614dc181614a70565b946020939093013593505050565b80356001600160401b0381168114614de657600080fd5b919050565b60008060008060808587031215614e0157600080fd5b8435614e0c81614a70565b93506020850135925060408501359150614e2860608601614dcf565b905092959194509250565b6020808252825182820181905260009190848201906040850190845b81811015614d4957835183529284019291840191600101614e4f565b801515811461425b57600080fd5b600060208284031215614e8b57600080fd5b81356133a681614e6b565b600060208284031215614ea857600080fd5b813561ffff811681146133a657600080fd5b600080600060608486031215614ecf57600080fd5b8335925060208401359150614ee660408501614dcf565b90509250925092565b6101008101610ee18284614ca6565b600080600080600060a08688031215614f1657600080fd5b8535614f2181614a70565b94506020860135935060408601359250606086013591506080860135614f4681614a70565b809150509295509295909350565b60008060408385031215614f6757600080fd5b823591506020830135614f7981614a70565b809150509250929050565b60008060408385031215614f9757600080fd5b50508035926020909101359150565b60008060408385031215614fb957600080fd5b8235614fc481614a70565b91506020830135614f7981614a70565b60008060008060808587031215614fea57600080fd5b8435614ff581614a70565b9350602085013561500581614a70565b9250604085013561501581614a70565b9150606085013561502581614a70565b939692955090935050565b634e487b7160e01b600052601160045260246000fd5b80820180821115610ee157610ee1615030565b634e487b7160e01b600052603260045260246000fd5b60006001820161508157615081615030565b5060010190565b60006020828403121561509a57600080fd5b81516133a681614e6b565b60208082526014908201527337379030b1b1b2b9b9903832b936b4b9b9b4b7b760611b604082015260600190565b6020808252602f908201527f636865636b4d61726b65744578697374733a20696e76616c6964206e6f74206c60408201526e6973746564206d61726b657421212160881b606082015260800190565b6020808252601c908201527f636865636b50726963653a20696e76616c696420707269636521212100000000604082015260600190565b60006020828403121561516b57600080fd5b81516133a681614a70565b6020808252602f908201527f636865636b5365636f6e6461727953616c65733a20696e76616c69642073656360408201526e6f6e646172792073616c657321212160881b606082015260800190565b60208082526025908201527f636865636b4572633732314578697374733a20696e76616c6964206e6f74206e604082015264667421212160d81b606082015260800190565b60006020828403121561521c57600080fd5b5051919050565b6001600160a01b0384168152606081016152406020830185614ba4565b826040830152949350505050565b6020808252602d908201527f636865636b4f666665724578697374733a20696e76616c6964206e6f74206f6660408201526c666572206d61726b657421212160981b606082015260800190565b60208082526023908201527f636f756e7465724f666665723a206d73672e73656e64657220696e76616c696460408201526221212160e81b606082015260800190565b8082028115828204841417610ee157610ee1615030565b60008261531257634e487b7160e01b600052601260045260246000fd5b500490565b6001600160a01b039384168152919092166020820152604081019190915260600190565b6001600160a01b0386811682528516602082015260408101849052821515606082015260a081016002831061537257615372614b8e565b8260808301529695505050505050565b600061ffff80831681810361539957615399615030565b6001019392505050565b606081016153b18286614ba4565b6001600160401b0393909316602082015260400152919050565b6020808252602b908201527f496e697469616c697a61626c653a20636f6e7472616374206973206e6f74206960408201526a6e697469616c697a696e6760a81b606082015260800190565b6000806040838503121561542957600080fd5b825161543481614a70565b6020939093015192949293505050565b81810381811115610ee157610ee1615030565b6001600160a01b039889168152968816602088015294871660408701526060860193909352908516608085015260a084015290921660c082015260e08101919091526101000190565b600060208083850312156154b357600080fd5b82516001600160401b03808211156154ca57600080fd5b818501915085601f8301126154de57600080fd5b8151818111156154f0576154f0614a85565b8060051b9150615501848301614a9b565b818152918301840191848101908884111561551b57600080fd5b938501935b83851015615545578451925061553583614a70565b8282529385019390850190615520565b9897505050505050505056fe0ea61da3a8a09ad801432653699f8c1860b1ae9d2ea4a141fadfd63227717bc8a26469706673582212208eec6b29979d7c7a9e16195c3832253b4dccd73540e332ee597a0194a235a37664736f6c63430008130033",
  "linkReferences": {},
  "deployedLinkReferences": {}
}