{
  "_format": "hh-sol-artifact-1",
  "contractName": "FaniqueERC721",
  "sourceName": "contracts/NonFungibleToken/FaniqueERC721.sol",
  "abi": [
    {
      "inputs": [
        {
          "internalType": "address",
          "name": "operator",
          "type": "address"
        }
      ],
      "name": "OperatorNotAllowed",
      "type": "error"
    },
    {
      "anonymous": false,
      "inputs": [
        {
          "indexed": true,
          "internalType": "uint16",
          "name": "version",
          "type": "uint16"
        },
        {
          "indexed": true,
          "internalType": "contract AccessControlUpgradeable",
          "name": "accessController",
          "type": "address"
        }
      ],
      "name": "AccessControlUpdated",
      "type": "event"
    },
    {
      "anonymous": false,
      "inputs": [
        {
          "indexed": true,
          "internalType": "address",
          "name": "owner",
          "type": "address"
        },
        {
          "indexed": true,
          "internalType": "address",
          "name": "approved",
          "type": "address"
        },
        {
          "indexed": true,
          "internalType": "uint256",
          "name": "tokenId",
          "type": "uint256"
        }
      ],
      "name": "Approval",
      "type": "event"
    },
    {
      "anonymous": false,
      "inputs": [
        {
          "indexed": true,
          "internalType": "address",
          "name": "owner",
          "type": "address"
        },
        {
          "indexed": true,
          "internalType": "address",
          "name": "operator",
          "type": "address"
        },
        {
          "indexed": false,
          "internalType": "bool",
          "name": "approved",
          "type": "bool"
        }
      ],
      "name": "ApprovalForAll",
      "type": "event"
    },
    {
      "anonymous": false,
      "inputs": [
        {
          "indexed": false,
          "internalType": "uint8",
          "name": "version",
          "type": "uint8"
        }
      ],
      "name": "Initialized",
      "type": "event"
    },
    {
      "anonymous": false,
      "inputs": [
        {
          "indexed": false,
          "internalType": "address",
          "name": "account",
          "type": "address"
        }
      ],
      "name": "Paused",
      "type": "event"
    },
    {
      "anonymous": false,
      "inputs": [
        {
          "indexed": true,
          "internalType": "address",
          "name": "from",
          "type": "address"
        },
        {
          "indexed": true,
          "internalType": "address",
          "name": "to",
          "type": "address"
        },
        {
          "indexed": true,
          "internalType": "uint256",
          "name": "tokenId",
          "type": "uint256"
        }
      ],
      "name": "Transfer",
      "type": "event"
    },
    {
      "anonymous": false,
      "inputs": [
        {
          "indexed": false,
          "internalType": "address",
          "name": "account",
          "type": "address"
        }
      ],
      "name": "Unpaused",
      "type": "event"
    },
    {
      "inputs": [],
      "name": "ACCESS_ROLE",
      "outputs": [
        {
          "internalType": "bytes32",
          "name": "",
          "type": "bytes32"
        }
      ],
      "stateMutability": "view",
      "type": "function"
    },
    {
      "inputs": [],
      "name": "AccessControlVersion",
      "outputs": [
        {
          "internalType": "uint16",
          "name": "",
          "type": "uint16"
        }
      ],
      "stateMutability": "view",
      "type": "function"
    },
    {
      "inputs": [],
      "name": "MINTER_ROLE",
      "outputs": [
        {
          "internalType": "bytes32",
          "name": "",
          "type": "bytes32"
        }
      ],
      "stateMutability": "view",
      "type": "function"
    },
    {
      "inputs": [],
      "name": "OPERATOR_FILTER_REGISTRY",
      "outputs": [
        {
          "internalType": "contract IOperatorFilterRegistry",
          "name": "",
          "type": "address"
        }
      ],
      "stateMutability": "view",
      "type": "function"
    },
    {
      "inputs": [
        {
          "internalType": "uint16",
          "name": "",
          "type": "uint16"
        }
      ],
      "name": "accessController",
      "outputs": [
        {
          "internalType": "contract AccessControlUpgradeable",
          "name": "",
          "type": "address"
        }
      ],
      "stateMutability": "view",
      "type": "function"
    },
    {
      "inputs": [
        {
          "internalType": "address",
          "name": "to",
          "type": "address"
        },
        {
          "internalType": "uint256",
          "name": "tokenId",
          "type": "uint256"
        }
      ],
      "name": "approve",
      "outputs": [],
      "stateMutability": "nonpayable",
      "type": "function"
    },
    {
      "inputs": [],
      "name": "availableSecondarySale",
      "outputs": [
        {
          "internalType": "enum FaniqueERC721.OpenTo",
          "name": "",
          "type": "uint8"
        }
      ],
      "stateMutability": "view",
      "type": "function"
    },
    {
      "inputs": [
        {
          "internalType": "address",
          "name": "owner",
          "type": "address"
        }
      ],
      "name": "balanceOf",
      "outputs": [
        {
          "internalType": "uint256",
          "name": "",
          "type": "uint256"
        }
      ],
      "stateMutability": "view",
      "type": "function"
    },
    {
      "inputs": [],
      "name": "broncosCoin",
      "outputs": [
        {
          "internalType": "contract ERC20Upgradeable",
          "name": "",
          "type": "address"
        }
      ],
      "stateMutability": "view",
      "type": "function"
    },
    {
      "inputs": [
        {
          "internalType": "address[]",
          "name": "to",
          "type": "address[]"
        },
        {
          "internalType": "string[]",
          "name": "_tokenUri",
          "type": "string[]"
        },
        {
          "internalType": "uint256[]",
          "name": "_level",
          "type": "uint256[]"
        },
        {
          "internalType": "string[]",
          "name": "_status",
          "type": "string[]"
        },
        {
          "internalType": "uint256[]",
          "name": "_expires",
          "type": "uint256[]"
        }
      ],
      "name": "bulkSafeMint",
      "outputs": [],
      "stateMutability": "nonpayable",
      "type": "function"
    },
    {
      "inputs": [
        {
          "internalType": "uint256",
          "name": "_tokenId",
          "type": "uint256"
        }
      ],
      "name": "burn",
      "outputs": [],
      "stateMutability": "nonpayable",
      "type": "function"
    },
    {
      "inputs": [
        {
          "internalType": "uint256",
          "name": "tokenId",
          "type": "uint256"
        }
      ],
      "name": "exists",
      "outputs": [
        {
          "internalType": "bool",
          "name": "",
          "type": "bool"
        }
      ],
      "stateMutability": "view",
      "type": "function"
    },
    {
      "inputs": [
        {
          "internalType": "uint256",
          "name": "tokenId",
          "type": "uint256"
        }
      ],
      "name": "getApproved",
      "outputs": [
        {
          "internalType": "address",
          "name": "",
          "type": "address"
        }
      ],
      "stateMutability": "view",
      "type": "function"
    },
    {
      "inputs": [
        {
          "internalType": "uint256",
          "name": "_tokenId",
          "type": "uint256"
        }
      ],
      "name": "getErc721",
      "outputs": [
        {
          "internalType": "string",
          "name": "_uri",
          "type": "string"
        },
        {
          "internalType": "uint256",
          "name": "_level",
          "type": "uint256"
        },
        {
          "internalType": "string",
          "name": "_status",
          "type": "string"
        },
        {
          "internalType": "uint256",
          "name": "_expires",
          "type": "uint256"
        }
      ],
      "stateMutability": "view",
      "type": "function"
    },
    {
      "inputs": [
        {
          "internalType": "contract AccessControlUpgradeable",
          "name": "_accessControler",
          "type": "address"
        },
        {
          "internalType": "string",
          "name": "_name",
          "type": "string"
        },
        {
          "internalType": "string",
          "name": "_symbol",
          "type": "string"
        },
        {
          "internalType": "contract FaniqueMarketplace",
          "name": "_marketplace",
          "type": "address"
        },
        {
          "internalType": "contract IFaniqueWhiteListUpgradeable",
          "name": "_secondaryMarketWhiteList",
          "type": "address"
        },
        {
          "internalType": "contract ERC20Upgradeable",
          "name": "_broncosCoin",
          "type": "address"
        }
      ],
      "name": "initialize",
      "outputs": [],
      "stateMutability": "nonpayable",
      "type": "function"
    },
    {
      "inputs": [
        {
          "internalType": "address",
          "name": "owner",
          "type": "address"
        },
        {
          "internalType": "address",
          "name": "operator",
          "type": "address"
        }
      ],
      "name": "isApprovedForAll",
      "outputs": [
        {
          "internalType": "bool",
          "name": "",
          "type": "bool"
        }
      ],
      "stateMutability": "view",
      "type": "function"
    },
    {
      "inputs": [
        {
          "internalType": "address",
          "name": "addr",
          "type": "address"
        }
      ],
      "name": "isEOA",
      "outputs": [
        {
          "internalType": "bool",
          "name": "",
          "type": "bool"
        }
      ],
      "stateMutability": "view",
      "type": "function"
    },
    {
      "inputs": [
        {
          "internalType": "address",
          "name": "_to",
          "type": "address"
        }
      ],
      "name": "isOpenToSecondarySales",
      "outputs": [
        {
          "internalType": "bool",
          "name": "ruslut",
          "type": "bool"
        }
      ],
      "stateMutability": "view",
      "type": "function"
    },
    {
      "inputs": [
        {
          "internalType": "uint256",
          "name": "_tokenId",
          "type": "uint256"
        }
      ],
      "name": "isRoyaltyReceiverPaymentSplitter",
      "outputs": [
        {
          "internalType": "bool",
          "name": "",
          "type": "bool"
        }
      ],
      "stateMutability": "view",
      "type": "function"
    },
    {
      "inputs": [
        {
          "internalType": "string",
          "name": "_tokenUri",
          "type": "string"
        },
        {
          "internalType": "uint256",
          "name": "_level",
          "type": "uint256"
        },
        {
          "internalType": "string",
          "name": "_status",
          "type": "string"
        },
        {
          "internalType": "uint256",
          "name": "_expires",
          "type": "uint256"
        },
        {
          "internalType": "uint256",
          "name": "_price",
          "type": "uint256"
        },
        {
          "internalType": "uint256",
          "name": "_fee",
          "type": "uint256"
        },
        {
          "internalType": "address",
          "name": "_seller",
          "type": "address"
        }
      ],
      "name": "lazyMint",
      "outputs": [
        {
          "internalType": "uint256",
          "name": "tokenId",
          "type": "uint256"
        },
        {
          "internalType": "uint256",
          "name": "marketplaceId",
          "type": "uint256"
        }
      ],
      "stateMutability": "nonpayable",
      "type": "function"
    },
    {
      "inputs": [
        {
          "internalType": "string",
          "name": "_tokenUri",
          "type": "string"
        },
        {
          "internalType": "uint256",
          "name": "_level",
          "type": "uint256"
        },
        {
          "internalType": "string",
          "name": "_status",
          "type": "string"
        },
        {
          "internalType": "uint256",
          "name": "_expires",
          "type": "uint256"
        },
        {
          "internalType": "uint256",
          "name": "_price",
          "type": "uint256"
        },
        {
          "internalType": "uint256",
          "name": "_fee",
          "type": "uint256"
        },
        {
          "internalType": "address",
          "name": "_seller",
          "type": "address"
        },
        {
          "internalType": "address[]",
          "name": "_receivers",
          "type": "address[]"
        },
        {
          "internalType": "uint256[]",
          "name": "_percentages",
          "type": "uint256[]"
        }
      ],
      "name": "lazyMintWithRoyalty",
      "outputs": [
        {
          "internalType": "uint256",
          "name": "tokenId",
          "type": "uint256"
        }
      ],
      "stateMutability": "nonpayable",
      "type": "function"
    },
    {
      "inputs": [
        {
          "internalType": "uint256",
          "name": "_tokenId",
          "type": "uint256"
        },
        {
          "internalType": "uint256",
          "name": "_level",
          "type": "uint256"
        }
      ],
      "name": "levelUp",
      "outputs": [],
      "stateMutability": "nonpayable",
      "type": "function"
    },
    {
      "inputs": [
        {
          "internalType": "uint256",
          "name": "_tokenId",
          "type": "uint256"
        },
        {
          "internalType": "uint256",
          "name": "_level",
          "type": "uint256"
        },
        {
          "internalType": "address",
          "name": "_owner",
          "type": "address"
        },
        {
          "internalType": "uint256",
          "name": "_amount",
          "type": "uint256"
        }
      ],
      "name": "levelUpAndReceipt",
      "outputs": [],
      "stateMutability": "nonpayable",
      "type": "function"
    },
    {
      "inputs": [],
      "name": "marketplace",
      "outputs": [
        {
          "internalType": "contract FaniqueMarketplace",
          "name": "",
          "type": "address"
        }
      ],
      "stateMutability": "view",
      "type": "function"
    },
    {
      "inputs": [],
      "name": "name",
      "outputs": [
        {
          "internalType": "string",
          "name": "",
          "type": "string"
        }
      ],
      "stateMutability": "view",
      "type": "function"
    },
    {
      "inputs": [],
      "name": "nextTokenID",
      "outputs": [
        {
          "internalType": "uint256",
          "name": "",
          "type": "uint256"
        }
      ],
      "stateMutability": "view",
      "type": "function"
    },
    {
      "inputs": [
        {
          "internalType": "uint256",
          "name": "tokenId",
          "type": "uint256"
        }
      ],
      "name": "ownerOf",
      "outputs": [
        {
          "internalType": "address",
          "name": "",
          "type": "address"
        }
      ],
      "stateMutability": "view",
      "type": "function"
    },
    {
      "inputs": [],
      "name": "paused",
      "outputs": [
        {
          "internalType": "bool",
          "name": "",
          "type": "bool"
        }
      ],
      "stateMutability": "view",
      "type": "function"
    },
    {
      "inputs": [
        {
          "internalType": "uint256",
          "name": "_tokenId",
          "type": "uint256"
        },
        {
          "internalType": "uint256",
          "name": "_salePrice",
          "type": "uint256"
        }
      ],
      "name": "royaltyInfo",
      "outputs": [
        {
          "internalType": "address",
          "name": "",
          "type": "address"
        },
        {
          "internalType": "uint256",
          "name": "",
          "type": "uint256"
        }
      ],
      "stateMutability": "view",
      "type": "function"
    },
    {
      "inputs": [
        {
          "internalType": "address",
          "name": "_to",
          "type": "address"
        },
        {
          "internalType": "string",
          "name": "_tokenUri",
          "type": "string"
        },
        {
          "internalType": "uint256",
          "name": "_level",
          "type": "uint256"
        },
        {
          "internalType": "string",
          "name": "_status",
          "type": "string"
        },
        {
          "internalType": "uint256",
          "name": "_expires",
          "type": "uint256"
        }
      ],
      "name": "safeMint",
      "outputs": [
        {
          "internalType": "uint256",
          "name": "",
          "type": "uint256"
        }
      ],
      "stateMutability": "nonpayable",
      "type": "function"
    },
    {
      "inputs": [
        {
          "internalType": "address",
          "name": "_to",
          "type": "address"
        },
        {
          "internalType": "string",
          "name": "_tokenUri",
          "type": "string"
        },
        {
          "internalType": "uint256",
          "name": "_level",
          "type": "uint256"
        },
        {
          "internalType": "string",
          "name": "_status",
          "type": "string"
        },
        {
          "internalType": "uint256",
          "name": "_expires",
          "type": "uint256"
        },
        {
          "internalType": "address[]",
          "name": "_receivers",
          "type": "address[]"
        },
        {
          "internalType": "uint256[]",
          "name": "_percentages",
          "type": "uint256[]"
        }
      ],
      "name": "safeMintWithRoyalty",
      "outputs": [
        {
          "internalType": "uint256",
          "name": "",
          "type": "uint256"
        }
      ],
      "stateMutability": "nonpayable",
      "type": "function"
    },
    {
      "inputs": [
        {
          "internalType": "address",
          "name": "from",
          "type": "address"
        },
        {
          "internalType": "address",
          "name": "to",
          "type": "address"
        },
        {
          "internalType": "uint256",
          "name": "tokenId",
          "type": "uint256"
        }
      ],
      "name": "safeTransferFrom",
      "outputs": [],
      "stateMutability": "nonpayable",
      "type": "function"
    },
    {
      "inputs": [
        {
          "internalType": "address",
          "name": "from",
          "type": "address"
        },
        {
          "internalType": "address",
          "name": "to",
          "type": "address"
        },
        {
          "internalType": "uint256",
          "name": "tokenId",
          "type": "uint256"
        },
        {
          "internalType": "bytes",
          "name": "data",
          "type": "bytes"
        }
      ],
      "name": "safeTransferFrom",
      "outputs": [],
      "stateMutability": "nonpayable",
      "type": "function"
    },
    {
      "inputs": [
        {
          "internalType": "contract AccessControlUpgradeable",
          "name": "newaccessControler",
          "type": "address"
        }
      ],
      "name": "setAccessControler",
      "outputs": [],
      "stateMutability": "nonpayable",
      "type": "function"
    },
    {
      "inputs": [
        {
          "internalType": "address",
          "name": "operator",
          "type": "address"
        },
        {
          "internalType": "bool",
          "name": "approved",
          "type": "bool"
        }
      ],
      "name": "setApprovalForAll",
      "outputs": [],
      "stateMutability": "nonpayable",
      "type": "function"
    },
    {
      "inputs": [
        {
          "internalType": "address",
          "name": "receiver",
          "type": "address"
        },
        {
          "internalType": "uint96",
          "name": "feeNumerator",
          "type": "uint96"
        }
      ],
      "name": "setDefaultRoyalty",
      "outputs": [],
      "stateMutability": "nonpayable",
      "type": "function"
    },
    {
      "inputs": [
        {
          "internalType": "uint256",
          "name": "_tokenId",
          "type": "uint256"
        },
        {
          "internalType": "string",
          "name": "_tokenURI",
          "type": "string"
        }
      ],
      "name": "setTokenURI",
      "outputs": [],
      "stateMutability": "nonpayable",
      "type": "function"
    },
    {
      "inputs": [
        {
          "internalType": "uint256",
          "name": "_tokenId",
          "type": "uint256"
        },
        {
          "internalType": "string",
          "name": "_status",
          "type": "string"
        }
      ],
      "name": "statusUp",
      "outputs": [],
      "stateMutability": "nonpayable",
      "type": "function"
    },
    {
      "inputs": [
        {
          "internalType": "uint256",
          "name": "_tokenId",
          "type": "uint256"
        },
        {
          "internalType": "string",
          "name": "_status",
          "type": "string"
        },
        {
          "internalType": "address",
          "name": "_owner",
          "type": "address"
        },
        {
          "internalType": "uint256",
          "name": "_amount",
          "type": "uint256"
        }
      ],
      "name": "statusUpAndReceipt",
      "outputs": [],
      "stateMutability": "nonpayable",
      "type": "function"
    },
    {
      "inputs": [
        {
          "internalType": "uint256[]",
          "name": "_percentages",
          "type": "uint256[]"
        }
      ],
      "name": "sum",
      "outputs": [
        {
          "internalType": "uint256",
          "name": "percentagesSum",
          "type": "uint256"
        }
      ],
      "stateMutability": "pure",
      "type": "function"
    },
    {
      "inputs": [
        {
          "internalType": "bytes4",
          "name": "interfaceId",
          "type": "bytes4"
        }
      ],
      "name": "supportsInterface",
      "outputs": [
        {
          "internalType": "bool",
          "name": "",
          "type": "bool"
        }
      ],
      "stateMutability": "view",
      "type": "function"
    },
    {
      "inputs": [],
      "name": "symbol",
      "outputs": [
        {
          "internalType": "string",
          "name": "",
          "type": "string"
        }
      ],
      "stateMutability": "view",
      "type": "function"
    },
    {
      "inputs": [
        {
          "internalType": "uint256",
          "name": "_tokenId",
          "type": "uint256"
        }
      ],
      "name": "tokenURI",
      "outputs": [
        {
          "internalType": "string",
          "name": "",
          "type": "string"
        }
      ],
      "stateMutability": "view",
      "type": "function"
    },
    {
      "inputs": [
        {
          "internalType": "address",
          "name": "from",
          "type": "address"
        },
        {
          "internalType": "address",
          "name": "to",
          "type": "address"
        },
        {
          "internalType": "uint256",
          "name": "tokenId",
          "type": "uint256"
        }
      ],
      "name": "transferFrom",
      "outputs": [],
      "stateMutability": "nonpayable",
      "type": "function"
    },
    {
      "inputs": [
        {
          "internalType": "uint256",
          "name": "_tokenId",
          "type": "uint256"
        },
        {
          "internalType": "uint256",
          "name": "_level",
          "type": "uint256"
        },
        {
          "internalType": "string",
          "name": "_status",
          "type": "string"
        },
        {
          "internalType": "uint64",
          "name": "_expires",
          "type": "uint64"
        }
      ],
      "name": "updateAttached",
      "outputs": [],
      "stateMutability": "nonpayable",
      "type": "function"
    },
    {
      "inputs": [
        {
          "internalType": "uint256",
          "name": "_tokenId",
          "type": "uint256"
        },
        {
          "internalType": "uint256",
          "name": "_level",
          "type": "uint256"
        },
        {
          "internalType": "string",
          "name": "_status",
          "type": "string"
        },
        {
          "internalType": "uint64",
          "name": "_expires",
          "type": "uint64"
        },
        {
          "internalType": "address",
          "name": "_owner",
          "type": "address"
        },
        {
          "internalType": "uint256",
          "name": "_amount",
          "type": "uint256"
        }
      ],
      "name": "updateAttachedAndReceipt",
      "outputs": [],
      "stateMutability": "nonpayable",
      "type": "function"
    },
    {
      "inputs": [
        {
          "internalType": "enum FaniqueERC721.OpenTo",
          "name": "value",
          "type": "uint8"
        }
      ],
      "name": "updateAvailableSecondarySale",
      "outputs": [],
      "stateMutability": "nonpayable",
      "type": "function"
    },
    {
      "inputs": [
        {
          "internalType": "uint256",
          "name": "_tokenId",
          "type": "uint256"
        },
        {
          "internalType": "uint64",
          "name": "_expires",
          "type": "uint64"
        }
      ],
      "name": "updateExpires",
      "outputs": [],
      "stateMutability": "nonpayable",
      "type": "function"
    },
    {
      "inputs": [
        {
          "internalType": "uint256",
          "name": "_tokenId",
          "type": "uint256"
        },
        {
          "internalType": "uint64",
          "name": "_expires",
          "type": "uint64"
        },
        {
          "internalType": "address",
          "name": "_owner",
          "type": "address"
        },
        {
          "internalType": "uint256",
          "name": "_amount",
          "type": "uint256"
        }
      ],
      "name": "updateExpiresAndReceipt",
      "outputs": [],
      "stateMutability": "nonpayable",
      "type": "function"
    },
    {
      "inputs": [
        {
          "internalType": "uint256",
          "name": "_tokenid",
          "type": "uint256"
        },
        {
          "internalType": "address[]",
          "name": "_receivers",
          "type": "address[]"
        },
        {
          "internalType": "uint256[]",
          "name": "_percentages",
          "type": "uint256[]"
        }
      ],
      "name": "updateTokenRoyalty",
      "outputs": [],
      "stateMutability": "nonpayable",
      "type": "function"
    },
    {
      "inputs": [],
      "name": "version",
      "outputs": [
        {
          "internalType": "string",
          "name": "",
          "type": "string"
        }
      ],
      "stateMutability": "pure",
      "type": "function"
    }
  ],
  "bytecode": "0x60806040523480156200001157600080fd5b50733cc6cdda760b79bafa08df41ecfa224f810dceb660016daaeb6d7670e522a718067333cd4e3b156200016e578015620000bc57604051633e9f1edf60e11b81523060048201526001600160a01b03831660248201526daaeb6d7670e522a718067333cd4e90637d3e3dbe906044015b600060405180830381600087803b1580156200009d57600080fd5b505af1158015620000b2573d6000803e3d6000fd5b505050506200016e565b6001600160a01b038216156200010d5760405163a0af290360e01b81523060048201526001600160a01b03831660248201526daaeb6d7670e522a718067333cd4e9063a0af29039060440162000082565b604051632210724360e11b81523060048201526daaeb6d7670e522a718067333cd4e90634420e48690602401600060405180830381600087803b1580156200015457600080fd5b505af115801562000169573d6000803e3d6000fd5b505050505b5050615ea280620001806000396000f3fe60806040523480156200001157600080fd5b5060043610620003305760003560e01c80635c975abb11620001bf578063a22cb46511620000fc578063d539139311620000af578063e985e9c51162000086578063e985e9c5146200082b578063f101e4811462000842578063fd0a0b3d146200084c578063fe5eb754146200086357600080fd5b8063d539139314620007e6578063db8d8fc614620007fd578063e0e6a115146200081457600080fd5b8063a22cb4651462000748578063a3484ff1146200075f578063a47b77d6146200078c578063abc8c7af14620007a3578063b88d4fde14620007b8578063c87b56dd14620007cf57600080fd5b806378189ad511620001725780637df57c8911620001495780637df57c8914620006e057806387e8f58e14620006f757806390a6c8cb146200071557806395d89b41146200073e57600080fd5b806378189ad5146200069d5780637942c57014620006b257806379c2a3f414620006c957600080fd5b80635c975abb14620006115780635d66acd2146200061d5780635fdf6ba314620006345780636352211e14620006585780636b616706146200066f57806370a08231146200068657600080fd5b8063199043ab116200028e57806341f4343411620002415780634f558e7911620002185780634f558e79146200059d5780635226dc9314620005b457806354fd4d5014620005cb57806356b855aa14620005e957600080fd5b806341f43434146200055957806342842e0e146200056f57806342966c68146200058657600080fd5b8063199043ab14620004af57806319a954af14620004c657806323b872dd14620004dd5780632a55205a14620004f45780632dbaa266146200052b5780633a3d0f01146200054257600080fd5b8063081812fc11620002e7578063081812fc14620003fc57806308e44e34146200042c578063095ea7b3146200044357806312dc093b146200045a578063145679791462000481578063162094c4146200049857600080fd5b80630194db8e146200033557806301ffc9a7146200035f57806304634d8d1462000387578063049cbc2114620003a05780630600406114620003b657806306fdde0314620003e3575b600080fd5b6200034c620003463660046200381b565b6200087a565b6040519081526020015b60405180910390f35b62000376620003703660046200386a565b620008cf565b604051901515815260200162000356565b6200039e62000398366004620038ad565b620008e2565b005b62000376620003b1366004620038f6565b3b1590565b620003cd620003c736600462003996565b62000936565b6040805192835260208301919091520162000356565b620003ed62000a4a565b60405162000356919062003a91565b620004136200040d36600462003aa6565b62000ae4565b6040516001600160a01b03909116815260200162000356565b6200034c6200043d36600462003b2d565b62000b0d565b6200039e6200045436600462003c0c565b62000b67565b620003766200046b36600462003aa6565b6000908152610195602052604090205460ff1690565b6200034c6200049236600462003c3b565b62000c82565b6200039e620004a936600462003ccb565b62000cd8565b6200034c620004c036600462003d15565b62000d1e565b6200039e620004d736600462003e08565b62000e33565b6200039e620004ee36600462003e2b565b62000f28565b6200050b6200050536600462003e71565b62000f60565b604080516001600160a01b03909316835260208301919091520162000356565b620003766200053c366004620038f6565b62001013565b6200039e6200055336600462003eac565b620010c6565b620004136daaeb6d7670e522a718067333cd4e81565b6200039e6200058036600462003e2b565b62001312565b6200039e6200059736600462003aa6565b6200132f565b62000376620005ae36600462003aa6565b62001378565b6200039e620005c536600462003e71565b62001398565b6040805180820190915260018152603160f81b6020820152620003ed565b6200034c7f7def632d64a7259044c921303d544f945a340c8d4334adc0e0bd830a54deb52881565b60975460ff1662000376565b6200039e6200062e36600462003fba565b620013e6565b61015f54620006449061ffff1681565b60405161ffff909116815260200162000356565b620004136200066936600462003aa6565b6200156d565b6200039e620006803660046200409b565b620015cf565b6200034c62000697366004620038f6565b620016de565b61019a5462000413906001600160a01b031681565b6200039e620006c33660046200410e565b62001766565b6200039e620006da36600462004174565b620017eb565b6200039e620006f1366004620038f6565b62001a33565b61019954620007069060ff1681565b604051620003569190620041f0565b6200072c6200072636600462003aa6565b62001a89565b60405162000356949392919062004219565b620003ed62001b75565b6200039e6200075936600462004269565b62001b86565b62000413620007703660046200429c565b610160602052600090815260409020546001600160a01b031681565b6200039e6200079d366004620042c2565b62001b93565b6101945462000413906001600160a01b031681565b6200039e620007c9366004620042fd565b62001dd1565b620003ed620007e036600462003aa6565b62001e0a565b6200034c60008051602062005e4d83398151915281565b6200039e6200080e36600462004385565b62001e17565b6200039e6200082536600462004442565b62001fdc565b620003766200083c36600462004474565b6200221a565b6200034c62002248565b6200039e6200085d36600462003ccb565b62002267565b6200039e62000874366004620044a7565b620022bc565b6000805b8251811015620008c9578281815181106200089d576200089d620044d6565b602002602001015182620008b2919062004502565b915080620008c08162004518565b9150506200087e565b50919050565b6000620008dc8262002327565b92915050565b60008051602062005e4d833981519152620008fd816200234f565b620009255760405162461bcd60e51b81526004016200091c9062004534565b60405180910390fd5b620009318383620023e8565b505050565b60008060008051602062005e4d83398151915262000954816200234f565b620009735760405162461bcd60e51b81526004016200091c9062004534565b610194546200098f906001600160a01b03168b8b8b8b620024a8565b61019454909350620009ac906001600160a01b0316600162001b86565b6101945460405163e000507960e01b81523060048201526024810185905260448101889052606481018790526001600160a01b0386811660848301529091169063e00050799060a4016020604051808303816000875af115801562000a15573d6000803e3d6000fd5b505050506040513d601f19601f8201168201806040525081019062000a3b919062004562565b91505097509795505050505050565b60606065805462000a5b906200457c565b80601f016020809104026020016040519081016040528092919081815260200182805462000a89906200457c565b801562000ada5780601f1062000aae5761010080835404028352916020019162000ada565b820191906000526020600020905b81548152906001019060200180831162000abc57829003601f168201915b5050505050905090565b600062000af1826200252f565b506000908152606960205260409020546001600160a01b031690565b600060008051602062005e4d83398151915262000b2a816200234f565b62000b495760405162461bcd60e51b81526004016200091c9062004534565b62000b5a8989898989898962002593565b9998505050505050505050565b600062000b74826200156d565b9050806001600160a01b0316836001600160a01b03160362000be35760405162461bcd60e51b815260206004820152602160248201527f4552433732313a20617070726f76616c20746f2063757272656e74206f776e656044820152603960f91b60648201526084016200091c565b336001600160a01b038216148062000c02575062000c0281336200221a565b62000c765760405162461bcd60e51b815260206004820152603d60248201527f4552433732313a20617070726f76652063616c6c6572206973206e6f7420746f60448201527f6b656e206f776e6572206f7220617070726f76656420666f7220616c6c00000060648201526084016200091c565b62000931838362002688565b600060008051602062005e4d83398151915262000c9f816200234f565b62000cbe5760405162461bcd60e51b81526004016200091c9062004534565b62000ccd8787878787620024a8565b979650505050505050565b60008051602062005e4d83398151915262000cf3816200234f565b62000d125760405162461bcd60e51b81526004016200091c9062004534565b620009318383620026f8565b600060008051602062005e4d83398151915262000d3b816200234f565b62000d5a5760405162461bcd60e51b81526004016200091c9062004534565b6101945462000d78906001600160a01b03168c8c8c8c898962002593565b6101945490925062000d95906001600160a01b0316600162001b86565b6101945460405163e000507960e01b81523060048201526024810184905260448101899052606481018890526001600160a01b0387811660848301529091169063e00050799060a4016020604051808303816000875af115801562000dfe573d6000803e3d6000fd5b505050506040513d601f19601f8201168201806040525081019062000e24919062004562565b50509998505050505050505050565b60008051602062005e4d83398151915262000e4e816200234f565b62000e6d5760405162461bcd60e51b81526004016200091c9062004534565b6101995460ff16600381111562000e885762000e88620041da565b82600381111562000e9d5762000e9d620041da565b0362000efc5760405162461bcd60e51b815260206004820152602760248201527f757064617465417661696c61626c655365636f6e6461727953616c653a20696e60448201526676616c6964212160c81b60648201526084016200091c565b610199805483919060ff1916600183600381111562000f1f5762000f1f620041da565b02179055505050565b62000f3433826200278f565b62000f535760405162461bcd60e51b81526004016200091c90620045b2565b62000931838383620027f6565b6000828152610162602090815260408083208151808301909252546001600160a01b038116808352600160a01b9091046001600160601b031692820192909252829162000fd8575060408051808201909152610161546001600160a01b0381168252600160a01b90046001600160601b031660208201525b60208101516000906127109062000ff9906001600160601b031687620045ff565b62001005919062004619565b915196919550909350505050565b6000806101995460ff166003811115620010315762001031620041da565b036200103f57506001919050565b60016101995460ff1660038111156200105c576200105c620041da565b036200106957503b151590565b60026101995460ff166003811115620010865762001086620041da565b036200109257503b1590565b60036101995460ff166003811115620010af57620010af620041da565b03620010bd57506000919050565b5060015b919050565b858282816001600160a01b0316620010de846200156d565b6001600160a01b031614620011075760405162461bcd60e51b81526004016200091c906200463c565b61019a546040516370a0823160e01b81526001600160a01b038481166004830152839216906370a0823190602401602060405180830381865afa15801562001153573d6000803e3d6000fd5b505050506040513d601f19601f8201168201806040525081019062001179919062004562565b11620011995760405162461bcd60e51b81526004016200091c9062004669565b61019a5461019b54604051636eb1769f60e11b81526001600160a01b03858116600483015291821660248201528392919091169063dd62ed3e90604401602060405180830381865afa158015620011f4573d6000803e3d6000fd5b505050506040513d601f19601f820116820180604052508101906200121a919062004562565b116200123a5760405162461bcd60e51b81526004016200091c9062004698565b60008051602062005e4d83398151915262001255816200234f565b620012745760405162461bcd60e51b81526004016200091c9062004534565b61019a5461019b546040516323b872dd60e01b81526001600160a01b03928316926323b872dd92620012b1928b92909116908a90600401620046c7565b6020604051808303816000875af1158015620012d1573d6000803e3d6000fd5b505050506040513d601f19601f82011682018060405250810190620012f79190620046eb565b50620013068a8a8a8a62001766565b50505050505050505050565b620009318383836040518060200160405280600081525062001dd1565b60008051602062005e4d8339815191526200134a816200234f565b620013695760405162461bcd60e51b81526004016200091c9062004534565b620013748262002975565b5050565b6000818152606760205260408120546001600160a01b03161515620008dc565b60008051602062005e4d833981519152620013b3816200234f565b620013d25760405162461bcd60e51b81526004016200091c9062004534565b506000918252610196602052604090912055565b60008051602062005e4d83398151915262001401816200234f565b620014205760405162461bcd60e51b81526004016200091c9062004534565b60005b8651811015620015645760006200143962002980565b905062001463888381518110620014545762001454620044d6565b6020026020010151826200299a565b6200148b818884815181106200147d576200147d620044d6565b6020026020010151620026f8565b858281518110620014a057620014a0620044d6565b6020026020010151610196600083815260200190815260200160002081905550848281518110620014d557620014d5620044d6565b602002602001015161019760008381526020019081526020016000209081620014ff919062004755565b50838281518110620015155762001515620044d6565b60209081029190910181015160009283526101989091526040909120805467ffffffffffffffff19166001600160401b03909216919091179055806200155b8162004518565b91505062001423565b50505050505050565b6000818152606760205260408120546001600160a01b031680620008dc5760405162461bcd60e51b8152602060048201526018602482015277115490cdcc8c4e881a5b9d985b1a59081d1bdad95b88125160421b60448201526064016200091c565b60008051602062005e4d833981519152620015ea816200234f565b620016095760405162461bcd60e51b81526004016200091c9062004534565b825115620016d857825160010362001671576200166b8484600081518110620016365762001636620044d6565b602002602001015184600081518110620016545762001654620044d6565b60200260200101516001600160601b0316620029b6565b620016d8565b600083836040516200168390620036d7565b6200169092919062004821565b604051809103906000f080158015620016ad573d6000803e3d6000fd5b5090506000620016bd846200087a565b9050620016d58683836001600160601b0316620029b6565b50505b50505050565b60006001600160a01b0382166200174a5760405162461bcd60e51b815260206004820152602960248201527f4552433732313a2061646472657373207a65726f206973206e6f7420612076616044820152683634b21037bbb732b960b91b60648201526084016200091c565b506001600160a01b031660009081526068602052604090205490565b60008051602062005e4d83398151915262001781816200234f565b620017a05760405162461bcd60e51b81526004016200091c9062004534565b600085815261019860209081526040808320805467ffffffffffffffff19166001600160401b03871617905561019682528083208790556101979091529020620016d5848262004755565b838282816001600160a01b031662001803846200156d565b6001600160a01b0316146200182c5760405162461bcd60e51b81526004016200091c906200463c565b61019a546040516370a0823160e01b81526001600160a01b038481166004830152839216906370a0823190602401602060405180830381865afa15801562001878573d6000803e3d6000fd5b505050506040513d601f19601f820116820180604052508101906200189e919062004562565b11620018be5760405162461bcd60e51b81526004016200091c9062004669565b61019a5461019b54604051636eb1769f60e11b81526001600160a01b03858116600483015291821660248201528392919091169063dd62ed3e90604401602060405180830381865afa15801562001919573d6000803e3d6000fd5b505050506040513d601f19601f820116820180604052508101906200193f919062004562565b116200195f5760405162461bcd60e51b81526004016200091c9062004698565b60008051602062005e4d8339815191526200197a816200234f565b620019995760405162461bcd60e51b81526004016200091c9062004534565b61019a5461019b546040516323b872dd60e01b81526001600160a01b03928316926323b872dd92620019d6928b92909116908a90600401620046c7565b6020604051808303816000875af1158015620019f6573d6000803e3d6000fd5b505050506040513d601f19601f8201168201806040525081019062001a1c9190620046eb565b5062001a29888862002267565b5050505050505050565b7f7def632d64a7259044c921303d544f945a340c8d4334adc0e0bd830a54deb52862001a5f816200234f565b62001a7e5760405162461bcd60e51b81526004016200091c9062004534565b6200137482620029fd565b606060006060600062001a9c8562001e0a565b6000868152610196602090815260408083205461019790925290912080549296509094509062001acc906200457c565b80601f016020809104026020016040519081016040528092919081815260200182805462001afa906200457c565b801562001b4b5780601f1062001b1f5761010080835404028352916020019162001b4b565b820191906000526020600020905b81548152906001019060200180831162001b2d57829003601f168201915b5050506000978852505061019860205260409095205493959294936001600160401b031692915050565b60606066805462000a5b906200457c565b6200137433838362002a93565b838282816001600160a01b031662001bab846200156d565b6001600160a01b03161462001bd45760405162461bcd60e51b81526004016200091c906200463c565b61019a546040516370a0823160e01b81526001600160a01b038481166004830152839216906370a0823190602401602060405180830381865afa15801562001c20573d6000803e3d6000fd5b505050506040513d601f19601f8201168201806040525081019062001c46919062004562565b1162001c665760405162461bcd60e51b81526004016200091c9062004669565b61019a5461019b54604051636eb1769f60e11b81526001600160a01b03858116600483015291821660248201528392919091169063dd62ed3e90604401602060405180830381865afa15801562001cc1573d6000803e3d6000fd5b505050506040513d601f19601f8201168201806040525081019062001ce7919062004562565b1162001d075760405162461bcd60e51b81526004016200091c9062004698565b60008051602062005e4d83398151915262001d22816200234f565b62001d415760405162461bcd60e51b81526004016200091c9062004534565b61019a5461019b546040516323b872dd60e01b81526001600160a01b03928316926323b872dd9262001d7e928b92909116908a90600401620046c7565b6020604051808303816000875af115801562001d9e573d6000803e3d6000fd5b505050506040513d601f19601f8201168201806040525081019062001dc49190620046eb565b5062001a298888620022bc565b62001ddd33836200278f565b62001dfc5760405162461bcd60e51b81526004016200091c90620045b2565b620016d88484848462002b63565b6060620008dc8262002b9d565b600054610100900460ff161580801562001e385750600054600160ff909116105b8062001e545750303b15801562001e54575060005460ff166001145b62001eb95760405162461bcd60e51b815260206004820152602e60248201527f496e697469616c697a61626c653a20636f6e747261637420697320616c72656160448201526d191e481a5b9a5d1a585b1a5e995960921b60648201526084016200091c565b6000805460ff19166001179055801562001edd576000805461ff0019166101001790555b62001ee9868662002cb6565b62001ef48762002cec565b62001efe62002d21565b62001f0862002d4d565b61019480546001600160a01b0386166001600160a01b0319909116179055610199805460ff1916600217905562001f42336101f4620023e8565b61019980546001600160a01b0380861661010002610100600160a81b03199092169190911790915561019a80549184166001600160a01b031992831617905561019b805490911633179055801562001564576000805461ff0019169055604051600181527f7f26b83ff96e1f2b6a682f133852f6798a09c465da95921460cefb38474024989060200160405180910390a150505050505050565b838282816001600160a01b031662001ff4846200156d565b6001600160a01b0316146200201d5760405162461bcd60e51b81526004016200091c906200463c565b61019a546040516370a0823160e01b81526001600160a01b038481166004830152839216906370a0823190602401602060405180830381865afa15801562002069573d6000803e3d6000fd5b505050506040513d601f19601f820116820180604052508101906200208f919062004562565b11620020af5760405162461bcd60e51b81526004016200091c9062004669565b61019a5461019b54604051636eb1769f60e11b81526001600160a01b03858116600483015291821660248201528392919091169063dd62ed3e90604401602060405180830381865afa1580156200210a573d6000803e3d6000fd5b505050506040513d601f19601f8201168201806040525081019062002130919062004562565b11620021505760405162461bcd60e51b81526004016200091c9062004698565b60008051602062005e4d8339815191526200216b816200234f565b6200218a5760405162461bcd60e51b81526004016200091c9062004534565b61019a5461019b546040516323b872dd60e01b81526001600160a01b03928316926323b872dd92620021c7928b92909116908a90600401620046c7565b6020604051808303816000875af1158015620021e7573d6000803e3d6000fd5b505050506040513d601f19601f820116820180604052508101906200220d9190620046eb565b5062001a29888862001398565b6001600160a01b039182166000908152606a6020908152604080832093909416825291909152205460ff1690565b6000620022556101935490565b6200226290600162004502565b905090565b60008051602062005e4d83398151915262002282816200234f565b620022a15760405162461bcd60e51b81526004016200091c9062004534565b600083815261019760205260409020620016d8838262004755565b60008051602062005e4d833981519152620022d7816200234f565b620022f65760405162461bcd60e51b81526004016200091c9062004534565b5060009182526101986020526040909120805467ffffffffffffffff19166001600160401b03909216919091179055565b60006001600160e01b0319821663152a902d60e11b1480620008dc5750620008dc8262002d81565b61015f5461ffff16600090815261016060205260408120546001600160a01b03166391d1485483336040516001600160e01b031960e085901b16815260048101929092526001600160a01b03166024820152604401602060405180830381865afa158015620023c2573d6000803e3d6000fd5b505050506040513d601f19601f82011682018060405250810190620008dc9190620046eb565b6127106001600160601b0382161115620024165760405162461bcd60e51b81526004016200091c90620048a9565b6001600160a01b0382166200246e5760405162461bcd60e51b815260206004820152601960248201527f455243323938313a20696e76616c69642072656365697665720000000000000060448201526064016200091c565b604080518082019091526001600160a01b039092168083526001600160601b039091166020909201829052600160a01b9091021761016155565b600080620024b562002980565b9050620024c387826200299a565b620024cf8187620026f8565b6000818152610196602090815260408083208890556101979091529020620024f8858262004755565b5060008181526101986020526040902080546001600160401b03851667ffffffffffffffff19909116179055905095945050505050565b6000818152606760205260409020546001600160a01b0316620025905760405162461bcd60e51b8152602060048201526018602482015277115490cdcc8c4e881a5b9d985b1a59081d1bdad95b88125160421b60448201526064016200091c565b50565b6000620025a48888888888620024a8565b83519091501562000ccd5782516001036200260657620026008184600081518110620025d457620025d4620044d6565b602002602001015184600081518110620025f257620025f2620044d6565b602002602001015162002dd4565b62000ccd565b600083836040516200261890620036d7565b6200262592919062004821565b604051809103906000f08015801562002642573d6000803e3d6000fd5b509050600062002652846200087a565b90506200266183838362002dd4565b5050600081815261019560205260409020805460ff19166001179055979650505050505050565b600081815260696020526040902080546001600160a01b0319166001600160a01b0384169081179091558190620026bf826200156d565b6001600160a01b03167f8c5be1e5ebec7d5bd14f71427d1e84f3dd0314c0f7b2291e5b200ac8c7c3b92560405160405180910390a45050565b6000828152606760205260409020546001600160a01b0316620027755760405162461bcd60e51b815260206004820152602e60248201527f45524337323155524953746f726167653a2055524920736574206f66206e6f6e60448201526d32bc34b9ba32b73a103a37b5b2b760911b60648201526084016200091c565b600082815260fb6020526040902062000931828262004755565b6000806200279d836200156d565b9050806001600160a01b0316846001600160a01b03161480620027c75750620027c781856200221a565b80620027ee5750836001600160a01b0316620027e38462000ae4565b6001600160a01b0316145b949350505050565b826001600160a01b03166200280b826200156d565b6001600160a01b031614620028345760405162461bcd60e51b81526004016200091c90620048f3565b6001600160a01b038216620028985760405162461bcd60e51b8152602060048201526024808201527f4552433732313a207472616e7366657220746f20746865207a65726f206164646044820152637265737360e01b60648201526084016200091c565b620028a7838383600162002ea5565b826001600160a01b0316620028bc826200156d565b6001600160a01b031614620028e55760405162461bcd60e51b81526004016200091c90620048f3565b600081815260696020908152604080832080546001600160a01b03199081169091556001600160a01b0387811680865260688552838620805460001901905590871680865283862080546001019055868652606790945282852080549092168417909155905184937fddf252ad1be2c89b69c2b068fc378daa952ba7f163c4a11628f55a4df523b3ef91a4505050565b620025908162002fc2565b60006200299261019380546001019055565b506101935490565b6200137482826040518060200160405280600081525062003009565b60008051602062005e4d833981519152620029d1816200234f565b620029f05760405162461bcd60e51b81526004016200091c9062004534565b620016d884848462002dd4565b61015f805461ffff1690600062002a148362004938565b82546101009290920a61ffff81810219909316918316021790915561015f805482166000908152610160602052604080822080546001600160a01b0319166001600160a01b03881690811790915592549051929450909216917f99dc7b1f61f499c4a87b84658707d2ba9daa47dd709e2262054daae5108deb6391a350565b816001600160a01b0316836001600160a01b03160362002af65760405162461bcd60e51b815260206004820152601960248201527f4552433732313a20617070726f766520746f2063616c6c65720000000000000060448201526064016200091c565b6001600160a01b038381166000818152606a6020908152604080832094871680845294825291829020805460ff191686151590811790915591519182527f17307eab39ab6107e8899845ad3d59bd9653f200f220920489ca2b5937696c31910160405180910390a3505050565b62002b70848484620027f6565b62002b7e8484848462003043565b620016d85760405162461bcd60e51b81526004016200091c906200495c565b606062002baa826200252f565b600082815260fb60205260408120805462002bc5906200457c565b80601f016020809104026020016040519081016040528092919081815260200182805462002bf3906200457c565b801562002c445780601f1062002c185761010080835404028352916020019162002c44565b820191906000526020600020905b81548152906001019060200180831162002c2657829003601f168201915b50505050509050600062002c6360408051602081019091526000815290565b9050805160000362002c76575092915050565b81511562002cab57808260405160200162002c93929190620049ae565b60405160208183030381529060405292505050919050565b620027ee8462003151565b600054610100900460ff1662002ce05760405162461bcd60e51b81526004016200091c90620049e1565b620013748282620031ce565b600054610100900460ff1662002d165760405162461bcd60e51b81526004016200091c90620049e1565b620025908162003215565b600054610100900460ff1662002d4b5760405162461bcd60e51b81526004016200091c90620049e1565b565b600054610100900460ff1662002d775760405162461bcd60e51b81526004016200091c90620049e1565b62002d4b62003276565b60006001600160e01b031982166380ac58cd60e01b148062002db357506001600160e01b03198216635b5e139f60e01b145b80620008dc57506301ffc9a760e01b6001600160e01b0319831614620008dc565b6127106001600160601b038216111562002e025760405162461bcd60e51b81526004016200091c90620048a9565b6001600160a01b03821662002e5a5760405162461bcd60e51b815260206004820152601b60248201527f455243323938313a20496e76616c696420706172616d6574657273000000000060448201526064016200091c565b6040805180820182526001600160a01b0393841681526001600160601b039283166020808301918252600096875261016290529190942093519051909116600160a01b029116179055565b8262002eb18162001013565b8062002f3057506101995460405163f99031a760e01b81526001600160a01b0383811660048301526101009092049091169063f99031a790602401602060405180830381865afa15801562002f0a573d6000803e3d6000fd5b505050506040513d601f19601f8201168201806040525081019062002f309190620046eb565b8062002f51575062002f5160008051602062005e4d8339815191526200234f565b62002fad5760405162461bcd60e51b815260206004820152602560248201527f636865636b5365636f6e6461727953616c65734d61726b65743a20696e76616c604482015264696421212160d81b60648201526084016200091c565b62002fbb85858585620032ac565b5050505050565b62002fcd8162003315565b600081815260fb60205260409020805462002fe8906200457c565b1590506200259057600081815260fb602052604081206200259091620036e5565b620030158383620033be565b62003024600084848462003043565b620009315760405162461bcd60e51b81526004016200091c906200495c565b60006001600160a01b0384163b156200314657604051630a85bd0160e11b81526001600160a01b0385169063150b7a02906200308a90339089908890889060040162004a2c565b6020604051808303816000875af1925050508015620030c8575060408051601f3d908101601f19168201909252620030c59181019062004a6b565b60015b6200312b573d808015620030f9576040519150601f19603f3d011682016040523d82523d6000602084013e620030fe565b606091505b508051600003620031235760405162461bcd60e51b81526004016200091c906200495c565b805181602001fd5b6001600160e01b031916630a85bd0160e11b149050620027ee565b506001949350505050565b60606200315e826200252f565b60006200317660408051602081019091526000815290565b90506000815111620031985760405180602001604052806000815250620031c7565b80620031a4846200355f565b604051602001620031b7929190620049ae565b6040516020818303038152906040525b9392505050565b600054610100900460ff16620031f85760405162461bcd60e51b81526004016200091c90620049e1565b606562003206838262004755565b50606662000931828262004755565b600054610100900460ff166200323f5760405162461bcd60e51b81526004016200091c90620049e1565b61015f5461ffff1660009081526101606020526040902080546001600160a01b0319166001600160a01b0392909216919091179055565b600054610100900460ff16620032a05760405162461bcd60e51b81526004016200091c90620049e1565b6097805460ff19169055565b60975460ff1615620016d85760405162461bcd60e51b815260206004820152602b60248201527f4552433732315061757361626c653a20746f6b656e207472616e73666572207760448201526a1a1a5b19481c185d5cd95960aa1b60648201526084016200091c565b600062003322826200156d565b90506200333481600084600162002ea5565b6200333f826200156d565b600083815260696020908152604080832080546001600160a01b03199081169091556001600160a01b0385168085526068845282852080546000190190558785526067909352818420805490911690555192935084927fddf252ad1be2c89b69c2b068fc378daa952ba7f163c4a11628f55a4df523b3ef908390a45050565b6001600160a01b038216620034165760405162461bcd60e51b815260206004820181905260248201527f4552433732313a206d696e7420746f20746865207a65726f206164647265737360448201526064016200091c565b6000818152606760205260409020546001600160a01b0316156200347d5760405162461bcd60e51b815260206004820152601c60248201527f4552433732313a20746f6b656e20616c7265616479206d696e7465640000000060448201526064016200091c565b6200348d60008383600162002ea5565b6000818152606760205260409020546001600160a01b031615620034f45760405162461bcd60e51b815260206004820152601c60248201527f4552433732313a20746f6b656e20616c7265616479206d696e7465640000000060448201526064016200091c565b6001600160a01b038216600081815260686020908152604080832080546001019055848352606790915280822080546001600160a01b0319168417905551839291907fddf252ad1be2c89b69c2b068fc378daa952ba7f163c4a11628f55a4df523b3ef908290a45050565b606060006200356e83620035f8565b60010190506000816001600160401b0381111562003590576200359062003739565b6040519080825280601f01601f191660200182016040528015620035bb576020820181803683370190505b5090508181016020015b600019016f181899199a1a9b1b9c1cb0b131b232b360811b600a86061a8153600a8504945084620035c557509392505050565b60008072184f03e93ff9f4daa797ed6e38ed64bf6a1f0160401b8310620036385772184f03e93ff9f4daa797ed6e38ed64bf6a1f0160401b830492506040015b6d04ee2d6d415b85acef8100000000831062003665576d04ee2d6d415b85acef8100000000830492506020015b662386f26fc1000083106200368457662386f26fc10000830492506010015b6305f5e10083106200369d576305f5e100830492506008015b6127108310620036b257612710830492506004015b60648310620036c5576064830492506002015b600a8310620008dc5760010192915050565b6113c18062004a8c83390190565b508054620036f3906200457c565b6000825580601f1062003704575050565b601f0160209004906000526020600020908101906200259091905b808211156200373557600081556001016200371f565b5090565b634e487b7160e01b600052604160045260246000fd5b604051601f8201601f191681016001600160401b03811182821017156200377a576200377a62003739565b604052919050565b60006001600160401b038211156200379e576200379e62003739565b5060051b60200190565b600082601f830112620037ba57600080fd5b81356020620037d3620037cd8362003782565b6200374f565b82815260059290921b84018101918181019086841115620037f357600080fd5b8286015b84811015620038105780358352918301918301620037f7565b509695505050505050565b6000602082840312156200382e57600080fd5b81356001600160401b038111156200384557600080fd5b620027ee84828501620037a8565b6001600160e01b0319811681146200259057600080fd5b6000602082840312156200387d57600080fd5b8135620031c78162003853565b6001600160a01b03811681146200259057600080fd5b8035620010c1816200388a565b60008060408385031215620038c157600080fd5b8235620038ce816200388a565b915060208301356001600160601b0381168114620038eb57600080fd5b809150509250929050565b6000602082840312156200390957600080fd5b8135620031c7816200388a565b60006001600160401b0383111562003932576200393262003739565b62003947601f8401601f19166020016200374f565b90508281528383830111156200395c57600080fd5b828260208301376000602084830101529392505050565b600082601f8301126200398557600080fd5b620031c78383356020850162003916565b600080600080600080600060e0888a031215620039b257600080fd5b87356001600160401b0380821115620039ca57600080fd5b620039d88b838c0162003973565b985060208a0135975060408a0135915080821115620039f657600080fd5b5062003a058a828b0162003973565b955050606088013593506080880135925060a0880135915060c088013562003a2d816200388a565b8091505092959891949750929550565b60005b8381101562003a5a57818101518382015260200162003a40565b50506000910152565b6000815180845262003a7d81602086016020860162003a3d565b601f01601f19169290920160200192915050565b602081526000620031c7602083018462003a63565b60006020828403121562003ab957600080fd5b5035919050565b600082601f83011262003ad257600080fd5b8135602062003ae5620037cd8362003782565b82815260059290921b8401810191818101908684111562003b0557600080fd5b8286015b848110156200381057803562003b1f816200388a565b835291830191830162003b09565b600080600080600080600060e0888a03121562003b4957600080fd5b62003b5488620038a0565b965060208801356001600160401b038082111562003b7157600080fd5b62003b7f8b838c0162003973565b975060408a0135965060608a013591508082111562003b9d57600080fd5b62003bab8b838c0162003973565b955060808a0135945060a08a013591508082111562003bc957600080fd5b62003bd78b838c0162003ac0565b935060c08a013591508082111562003bee57600080fd5b5062003bfd8a828b01620037a8565b91505092959891949750929550565b6000806040838503121562003c2057600080fd5b823562003c2d816200388a565b946020939093013593505050565b600080600080600060a0868803121562003c5457600080fd5b853562003c61816200388a565b945060208601356001600160401b038082111562003c7e57600080fd5b62003c8c89838a0162003973565b955060408801359450606088013591508082111562003caa57600080fd5b5062003cb98882890162003973565b95989497509295608001359392505050565b6000806040838503121562003cdf57600080fd5b8235915060208301356001600160401b0381111562003cfd57600080fd5b62003d0b8582860162003973565b9150509250929050565b60008060008060008060008060006101208a8c03121562003d3557600080fd5b89356001600160401b038082111562003d4d57600080fd5b62003d5b8d838e0162003973565b9a5060208c0135995060408c013591508082111562003d7957600080fd5b62003d878d838e0162003973565b985060608c0135975060808c0135965060a08c0135955062003dac60c08d01620038a0565b945060e08c013591508082111562003dc357600080fd5b62003dd18d838e0162003ac0565b93506101008c013591508082111562003de957600080fd5b5062003df88c828d01620037a8565b9150509295985092959850929598565b60006020828403121562003e1b57600080fd5b813560048110620031c757600080fd5b60008060006060848603121562003e4157600080fd5b833562003e4e816200388a565b9250602084013562003e60816200388a565b929592945050506040919091013590565b6000806040838503121562003e8557600080fd5b50508035926020909101359150565b80356001600160401b0381168114620010c157600080fd5b60008060008060008060c0878903121562003ec657600080fd5b863595506020870135945060408701356001600160401b0381111562003eeb57600080fd5b62003ef989828a0162003973565b94505062003f0a6060880162003e94565b9250608087013562003f1c816200388a565b8092505060a087013590509295509295509295565b600082601f83011262003f4357600080fd5b8135602062003f56620037cd8362003782565b82815260059290921b8401810191818101908684111562003f7657600080fd5b8286015b84811015620038105780356001600160401b0381111562003f9b5760008081fd5b62003fab8986838b010162003973565b84525091830191830162003f7a565b600080600080600060a0868803121562003fd357600080fd5b85356001600160401b038082111562003feb57600080fd5b62003ff989838a0162003ac0565b965060208801359150808211156200401057600080fd5b6200401e89838a0162003f31565b955060408801359150808211156200403557600080fd5b6200404389838a01620037a8565b945060608801359150808211156200405a57600080fd5b6200406889838a0162003f31565b935060808801359150808211156200407f57600080fd5b506200408e88828901620037a8565b9150509295509295909350565b600080600060608486031215620040b157600080fd5b8335925060208401356001600160401b0380821115620040d057600080fd5b620040de8783880162003ac0565b93506040860135915080821115620040f557600080fd5b506200410486828701620037a8565b9150509250925092565b600080600080608085870312156200412557600080fd5b843593506020850135925060408501356001600160401b038111156200414a57600080fd5b620041588782880162003973565b925050620041696060860162003e94565b905092959194509250565b600080600080608085870312156200418b57600080fd5b8435935060208501356001600160401b03811115620041a957600080fd5b620041b78782880162003973565b9350506040850135620041ca816200388a565b9396929550929360600135925050565b634e487b7160e01b600052602160045260246000fd5b60208101600483106200421357634e487b7160e01b600052602160045260246000fd5b91905290565b6080815260006200422e608083018762003a63565b856020840152828103604084015262004248818662003a63565b91505082606083015295945050505050565b80151581146200259057600080fd5b600080604083850312156200427d57600080fd5b82356200428a816200388a565b91506020830135620038eb816200425a565b600060208284031215620042af57600080fd5b813561ffff81168114620031c757600080fd5b60008060008060808587031215620042d957600080fd5b84359350620042eb6020860162003e94565b92506040850135620041ca816200388a565b600080600080608085870312156200431457600080fd5b843562004321816200388a565b9350602085013562004333816200388a565b92506040850135915060608501356001600160401b038111156200435657600080fd5b8501601f810187136200436857600080fd5b620043798782356020840162003916565b91505092959194509250565b60008060008060008060c087890312156200439f57600080fd5b8635620043ac816200388a565b955060208701356001600160401b0380821115620043c957600080fd5b620043d78a838b0162003973565b96506040890135915080821115620043ee57600080fd5b50620043fd89828a0162003973565b945050606087013562004410816200388a565b9250608087013562004422816200388a565b915060a087013562004434816200388a565b809150509295509295509295565b600080600080608085870312156200445957600080fd5b84359350602085013592506040850135620041ca816200388a565b600080604083850312156200448857600080fd5b823562004495816200388a565b91506020830135620038eb816200388a565b60008060408385031215620044bb57600080fd5b82359150620044cd6020840162003e94565b90509250929050565b634e487b7160e01b600052603260045260246000fd5b634e487b7160e01b600052601160045260246000fd5b80820180821115620008dc57620008dc620044ec565b6000600182016200452d576200452d620044ec565b5060010190565b60208082526014908201527337379030b1b1b2b9b9903832b936b4b9b9b4b7b760611b604082015260600190565b6000602082840312156200457557600080fd5b5051919050565b600181811c908216806200459157607f821691505b602082108103620008c957634e487b7160e01b600052602260045260246000fd5b6020808252602d908201527f4552433732313a2063616c6c6572206973206e6f7420746f6b656e206f776e6560408201526c1c881bdc88185c1c1c9bdd9959609a1b606082015260800190565b8082028115828204841417620008dc57620008dc620044ec565b6000826200463757634e487b7160e01b600052601260045260246000fd5b500490565b6020808252601390820152726f776e65724f663a20696e76616c696421212160681b604082015260600190565b60208082526015908201527462616c616e63654f663a20696e76616c696421212160581b604082015260600190565b602080825260159082015274616c6c6f77616e63653a20696e76616c696421212160581b604082015260600190565b6001600160a01b039384168152919092166020820152604081019190915260600190565b600060208284031215620046fe57600080fd5b8151620031c7816200425a565b601f8211156200093157600081815260208120601f850160051c81016020861015620047345750805b601f850160051c820191505b81811015620016d55782815560010162004740565b81516001600160401b0381111562004771576200477162003739565b62004789816200478284546200457c565b846200470b565b602080601f831160018114620047c15760008415620047a85750858301515b600019600386901b1c1916600185901b178555620016d5565b600085815260208120601f198616915b82811015620047f257888601518255948401946001909101908401620047d1565b5085821015620048115787850151600019600388901b60f8161c191681555b5050505050600190811b01905550565b604080825283519082018190526000906020906060840190828701845b82811015620048655781516001600160a01b0316845292840192908401906001016200483e565b5050508381038285015284518082528583019183019060005b818110156200489c578351835292840192918401916001016200487e565b5090979650505050505050565b6020808252602a908201527f455243323938313a20726f79616c7479206665652077696c6c206578636565646040820152692073616c65507269636560b01b606082015260800190565b60208082526025908201527f4552433732313a207472616e736665722066726f6d20696e636f72726563742060408201526437bbb732b960d91b606082015260800190565b600061ffff808316818103620049525762004952620044ec565b6001019392505050565b60208082526032908201527f4552433732313a207472616e7366657220746f206e6f6e20455243373231526560408201527131b2b4bb32b91034b6b83632b6b2b73a32b960711b606082015260800190565b60008351620049c281846020880162003a3d565b835190830190620049d881836020880162003a3d565b01949350505050565b6020808252602b908201527f496e697469616c697a61626c653a20636f6e7472616374206973206e6f74206960408201526a6e697469616c697a696e6760a81b606082015260800190565b6001600160a01b038581168252841660208201526040810183905260806060820181905260009062004a619083018462003a63565b9695505050505050565b60006020828403121562004a7e57600080fd5b8151620031c7816200385356fe6080604052604051620013c1380380620013c1833981016040819052620000269162000430565b8051825114620000985760405162461bcd60e51b815260206004820152603260248201527f5061796d656e7453706c69747465723a2070617965657320616e6420736861726044820152710cae640d8cadccee8d040dad2e6dac2e8c6d60731b60648201526084015b60405180910390fd5b6000825111620000eb5760405162461bcd60e51b815260206004820152601a60248201527f5061796d656e7453706c69747465723a206e6f2070617965657300000000000060448201526064016200008f565b60005b82518110156200015757620001428382815181106200011157620001116200050e565b60200260200101518383815181106200012e576200012e6200050e565b60200260200101516200016060201b60201c565b806200014e816200053a565b915050620000ee565b50505062000572565b6001600160a01b038216620001cd5760405162461bcd60e51b815260206004820152602c60248201527f5061796d656e7453706c69747465723a206163636f756e74206973207468652060448201526b7a65726f206164647265737360a01b60648201526084016200008f565b600081116200021f5760405162461bcd60e51b815260206004820152601d60248201527f5061796d656e7453706c69747465723a2073686172657320617265203000000060448201526064016200008f565b6001600160a01b038216600090815260356020526040902054156200029b5760405162461bcd60e51b815260206004820152602b60248201527f5061796d656e7453706c69747465723a206163636f756e7420616c726561647960448201526a206861732073686172657360a81b60648201526084016200008f565b60378054600181019091557f42a7b7dd785cd69714a189dffb3fd7d7174edc9ece837694ce50f7078f7c31ae0180546001600160a01b0319166001600160a01b03841690811790915560009081526035602052604090208190556033546200030590829062000556565b603355604080516001600160a01b0384168152602081018390527f40c340f65e17194d14ddddb073d3c9f888e3cb52b5aae0c6c7706b4fbc905fac910160405180910390a15050565b634e487b7160e01b600052604160045260246000fd5b604051601f8201601f191681016001600160401b03811182821017156200038f576200038f6200034e565b604052919050565b60006001600160401b03821115620003b357620003b36200034e565b5060051b60200190565b600082601f830112620003cf57600080fd5b81516020620003e8620003e28362000397565b62000364565b82815260059290921b840181019181810190868411156200040857600080fd5b8286015b848110156200042557805183529183019183016200040c565b509695505050505050565b600080604083850312156200044457600080fd5b82516001600160401b03808211156200045c57600080fd5b818501915085601f8301126200047157600080fd5b8151602062000484620003e28362000397565b82815260059290921b84018101918181019089841115620004a457600080fd5b948201945b83861015620004db5785516001600160a01b0381168114620004cb5760008081fd5b82529482019490820190620004a9565b91880151919650909350505080821115620004f557600080fd5b506200050485828601620003bd565b9150509250929050565b634e487b7160e01b600052603260045260246000fd5b634e487b7160e01b600052601160045260246000fd5b6000600182016200054f576200054f62000524565b5060010190565b808201808211156200056c576200056c62000524565b92915050565b610e3f80620005826000396000f3fe6080604052600436106100ec5760003560e01c80638b83209b1161008a578063c45ac05011610059578063c45ac050146102e6578063ce7c2ac214610306578063d79779b21461033c578063e33b7de31461037257600080fd5b80638b83209b146102385780639852595c14610270578063a3f8eace146102a6578063a522ad25146102c657600080fd5b806327f38113116100c657806327f38113146101c15780633a98ef39146101e3578063406072a9146101f857806348b750441461021857600080fd5b806301ba5fc11461013a57806301ffc9a71461015e578063191655871461019f57600080fd5b36610135577f6ef95f06320e7a25a04a175ca677b7052bdd97131872c2192525a629f51be77033604080516001600160a01b0390921682523460208301520160405180910390a1005b600080fd5b34801561014657600080fd5b506037545b6040519081526020015b60405180910390f35b34801561016a57600080fd5b5061018f610179366004610b41565b6001600160e01b03191663262a681160e21b1490565b6040519015158152602001610155565b3480156101ab57600080fd5b506101bf6101ba366004610b83565b610387565b005b3480156101cd57600080fd5b506101d6610477565b6040516101559190610ba0565b3480156101ef57600080fd5b5060335461014b565b34801561020457600080fd5b5061014b610213366004610bed565b6104d9565b34801561022457600080fd5b506101bf610233366004610bed565b610506565b34801561024457600080fd5b50610258610253366004610c26565b610617565b6040516001600160a01b039091168152602001610155565b34801561027c57600080fd5b5061014b61028b366004610b83565b6001600160a01b031660009081526036602052604090205490565b3480156102b257600080fd5b5061014b6102c1366004610b83565b610647565b3480156102d257600080fd5b506101bf6102e1366004610bed565b61068f565b3480156102f257600080fd5b5061014b610301366004610bed565b6106f8565b34801561031257600080fd5b5061014b610321366004610b83565b6001600160a01b031660009081526035602052604090205490565b34801561034857600080fd5b5061014b610357366004610b83565b6001600160a01b031660009081526038602052604090205490565b34801561037e57600080fd5b5060345461014b565b6001600160a01b0381166000908152603560205260409020546103c55760405162461bcd60e51b81526004016103bc90610c3f565b60405180910390fd5b60006103d082610647565b9050806000036103f25760405162461bcd60e51b81526004016103bc90610c85565b80603460008282546104049190610ce6565b90915550506001600160a01b0382166000908152603660205260409020805482019055610431828261079e565b604080516001600160a01b0384168152602081018390527fdf20fd1e76bc69d672e4814fafb2c449bba3a5369d8359adf9e05e6fde87b056910160405180910390a15050565b606060378054806020026020016040519081016040528092919081815260200182805480156104cf57602002820191906000526020600020905b81546001600160a01b031681526001909101906020018083116104b1575b5050505050905090565b6001600160a01b038083166000908152603960209081526040808320938516835292905220545b92915050565b6001600160a01b03811660009081526035602052604090205461053b5760405162461bcd60e51b81526004016103bc90610c3f565b600061054783836106f8565b9050806000036105695760405162461bcd60e51b81526004016103bc90610c85565b6001600160a01b03831660009081526038602052604081208054839290610591908490610ce6565b90915550506001600160a01b0380841660009081526039602090815260408083209386168352929052208054820190556105cc8383836108bc565b604080516001600160a01b038481168252602082018490528516917f3be5b7a71e84ed12875d241991c70855ac5817d847039e17a9d895c1ceb0f18a910160405180910390a2505050565b60006037828154811061062c5761062c610cf9565b6000918252602090912001546001600160a01b031692915050565b60008061065360345490565b61065d9047610ce6565b90506106888382610683866001600160a01b031660009081526036602052604090205490565b61090e565b9392505050565b600061069a82610647565b905060006106a884846106f8565b9050811515806106b757508015155b6106d35760405162461bcd60e51b81526004016103bc90610c85565b81156106e2576106e283610387565b80156106f2576106f28484610506565b50505050565b6001600160a01b03821660009081526038602052604081205481906040516370a0823160e01b81523060048201526001600160a01b038616906370a0823190602401602060405180830381865afa158015610757573d6000803e3d6000fd5b505050506040513d601f19601f8201168201806040525081019061077b9190610d0f565b6107859190610ce6565b9050610796838261068387876104d9565b949350505050565b804710156107ee5760405162461bcd60e51b815260206004820152601d60248201527f416464726573733a20696e73756666696369656e742062616c616e636500000060448201526064016103bc565b6000826001600160a01b03168260405160006040518083038185875af1925050503d806000811461083b576040519150601f19603f3d011682016040523d82523d6000602084013e610840565b606091505b50509050806108b75760405162461bcd60e51b815260206004820152603a60248201527f416464726573733a20756e61626c6520746f2073656e642076616c75652c207260448201527f6563697069656e74206d6179206861766520726576657274656400000000000060648201526084016103bc565b505050565b604080516001600160a01b038416602482015260448082018490528251808303909101815260649091019091526020810180516001600160e01b031663a9059cbb60e01b1790526108b790849061094c565b6033546001600160a01b038416600090815260356020526040812054909183916109389086610d28565b6109429190610d3f565b6107969190610d61565b60006109a1826040518060400160405280602081526020017f5361666545524332303a206c6f772d6c6576656c2063616c6c206661696c6564815250856001600160a01b0316610a1e9092919063ffffffff16565b8051909150156108b757808060200190518101906109bf9190610d74565b6108b75760405162461bcd60e51b815260206004820152602a60248201527f5361666545524332303a204552433230206f7065726174696f6e20646964206e6044820152691bdd081cdd58d8d9595960b21b60648201526084016103bc565b6060610796848460008585600080866001600160a01b03168587604051610a459190610dba565b60006040518083038185875af1925050503d8060008114610a82576040519150601f19603f3d011682016040523d82523d6000602084013e610a87565b606091505b5091509150610a9887838387610aa3565b979650505050505050565b60608315610b12578251600003610b0b576001600160a01b0385163b610b0b5760405162461bcd60e51b815260206004820152601d60248201527f416464726573733a2063616c6c20746f206e6f6e2d636f6e747261637400000060448201526064016103bc565b5081610796565b6107968383815115610b275781518083602001fd5b8060405162461bcd60e51b81526004016103bc9190610dd6565b600060208284031215610b5357600080fd5b81356001600160e01b03198116811461068857600080fd5b6001600160a01b0381168114610b8057600080fd5b50565b600060208284031215610b9557600080fd5b813561068881610b6b565b6020808252825182820181905260009190848201906040850190845b81811015610be15783516001600160a01b031683529284019291840191600101610bbc565b50909695505050505050565b60008060408385031215610c0057600080fd5b8235610c0b81610b6b565b91506020830135610c1b81610b6b565b809150509250929050565b600060208284031215610c3857600080fd5b5035919050565b60208082526026908201527f5061796d656e7453706c69747465723a206163636f756e7420686173206e6f2060408201526573686172657360d01b606082015260800190565b6020808252602b908201527f5061796d656e7453706c69747465723a206163636f756e74206973206e6f742060408201526a191d59481c185e5b595b9d60aa1b606082015260800190565b634e487b7160e01b600052601160045260246000fd5b8082018082111561050057610500610cd0565b634e487b7160e01b600052603260045260246000fd5b600060208284031215610d2157600080fd5b5051919050565b808202811582820484141761050057610500610cd0565b600082610d5c57634e487b7160e01b600052601260045260246000fd5b500490565b8181038181111561050057610500610cd0565b600060208284031215610d8657600080fd5b8151801515811461068857600080fd5b60005b83811015610db1578181015183820152602001610d99565b50506000910152565b60008251610dcc818460208701610d96565b9190910192915050565b6020815260008251806020840152610df5816040850160208701610d96565b601f01601f1916919091016040019291505056fea2646970667358221220749563ad8636ca019c494f4a5c96738a934c38ad7de885b72278add92156084164736f6c634300081300339f2df0fed2c77648de5860a4cc508cd0818c85b8b8a1ab4ceeef8d981c8956a6a2646970667358221220e42b35ee7201e3fc299f35f852e7488cd8d2374bc02f8cefad9b668616cf580764736f6c63430008130033",
  "linkReferences": {},
  "deployedLinkReferences": {}
}